:020000041000EA
:1000000000B5324B212058609868022188439860DF
:10001000D860186158612E4B002199600221596106
:100020000121F02299502B49196001219960352056
:1000300000F044F80222904214D00621196600F024
:1000400034F8196E01211966002018661A6600F04E
:100050002CF8196E196E196E052000F02FF8012189
:100060000842F9D1002199601B49196000215960AB
:100070001A491B48016001219960EB211966A021F2
:10008000196600F012F800219960164914480160C1
:100090000121996001BC002800D000471248134993
:1000A000086003C880F30888084703B5996A0420EC
:1000B0000142FBD001200142F8D103BD02B5186610
:1000C0001866FFF7F2FF186E186E02BD00000240BE
:1000D000000000180000070000035F00212200005C
:1000E000F4000018222000A00001001008ED00E03C
:1000F00000000000000000000000000074B24E7A12
:1001000000200420F7010010C3010010C5010010F9
:10011000C1010010C1010010C1010010C101001097
:10012000C1010010C1010010C1010010C106001082
:10013000C1010010C1010010E106001025070010E8
:10014000CD010010CD010010CD010010CD01001037
:10015000CD010010CD010010CD010010CD01001027
:10016000CD010010CD010010CD010010CD01001017
:10017000CD010010CD010010CD010010CD01001007
:10018000CD010010CD010010CD010010CD010010F7
:10019000CD010010CD010010CD010010CD010010E7
:1001A000CD010010CD010010CD010010CD010010D7
:1001B000CD010010CD010010CD010010CD010010C7
:1001C00000BE00BE00BE00BE00BE00BEEFF3058054
:1001D000103800BEF2EB88714C6700107067001099
:1001E0003402001090A31AE700201F49086006C8D7
:1001F00081F3088810471D48006800282FD10DA4FE
:100200000ECC002902D000F012F8F9E71849194A7B
:10021000002000E001C19142FCD1174988471749ED
:1002200088471749884700BEFDE701C901C29A42C5
:10023000FBD3704770670010C0000020E80E00205C
:10024000987500100000042000000420987500102C
:10025000001004200010042000000000704709482E
:1002600002F0A6F80047000008ED00E0000000D012
:10027000E80E0020344E002039240010D504001070
:100280002D2500105756000006005250ABB36053A6
:100290007463001006005250861C03028463001031
:1002A000060052505422A29D946300100500525043
:1002B000DE65F46898750010F8B5C0460648074931
:1002C000091A8B10C90FC91810B5491003D0044B77
:1002D000002B00D0984710BDE80E0020E80E00204B
:1002E00000000000054B10B5002B03D00449054861
:1002F00000E000BFFFF7E2FF10BDC04600000000B5
:10030000444D00209062001010B5192001F0DCFE71
:10031000D024802324069B0463621820636101F0CB
:10032000D3FE80235B0463620120A36101F0CCFE55
:100330000223A36210BDC046E12110B54902064860
:1003400001F052FF0221102001F0A6FE022111202F
:1003500001F0A2FE10BDC046004003400FB4802152
:1003600010B582B004AB0C4C04CB20008900019383
:1003700003F080FC00280AD02021084A2018936945
:100380001942FCD12378013413608442F7D102B0C2
:1003900010BC08BC04B01847901200200040034075
:1003A00010B5012002F036F8094BC2021860094B63
:1003B00080011A40084B1343A022D2059446074AF5
:1003C00060440260002242608260036110BDC0464A
:1003D000084E0020FD7F00FF21800A0000400340FE
:1003E000A022D2059446034B1B689B0163445860CE
:1003F000D9617047084E00200D4BA02219680023D8
:1004000082B000930B4BD20518680B4BD2580123D6
:1004100083401A40501E824101928022D2008858A7
:10042000009088581840C01A4342584102B07047A3
:10043000E00D0020084E00200C040000044BA02119
:100440001A6801239340034AC9058B507047C04680
:10045000084E00200C040000F8B51B4BCE46994610
:10046000D02347461B06984680B5184C184E00F01E
:10047000D9FD2768356800291BD0FA220023920095
:1004800003F08CFCC01BA842F1D37B1923604B46C0
:1004900080221B7841469204002B12D04A6101222F
:1004A00053404A46137000F0BDFD276835680029A7
:1004B000E3D1FA21890003F033FCC01BA842E4D247
:1004C000D5E78A61EBE7C0462F4E00203C4D002067
:1004D000E80D0020F8B5CE46474680B505F0C8FDCA
:1004E00000F0C0F8FFF710FFFFF726FF002004F030
:1004F000F7FD204805F01EFEFFF752FF1E4B80213E
:1005000018009846FFF76CFF1C4B012799461C4CBE
:100510001C4E1D4D00F086FD002923D0FA22002339
:10052000920003F03BFC23683268C01A90420BD360
:100530009B188021D02223602B7812068904002B7F
:1005400015D051617B402B70FFF756FF0028E1D09A
:10055000FFF774FF41464846FFF700FF00F062FDD9
:100560000029DBD1FA21890003F0DAFBDBE7916196
:10057000E8E7C046590400101012002090620010F5
:100580003C4D0020E80D00202F4E0020F0B5050066
:100590001400012083B0012912D113785B069B0F50
:1005A000012B0FD00020022B0AD15378012B22D02F
:1005B000022B05D1637912791B021343072B21D03B
:1005C00003B0F0BD53780020222BF9D1E378927864
:1005D0001B0213435A1E9341174ADBB21370137860
:1005E000002B1FD1FA22154B92001A60210028001F
:1005F00004F0AAFEE4E7322321002800104A04F0A8
:10060000B9FEDDE76B460F4E9F1D31000222380018
:1006100004F00EFA3200210028003B88083A04F06A
:10062000A9FECDE7054B1E220749186005F016F913
:10063000002005F047F9D9E7314E0020E80D0020F1
:100640000C64001048640010A4620010002904D05B
:10065000002A02D0014B024A1A607047E40D0020C4
:10066000C409000010B5124B82B0124C0093012255
:100670000121052001F01CFB200001F095FD022363
:1006800020000D4C009301210C4A043301F03AFD87
:100690002300002201210094052001F009FB230022
:1006A000002200210094062001F002FB02B010BDE0
:1006B000006CDC0200800240406BED070007215F08
:1006C0007047C046EFF3108072B6704780F3108811
:1006D0007047C0460000000000000000000000005D
:1006E000EFF309800E4B1A6820381060F0C04446C2
:1006F0004D4656465F46F0C008B572B600F0E4F8C5
:1007000062B60CBC116808681030F0C8A046A94653
:10071000B246BB4680F309882038F0C81847C04667
:100720006C4D002010B5FFF7CDFF040000F0BAF8C3
:10073000002803D08022034B52051A602000FFF7E7
:10074000C5FF10BD04ED00E0F0B5DE4657464E464D
:1007500045464B4BE0B51A6883B0013294461A60A7
:10076000002A6FD0474B00211A68009194455BD353
:10077000454A904612681268002A52D000229146DB
:10078000424A434D9246434A0193934636E04946D6
:1007900059611168013911609A6A002A0DD0D9692E
:1007A000186A566888604160190018318E4261D01D
:1007B000494699621168013911605246D96A126836
:1007C000914201D9524611608A0052189200AE1827
:1007D000706887689860DF607C6084605E61AB5899
:1007E0000133AB505B461B68DB6A994201D9012398
:1007F000009343461B681B68002B11D043461B68BF
:10080000DB68DB685A68944536D35A699868D968BA
:100810001C1D816048605068A042B8D15160B6E7A5
:10082000019B012252421A601B4B1B68002B01D016
:1008300001230093009803B0F0BCBB46B246A94622
:10084000A046F0BD104B154A196810681860116079
:1008500013490A6801320A601A681268002A03D133
:10086000084B013A1A607EE71B68DB681A68054B83
:100870001A6078E750609BE7019B1A60D4E7C04696
:10088000204E0020144E0020704D0020104E0020FD
:10089000784D00206C4D0020244E0020744D002027
:1008A000184E0020064B10B51B68002B02D1FFF735
:1008B0004BFF10BD034A0020136801331360F8E7B3
:1008C0000C4E00201C4E0020264B30B51B68002B20
:1008D00003D00122244B1A6030BD234A234C1360FD
:1008E000226823499300981880000858002820D1D6
:1008F000551EAB00581980000858002828D1951EB5
:10090000AB00581980000858002821D1D51EAB0033
:1009100058198000085800281AD1151FAB00581923
:1009200080000858002813D1053A930098188000D9
:1009300008589B189B00CD18686808334068C91890
:100940006860884206D0C1680A4B19602260C3E71C
:100950002A00EEE74068074BC168686019602260B2
:10096000BAE7C0460C4E0020244E0020104E002056
:10097000784D00206C4D002083680B4810B58446EC
:10098000614462441201090159189B185C684A6865
:100990000120944201D802D00020C0B210BD1A68D4
:1009A0000B689A42F9D8F7E7FFFFFF0F0A4B196867
:1009B000EFF3108072B60A68002AFCD0BFF35F8F95
:1009C0001B68BFF35F8F00221A6080F3108840BF5E
:1009D000002000217047C046E84D0020F8B557467A
:1009E00045464E46DE46E0B598460CAB1C780DAB4E
:1009F0001B78070091469A460568002C59D1AC7BBC
:100A0000002C3BD0660029683619033E89194B78C3
:100A1000AB73002B00D1EB7300238B704B700B700A
:100A20002D4BE218BB6812019B184A461A604246D9
:100A30005A600A9A9A600B9ADA6000238B704B70A6
:100A40000B706B7B9B46002B26D022006B685946AF
:100A5000A86898475B465B005B442A68033B002814
:100A600012D058469619B070D118D35C002B00D024
:100A700073705B460C706B735C450ED0F0BCBB466C
:100A8000B246A946A046F8BDD3189C709119925D54
:100A9000002A1CD15B460B706C734A464346387D76
:100AA00000F044FB051E0AD10E9B002BE6D01D7002
:100AB000E4E7660029683619033E8919B0E7534612
:100AC000002BF1D12100386801F0B6F8ECE75A703C
:100AD0005B460B706C73E0E7FFFFFF0FF0B5DE467F
:100AE00057464E4645460023E0B58BB00893684B09
:100AF0008200D45800239B46099000F093FA02002C
:100B00000B006068EFF3108A72B656460168002940
:100B1000FCD0B246BFF35F8F21684F7B8C46002F1D
:100B20002ED0A5685B49A946791809018944494630
:100B30000868496805000E00AD1A9E41002E5FDD71
:100B400002000B00099800F0F1FA002300229946F8
:100B5000002306920793002398466368BFF35F8FD4
:100B60005A461A608AF310884346002B12D1002897
:100B7000C3D10BB0F0BCBB46B246A946A046F0BDFF
:100B800000230022994600230692079300230020A9
:100B90009846E2E7089B494618023843C047626816
:100BA00005000E00EFF3108A72B61368002BFCD01C
:100BB000BFF35F8F002E41DB2B00334302D023694C
:100BC000002B56D12368D97B002905D01A6848002C
:100BD00041185218033A57709A7B002A00D19F732C
:100BE000DF73E268013FD35D0133D3555B46236178
:100BF0006368BFF35F8F5A461A608AF310887CE7F8
:100C0000002E02D1002D00D09AE70021604600F0AE
:100C100091FF4B461A685B68069207934B469B68A8
:100C200098464B46DB689946E368DB19013B1B7825
:100C300008931B020343236100208EE72369002BE6
:100C4000C0D0069A079B8021521BB34109068B42F4
:100C500002D30122104B5242002104910131039131
:100C6000494601914146200002970091FFF7B6FEE8
:100C7000BCE700F0D7F92A00330012184B4180215D
:100C800009068B42E8D30122034B5242E4E7C046F7
:100C90005C4D0020FFFFFF0FFFFFFF7F10B5144CDE
:100CA0006368002B04D00A21124800F001FE10BD39
:100CB0002300114A1021206800F058FE032000F0A4
:100CC000A5F9032000F09AFA03200C4900F0E8F996
:100CD00000F038FB0A4B9C4603232375D0231B06E8
:100CE0001B6860446375074B80006060DC60DAE776
:100CF000EC0D0020E84D002079090010DD0A0010FD
:100D0000400000345C4D0020F0B557464E46454645
:100D1000DE46E0B585B0019310AB1B780600039367
:100D200000239A46984600927268EFF3108B72B6D1
:100D30001368002BFCD0BFF35F8F3568AC7B002CB1
:100D400000D16EE067002B683F19033FDB195A782A
:100D5000AA73002A00D1EA73484AA118B2680901AF
:100D6000521800980199106051600E9991600F9986
:100D7000D16042469A705A701A706B7B9946002B6C
:100D800000D16BE022006B684946A86898474B4643
:100D90005B004B442A68033B002856D04846D719CD
:100DA000B870D118D35C002B00D07B704B460C7010
:100DB0006B734C4553D0F3681B19013B187873686B
:100DC000BFF35F8F42461A608BF310885346002BA7
:100DD00008D10002204305B0F0BCBB46B246A9468C
:100DE000A046F0BD039B002B46D00E9B00200F9920
:100DF000984703000B433FD004000D1E1ADA009AF7
:100E0000019B121BAB410092019380221206934278
:100E100004D301231A4C5B4200930194039B9A462E
:100E200082E77368BFF35F8F1C608BF3108801202B
:100E30004042D0E700F0F6F880220019694112061E
:100E4000009001919142E9D3E3E7D3189C70D11946
:100E5000D25D002A00D05A704B460B706C73307D07
:100E6000009A019B00F062F982460028A3D021007D
:100E7000306800F0E1FE9EE70020ACE7FFFFFF0FC7
:100E8000FFFFFF7FF0B5EFF30583CE46474680B501
:100E900005000C0085B0002B12D02A4A0020536AAE
:100EA000A34203D3926A0130AA4204D305B0C0BC66
:100EB000B946B046F0BD1B1B5A1E9341D8B2F5E7A8
:100EC000214E02930193214B0200009330000B004E
:100ED000FFF71AFF031EE0DD20BF7168EFF31087F4
:100EE00072B60A68002AFCD0BFF35F8FDAB294466C
:100EF000FF2230681A40417B61450FD00168894666
:100F00005100884649469044414403398978002974
:100F100004D13269934209D1316107E0F1681B0ABB
:100F20008A18013A1278DBB29A4207D07368BFF38D
:100F30005F8F00221A6087F31088AEE7614600F0E9
:100F40007BFEF3E700400540EC0D0020AD090010EA
:100F5000F0B5EFF30582D6464F4646461000C0B5C1
:100F60001038EFF3108872B6214C2368002BFCD0A8
:100F7000BFF35F8F0123190081401E4D1F0069637D
:100F8000AA461D4D29601D4D2E78AC463500C54042
:100F90002F402B4215D053465F6A194B8500EB5802
:100FA0009F4218D36246174B8E43EB581670BFF31F
:100FB0005F8F0022226088F31088002B06D09847AC
:100FC00004E0BFF35F8F276088F31088E0BCBA4667
:100FD000B146A846F0BD0C4B92009C466244136893
:100FE0001360BFF35F8F0023236088F31088EDE761
:100FF000280100D0004005403C700540304E0020E4
:10100000EC4D0020D0470020D03F054010B5034BE9
:1010100001001800024A00F017F910BD2D4E002003
:10102000C4620010034B596A0A00986A596A8A42DE
:10103000FAD170470040054070B504000D00174A12
:10104000536A1900966A536A8B42FAD1300019002C
:1010500024184D41AB4216D813D0104B2A005B6ABE
:101060009D4203D90D494B6A9342FCD3934207D169
:101070000A4A02E0516A994202D1916AA142F9D327
:1010800070BDA642E9D9054B5B6A1C005A1CEFD023
:10109000012201246442E5175242E3E70040054083
:1010A00070B504000D00EFF3108672B61A4A13688B
:1010B000002BFCD0BFF35F8F002D1BD0200000F071
:1010C0007DF9164981420AD0200000F07FF9012104
:1010D000200000F055F90123A340114A1360114B81
:1010E000A400E550BFF35F8F00220B4B1A6086F31C
:1010F000108870BD0121A1400A4BA200D5500A4BB7
:1011000020001A788A4305491A7000F083FA0021FA
:10111000200000F035F9E5E7280100D0510F00105C
:1011200038600540D0470020304E0020F0B54F46D3
:10113000D6464646C0B507002B4C616A0D00A66A2C
:10114000616AA942FAD18B4208D805D00120E0BCDF
:10115000BA46B146A846F0BDB242F7D9EFF3108ABD
:1011600072B6224801680029FCD0BFF35F8F0125C9
:10117000BD401F491C4C8846097889462943C9B29D
:101180008C46414660460870391D890065630A51E6
:101190001849B8004350216A0020294219D0616AD9
:1011A0000800A66A616A8142FAD18B4219D801D13E
:1011B000B24216D8CC450BD00B4B1F221D625D638B
:1011C00001233A4093400C4A136043464A461A7042
:1011D0000120BFF35F8F0022044B1A608AF310884E
:1011E000B5E70020F5E7C04600400540280100D0E3
:1011F000304E0020EC4D002080E200E0EFF3108C38
:1012000072B60A490B68002BFCD0BFF35F8F012335
:101210008340074A0748136202789A430270BFF37B
:101220005F8F00230B608CF310887047280100D07B
:1012300000400540304E0020024B18688007C00F68
:101240007047C04600C0064070B5EFF3108C72B610
:101250000D4D2B68002BFCD0BFF35F8F0724CB080C
:10126000C618C05C01230C40A3401C00044003428C
:1012700007D118433070BFF35F8F2C608CF3108858
:1012800070BD100001F056F92C0100D0F8B54746AA
:10129000CE46884680B5EFF3108C72B6214D2C688F
:1012A000002CFCD0BFF35F8F9A422CD8D4080727BC
:1012B000055D061901241740BC402C421FD00721B0
:1012C0000127894609E0D408055D06194C46390016
:1012D0001440A1400C00294211D001329342F2D2B5
:1012E00001204042BFF35F8F00220E4B1A608CF347
:1012F000108800280FDBC0BCB946B046F8BD2543B6
:1013000010003570EEE7BFF35F8F00232B608CF386
:101310001088012040424346002BECD0089801F091
:1013200009F9C0462C0100D00021044B044ABFF348
:101330005F8F02C39342FAD17047C046000100D0CC
:10134000800100D0044A1078431CDBB2172B00D96F
:10135000102313707047C046140E002010B5064BC2
:10136000064C82B00100009318221F232000FFF7D3
:101370008DFF02B010BDC046E8620010E8480020B2
:1013800001238340002904D0034A1360034A1360F9
:101390007047034A1360FBE780E200E000E100E0F1
:1013A00080E100E001228240034B1B6813405A1E7B
:1013B0009341D8B27047C04600E100E0024B1030C4
:1013C0009B688000C058704700ED00E070B50D00CC
:1013D000EFF3108672B60F4A1368002BFCD0BFF3F0
:1013E0005F8F0D4B10309B6884001B590B4A934252
:1013F00003D09D4201D001F0B5F8074B9B681D5109
:10140000BFF35F8FBFF35F8F0022024B1A6086F33A
:10141000108870BD240100D000ED00E0CD01001067
:10142000F0B557464E46DE464546E0B585B0060067
:1014300000911700EFF3108B72B66A4A1368002B05
:10144000FCD0BFF35F8F0025674B5D579A46002D98
:1014500000DAA9E06B00654C01935B199B0098468C
:10146000A146C1444B4652469B7910361370604BDF
:10147000B6009B6899590B1B2F2B33D95D4B9942B2
:1014800000D0ACE0019B42469C465B4B6544AD00FE
:1014900063535A4B0232A218043B9B1A1B05584A4D
:1014A0005B0D651913436B80564B0121AB80FF2305
:1014B000AB71009BEF71AB604B460B4319004C4B7B
:1014C0009B689951BFF35F8FBFF35F8F0022454B3D
:1014D0001A608BF3108805B0F0BCBB46B246A94633
:1014E000A046F0BD01200A008243D3798C46BB425E
:1014F00031D84546130044491B1B5B415943090D34
:101500003D4B63533D4B02356519043B5B1B1B058B
:101510003B4D5B0D2B43AA464D466B800425AC46E4
:101520005546E044131F44441B1B1B055B0D1D4324
:101530004B46997100999D8099604946DF71334B04
:1015400001431360BBE75800C01880002018C17920
:10155000B9422FD902000623D356002BF3DA0293A7
:101560002B4B61460393131D9A4604235B429C4612
:10157000E14450464B461B1A1B055B0D9C46204B15
:10158000957198466346404603439380019B5A19E0
:101590009200039BA418A380029B1C4AA371009B8A
:1015A0002260E771A3608AE700F0DCFF0025534664
:1015B0005D574FE7908802934005131D9A46031527
:1015C00061469C464046D444634604302018181AAD
:1015D000E0230005400D1B0218430390C5E700F00F
:1015E000C1FF4FE7240100D02E4E0020180E00202E
:1015F00000ED00E0CD01001000A1FFFF480E00202B
:1016000000E0FFFF01BDFFFFAAAA000001488047DC
:1016100001BD0000F0B5DE4657464E464546E0B5F2
:101620000C0083B0EFF3108872B65D4A1368002B8C
:10163000FCD0BFF35F8F5B4B5B499A6803001033AC
:101640009F00D5598D4239D0A5424AD0574EAA1B8A
:101650002F2A33D801229246824091464846544A66
:101660001268104001904846524A1060BFF35F8FE5
:10167000EFF305829346002A35D0934201D000F063
:1016800071FF2A0053469A439068844208D175E05E
:101690004B005B189B00F3189868A04234D01A00E6
:1016A000062151560029F3DA844253D0019B002BC6
:1016B00026D04A46404B1A603D4B1A60394B9B6816
:1016C000DD51BFF35F8FBFF35F8F0022344B1A6091
:1016D00088F3108803B0F0BCBB46B246A946A046CA
:1016E000F0BD0D00EAE72A0053469A439068844211
:1016F000D6D1062010561300002809DA0D0031E07B
:101700004A462C4B1A60D9E706201856002822DBDF
:1017100042001118890074188A46A1689960E1791D
:10172000D971062161569971002925DBA488F11A27
:101730006405241554440919E0240905490D2402BF
:101740002143998013181D4A9B001178F318997151
:101750001070ABE713005946002914D1FF31917185
:101760001749918015490A789A71164A9B1B5B416B
:101770005A43120D0A7099E71349E2E70620105602
:1017800013000028C4DA114A1149D21A083A50024B
:10179000400D014399800F4952080A43DA8085E7DA
:1017A000240100D000ED00E0CD010010180E002053
:1017B00000E100E080E100E080E200E02E4E002049
:1017C00001BDFFFFAAAA000001BD0000520E0020CB
:1017D00000F0FFFF00F8FFFF70B5EFF30581012473
:1017E0000443EFF3108C72B6214A1368002BFCD02F
:1017F000BFF35F8F1F4B05001F4AED1A6D416A430F
:10180000120D1E4D8900AE6852B27658A6421CD009
:101810000621595691421CD012215956914222D08C
:101820001E215956914220D02A2159560324914213
:1018300010D0134B19781A708171BFF35F8F00229B
:101840000B4B1A608CF3108870BDAB680D4C5C506C
:10185000EFE700246100091989005B18FF219971E5
:1018600009499980E5E70124F4E70224F2E7C0463C
:10187000240100D0180E0020AAAA000000ED00E00C
:101880002E4E0020CD01001001BDFFFF054B064A82
:101890001360064A136053609360D3601361536111
:1018A000936170478080808000E400E004E400E001
:1018B000024B9C466144890001607047400000343F
:1018C00010B50400FFF73EFD01002000FFF7F0FF18
:1018D000FF232371BFF35F8F10BDC04610B5040016
:1018E000FFF730FD01002000FFF7E2FFFF23A38098
:1018F000BFF35F8F10BDC04610B504000120FFF795
:101900002DFD034BC3189B002360BFF35F8F10BDF9
:101910004000003470B506000D00140000291DD0F1
:10192000002A12D073688068984762006B00121911
:101930005B193168033A033B002808D08A18957078
:10194000C818CB5C002B0BD10470280070BDCB18DD
:101950009C7088188A5C002A05D105702000F5E784
:1019600053700470F1E75A700570F7E710B58360A3
:101970000023CCB243730133426004738373C47396
:101980000068421C012C05D90133DBB2137003320D
:101990009C42F9D1FF230B405A00D318C0180023F2
:1019A0000338437010BDC04670B505000C1E07D04B
:1019B000630001681B19033BCB185A78002A01D138
:1019C000200070BD500080180338091800204E78A0
:1019D0004870210058702800FFF79CFF3100040078
:1019E0002800FFF7E1FF0600002C20D00028E7D0F8
:1019F000320021006B68A868984772006300921952
:101A00001B192968033A033B002808D08A189470F0
:101A1000C818CB5C002B00D053700670D0E7CB18F1
:101A20009E7088188A5C002A00D05A7004703400B6
:101A3000C6E7C046F0B557464546DE464E46E0B5D9
:101A40000D006F0001687F19033F0400C85D83B07B
:101A50000192CA19002850D043001B18033BCB1831
:101A60005E78B446002E1AD1019E002E42D0E67B4D
:101A7000002E04D073009B19CB18033B5D70A37B31
:101A8000002B00D1A573E57300282FD100235370DC
:101A900003B0F0BCBB46B246A946A046F0BD7200FA
:101AA0006244033A8A185178884600215170894669
:101AB0005970320001002000FFF72CFF4346824698
:101AC000002B07D05B0021684344033BCB185A78B6
:101AD000002A16D1424651462000FFF71BFF21681D
:101AE000019BCA19002BC2D10028CFD043001B187C
:101AF000033BCB1800219970C8E7019B002BB6D19E
:101B0000C4E75000801803380918487883464846CF
:101B10004870587041462000FFF7FCFE5946804649
:101B20002000FFF741FF414602002000FFF7F2FED0
:101B30008046CFE7F0B557464546DE464E46E0B50F
:101B400083B00191457B04006F0000687F19033F5B
:101B5000C15DC219002952D04B005B18033BC3186A
:101B60005E78B446002E1CD1019E002E44D0E67B48
:101B7000002E04D073009B19C318033B5D70A37B38
:101B8000002B00D1A573E573002931D10023280073
:101B90005370617303B0F0BCBB46B246A946A04681
:101BA000F0BD72006244033A8218507880460020EB
:101BB00050708146587032002000FFF7ABFE43465C
:101BC0008246002B07D05B0021684344033BCB18BF
:101BD0005A78002A17D1424651462000FFF79AFE54
:101BE000019B01002068C219002BC0D10029CDD073
:101BF0004B005B18033BC31800209870C6E7019B9D
:101C0000002BB4D1C2E75000801803380918487877
:101C1000834648464870587041462000FFF77AFED8
:101C2000594680462000FFF7BFFE414602002000D3
:101C3000FFF770FE8046CEE770B5050000292CD076
:101C4000437B8B422ED04C0000686418033C04197F
:101C5000A278002A21D053009B18033BC25CC6180F
:101C60008A4202D11BE0002A08D053009B18033B94
:101C7000C3185A788A42F6D162785A70002301223A
:101C80002800A3706370FFF7D5FE697B020028006F
:101C9000FFF740FE6873012000E0002070BD63780C
:101CA0003370EBE701221900FFF7C4FEF2E7C046EC
:101CB000F0B545464E46DE465746E0B583B01600C1
:101CC0000C9A050088469A4200D975E01A0E934690
:101CD0001B0218000193594600230C9A02F05EF88B
:101CE000364B6C009C466419A4006444636807008A
:101CF000834200D260602B1FDBB29946012B36D99C
:101D0000C02380229B01234312011A602C4BAD009B
:101D100059599A46002907D0586902F001F8013054
:101D200043001B18033BFDD2226873015340E0229D
:101D30001A4080235B0123431A604A46012A2ED9A8
:101D4000802380229B01234312011A6059460023FD
:101D50003A000198676002F021F85346585101207B
:101D600003B0F0BCBB46B246A946A046F0BD434610
:101D7000012BC5D1C02303229B0123431A60023AE1
:101D8000A3681A42FCD0226873015340E0221A4033
:101D900080235B0123431A60094AAD009246424604
:101DA0002168514003220A401A60012243469A40AA
:101DB000A3681A42FCD0C3E70020D1E700800040AE
:101DC000E80E002010B50C2082B000F0F1F9FFF70A
:101DD00033FA002810D08B4B8B488B498B4A186004
:101DE00059609860D960186159619861D961186229
:101DF00059625A6202B010BD854CA06700F0E0F94C
:101E00000122844B1A60636C012BFCD10322824BAC
:101E10001A607F4A936B012BFCD1013301217F4A69
:101E20007F480093043300F06DF905237D4A009349
:101E300001217D4800F066F97C4B5A68FF2A02D8E0
:101E4000802252005A608022734B6E4C12011A603D
:101E50002169002907D0606901F062FF0130430069
:101E60001B18033BFDD2E022704B714819680A40F1
:101E7000026002221968514001320A4004210260C6
:101E80009A681142FCD080216A4A090111608022BF
:101E900052005A60684B2361684B5968FF2900D88B
:101EA0005A60032201215B4B1A60644A936819420D
:101EB000FCD0E023106803406148036012680323EC
:101EC0004A40022113405D4A036093681942FCD0E6
:101ED00080215C4B0901196080215B4B49005160F6
:101EE00063615A4B5A68FF2A00D859608022584BC8
:101EF00012011A60E169002907D0606901F010FF42
:101F0000013043001B18033BFDD2E0234F4A116808
:101F10000B4050490B6080214F4B09011960802113
:101F2000394B49005160E3614C4B5A68FF2A00D895
:101F3000596080224A4B12011A60216A002907D099
:101F4000606901F0EDFE013043001B18033BFDD238
:101F5000E023424A11680B4042490B608021424B0A
:101F60000901196080235B0053608022264BD20256
:101F700023623E4B5968914200D25A6080223C4B0A
:101F800012011A60616A002907D0606901F0C8FE79
:101F9000013043001B18033BFDD2E023334A116894
:101FA0000B4034490B608021334B090119608023B9
:101FB000DB025360154B6362304B5A68FF2A02D82C
:101FC000802252005A6080222D4B12011A60A169B2
:101FD000002907D0606901F0A3FE013043001B18FF
:101FE000033BFDD2E023254A11680B4025490B60D5
:101FF0008021254B0901196080235B005360124B3F
:10200000A361F7E6E80E0020006CDC021BB70000BD
:10201000008000403CB0004030B00040002F6859C4
:1020200000800240008C864700C0024030800040A3
:102030003090004030A00040001BB7003C800040C2
:102040003C9000403CA00040405973075480004041
:1020500054B000405490004054A0004060800040C4
:1020600060B000406090004060A000406C80004084
:102070006CB000406C9000406CA000404880004074
:1020800048B000404890004048A00040014B80000C
:10209000C0587047E80E0020094A10B59446402405
:1020A000830063441A68C000624080341440802278
:1020B000520113431C60034B9C466044416010BDB9
:1020C00004C00140004001400123D0228340120699
:1020D00093629361094A40219446830063441A68DD
:1020E000C0004A40803111408022520113431960E0
:1020F000034B9C46052360444360704704C0014085
:1021000000400140F8B5040022481E0017000D00F1
:1021100001F006FE0100380001F002FE069B3604C5
:102120001B031E432368002B22DB1B4B1B49E318B8
:102130005A1E93418022920194465B421B0B184A1F
:102140001B0363441360174A13601F008A68974398
:10215000FBD1C022231D92011A4321232560A060D8
:1021600013602368002BFCDA0823E6601360F8BDD7
:102170003F2322681340AB42D7D1A3681B051B0D38
:102180008342D2D1EE22E368D2021340B342CCD1D3
:10219000EDE7C046001BB7000040FDBF00C0004097
:1021A00000E0004000F000402D2343607047C0462F
:1021B0008023024A9B000343D3627047008005409E
:1021C000AA23064A1B0113602F230549D360054B40
:1021D00019605368002BFCDA7047C046004002408B
:1021E00000B0FA0000600240F8B5CE464746040051
:1021F00080B506200D00FFF749FF061E53D0534B54
:102200005349E3185A1E93418022120494465B42BC
:102210009B0D504A9B05634413604F4A136018009E
:102220008A689043FBD1494B4C4AE31859424B41D1
:1022300080215B00490006209952FFF727FF290003
:10224000C00001F06DFDC30932D14022012190464A
:102250006162A362266BF30736D427008025E36A08
:1022600000232C376D013D432B6006202663FFF7CA
:102270000DFF4146800001F053FD236B0600984698
:10228000DB073BD46023E26A5A400E3313402B60D5
:1022900043462363802310229B013B431A60304B4B
:1022A00023630323A3643000C0BCB946B046F8BD25
:1022B0002C4A93423FD900232B492C4A6162A362E6
:1022C000266B9046F307C8D52200C02330329B010D
:1022D0001343234A06201A60656AA36AAD01ED180C
:1022E000FFF7D4FE224901F01BFDAD0201002800DA
:1022F00001F016FD0021FEF79FFEAEE72200C0238D
:1023000030329B011343164A06201A60636AA26AA0
:102310009B0199469144FFF7B9FE4B4614499B0235
:10232000994601F0FDFC0100484601F0F9FC00214E
:10233000FEF782FEA6E77F2299018846024001321D
:10234000520819009044130082E7C0460080FCBF89
:1023500000C0004000E0004000F00040FC4D0020C4
:1023600001030000FEFF0000FFFF0000C0FF3F0070
:102370004E0E000010B588B004000D220021684602
:1023800002F050FB0D22002104A802F04BFB4B236E
:102390006A466846137004A90D2203F029FF15212F
:1023A00008222000694402F043FB08B010BDC0467B
:1023B000142310B50100188804331B88984710BDFA
:1023C000162310B50100188802331B88984710BDEA
:1023D000F8B54746CE4680B50F1E19D0142399464E
:1023E000043304000025012698464B4618884346CE
:1023F00021681B88984701C4431E9841013540421B
:102400000640AF42F1D13000C0BCB946B046F8BD7D
:102410000126F8E710B5064B064C82B00100009388
:1024200000220B232000FEF731FF02B010BDC04692
:1024300004630010284E00202C4B2D4A70B51A6002
:102440002C4A2D4B2D491A6014008B689C43FBD1FC
:102450002B4D2C4EB54208D2013E761BB60808CD56
:10246000984723000134B342F9D1FFF7ABFC264A69
:10247000214B1A60214A9368DB43DB01DD09002B05
:10248000F9D14022214B224C224E9A675A671A6793
:10249000DA66B44208D223682000002B20D008342A
:1024A000FFF71CFAB442F6D31B4C1C4EC022B16895
:1024B000200002F0BDFAB460FEF736FFFFF7E6F940
:1024C000FEF7ECFB164C174EB44208D2013E361B09
:1024D000B60808CC98472B0001359E42F9D170BD53
:1024E0000834FFF7EDF9B442D5D3DDE700E0004052
:1024F000BFCDFBFEFE7F3C0000F0004000C000406E
:10250000D00E0020E00E0020FFFFFF0100F0014090
:10251000C00E0020D00E00200000002000ED00E0E2
:10252000E00E0020E80E002000BEFDE710B5FFF72A
:10253000FBFFC0460FB400B5084883B002F014FB9F
:10254000049B002B07D005A91800019101F0A0FB06
:10255000034802F009FB0120FFF7E6FF24630010A7
:102560003463001010B50148FFF7E4FF3863001032
:102570009A4200D2885470477047C046F8B5574613
:10258000DE464E464546E0B599460A9B07009A4608
:102590000D9B884693460B9C9B073BD10C9B9C4212
:1025A0003DD21E1B0B9415000C005E442A004B46C6
:1025B000013521002020B847B542F7D1A0460B9C39
:1025C000002C20D0454636195346321B013C185D7D
:1025D00029004B46B847002CF6D12B003500984611
:1025E0000D9B9B070FD55B46EC1A0C9BA3420AD9A7
:1025F000464698462A004B46310020200134B84711
:1026000001354445F6D32800F0BCBB46B246A94686
:10261000A046F8BD16001500002CD3D1E0E7160047
:10262000002CCFD11500EEE7F0B54F464646D64612
:10263000C0B584B098460EAB1B7894469946129B61
:102640000D9C109F119E9A0725D4002E65D1BC4287
:1026500021D201221A409246202C00D1E9E00C9AA6
:10266000551E302202E0202C00D17BE001342A5597
:10267000A742F8D85246002A0DD0B4420BD20C9A89
:10268000551E3022202C02D171E0202C2DD0013497
:102690002A55B442F9D1DA063CD55A052ED4002C7D
:1026A00028D10F9A102A00D1B6E0022A00D1BCE04E
:1026B00030220C9C227001244A46002A65D15A0718
:1026C00000D499E02B220C9D2A55013403930C9BD6
:1026D00062460093029643460194FFF74FFF04B011
:1026E000E0BCBA46B146A846F0BD2024DA06EDD5D6
:1026F0005A0503D4A74266D0B44264D00F9A102A78
:1027000071D0022A57D0202CE0D02200013430258D
:102710000C9FBD54202CD9D0CEE7012215001D40BE
:10272000AA461A4236D04A46002A4AD10C321A42E8
:1027300047D1BC42A1D2202C91D1202E17D82024E1
:10274000DA06C3D55A051BD4202F01D0202ED5D1AF
:102750001F220F9D102D6FD0022DD8D162250C9F06
:10276000BD54D0E75246002A79D0202EBDD920246E
:10277000DA06ABD55A0503D4202FE9D0202EE7D0B6
:102780000F9A102AA2D12024A0E72D220C9D2A55B1
:1027900001349BE7BC4200D37DE7202C00D05EE7EC
:1027A000DA06F0D55A05EED4202F62D0202EEAD1D9
:1027B00034001F22CDE7202C00D187E7220001340E
:1027C000CCE7013EB5E7621E012CC2D10F9A102A58
:1027D00000D06AE79A063BD558220C9C2270283A12
:1027E0006270022468E79A060ED4202CCBD078229F
:1027F0000C9D2A55013486E71A0700D466E720228B
:102800000C9D2A55013461E7202CBCD058250C9A28
:1028100012191570013476E79A0608D558220C9CD7
:10282000227030226270022446E76032F7E7782295
:10283000F5E7002A83D1B3E7A21E013C9D0603D42D
:1028400078250C9FBD5460E758250C9FBD545CE76C
:1028500078220C9C2270483A627002242CE7DA0637
:1028600000D433E75A058BD4202F00D044E71F2231
:102870006FE73C001F226CE710B5002800D110BDA7
:1028800002F026F9FBE7C046F0B557464E464546EE
:10289000DE46E0B599B08246894690460893229A72
:1028A000239B1000190001F0FCFC002800D0CDE0B3
:1028B000229823990122D94B524201F0EDFC0028C5
:1028C00000D0C3E0229823990122D54B524201F057
:1028D000D5FC002800D0B9E02298239900220023DB
:1028E00001F0CCFC002800D0F1E1229E239F802340
:1028F000269ADB001A400D92269A1A4201D106232D
:1029000024938023269A1B011A403B009346099684
:10291000334300D0B3E0002A00D0C2E100230024FA
:102920000A930B94002304250993259B0024AB42B2
:1029300000D95C1B0223269A1A400C92269A134255
:1029400003D06B426B415B421C40099B002B07D0BC
:102950000A9A0B9B3000390001F02FFC06000F0093
:10296000229823990022002301F088FC002803D03C
:10297000802109067B181F00269AAA4B0096019712
:102980001340089E0493249B039402934246330011
:102990004946504600F0AAF90400002D67D02020D7
:1029A000269A4946024013005A4253415B42621C38
:1029B00018400A92330022004530D047099A6F1E12
:1029C000D317D4185C40D30F9B46002501E0202D7F
:1029D00013D008AA94461F23200063440A2101351E
:1029E0005E1901F09DF93031317020000A2101F0AB
:1029F00097F926000400092EE9D805230693002341
:102A000004930A3303935B46089E029310AB0A9A21
:102A1000009349463300504605970195FFF704FEA1
:102A20000C9A0400002A22D04246851A259AAA420E
:102A30001DD9B0465746160022004346494620207D
:102A40000135B8470134AE42F6D810E0269B424625
:102A50000493259B49460393249B50460293229B53
:102A6000239C00930194089B00F040F9040020008F
:102A700019B0F0BCBB46B246A946A046F0BD6A4BB1
:102A800078009C46400D604401F01EFC674A684B8C
:102A900001F0B1FB674A684B01F086FB674A3B03D4
:102AA0001B0B1A4304000D0009981100644B00220F
:102AB00001F071FB634A644B01F09DFB02000B00C7
:102AC0002000290001F070FB01F016FC099001F0D4
:102AD000FBFB5E4A5E4B04000D0001F08CFB002204
:102AE0005C4B01F061FB01F007FC5B4A5B4B29008A
:102AF0000C90200001F07FFB04000C980D0001F009
:102B0000E3FB574A574B01F076FB02000B00200015
:102B1000290001F040FB04000D0002000B000A94A4
:102B20000B9501F068FB04000D000A980B99020058
:102B30000B0001F039FB00220E900F914A4B200050
:102B4000290001F03AFB0022484B01F02DFB020066
:102B50000B002000290001F030FB0022444B01F063
:102B600023FB02000B002000290001F026FB0A9A3B
:102B70000B9B0D0080210400C905002001F00BFB18
:102B800002000B002000290001F00EFB02000B00E8
:102B90000E980F9901F011FB0022284B01F004FB65
:102BA000344B0C9C9C4664442305002201F023FB1B
:102BB00004000D0002000B00300039000A940B9550
:102BC00001F05CFB00285DD123002A00C62509998D
:102BD00063318D42AD4159466D420435002900D123
:102BE000A3E6134363D030003900234A234B01F09E
:102BF0004BFB002807D0002230003900204B01F0A9
:102C00003DFB002853D1249B002B00D18DE60D9B6A
:102C10005A1E9341249AD31A249386E6FFFFEF7F2E
:102C2000FFFFEFFFFFF7FFFF01FCFFFFFB799F5066
:102C30001344D33FB3C8608B288AC63F0000F03FDF
:102C40000000F83F61436F63A787D23F71A3790902
:102C50004F930A400000E03F1655B5BBB16B0240F0
:102C6000EF39FAFE422EE63F00002C4000002440DF
:102C700000001840FF0300002D431CEBE2361A3F12
:102C800080842E41099B0022013B09932000164BB2
:102C9000290001F092FA0A00010003000A910B9248
:102CA00094E7002300240A930B9400230993249AA9
:102CB000099B9A4214DDD31A013B24938023269A60
:102CC000DB001A4300230025269209932DE680227B
:102CD00012069446229B1E00239B63441F0006E6B7
:102CE00000232493EAE7C04600002440F0B545469F
:102CF000DE464E465746E0B595B08B46904699461F
:102D00001E9A1F9B0A9019001000209D01F0C9FA1D
:102D1000002800D0B0E11E981F990122C74B5242F3
:102D200001F0ACFA002800D037E11E981F9901226B
:102D3000C34B524201F0B0FA002800D0A7E01E9821
:102D40001F990022BF4B01F0A7FA002800D088E0AD
:102D50001E981F990022BC4B01F090FA002800D069
:102D60007FE01E981F990022002301F087FA0028B7
:102D700000D0FAE000230B938023229C229ADB00F0
:102D80001C401A4200D102E1092D00D87CE106A9BD
:102D90008C462C00172200233021093C6244013369
:102DA000D154EF1A202B00D132E1A342F7D10022F7
:102DB000A44B069207931E981F9901F09DFA0500F7
:102DC00001F082FA02000B001E981F9901F0E3F94E
:102DD000069A079B01F00FFA0890099101F0B0FAEA
:102DE000060001F06DFA02000B000898099901F045
:102DF000D2F90022954B0890099101F04DFA002874
:102E000000D1D2E00136300001F05AFA069A079B51
:102E100001F03AFA002801D000260135AA46002F19
:102E200000D098E0280001F04FFA02000B001E9835
:102E30001F9901F0B0F9854B002206000F0001F048
:102E40001DFA0CAB9A46002845D10022300039000B
:102E50007E4B01F021FA00283DD1EB073BD501352F
:102E600039E0229B42460493219B594603930A98DA
:102E70001E9B1F9C0295009301944B46FFF704FD97
:102E800015B0F0BCBB46B246A946A046F0BD229B99
:102E90005B0767D403226E4B22990192039121991B
:102EA0000291009342464B4659460A98FFF766FB4B
:102EB000E6E706AA94461723280063440A21013452
:102EC0001E1900F005FF3031280031700A2100F092
:102ED000FFFE051E76D0202CEBD10323229A13404F
:102EE000012B1DD1219B002B1AD00B9B002B00D056
:102EF000BBE0229A0C33134200D0B6E0219BA342E0
:102F000000D887E006AB9C4617223023624404E0D9
:102F10002199013413558C4259D0202CF8D120240A
:102F2000229B01940393219B02935346B9E706AA7F
:102F3000944617230A216344300001341D1900F020
:102F4000EFFE3031297030000A21013F00F0E8FE29
:102F5000092E46D90600202CE9D155460CAB202479
:102F60009A46B8E704223B4B96E71E9A1F9B002027
:102F7000002101F010F901230B938023229C229A57
:102F8000DB001E901F911C401A4200D0FCE600227C
:102F9000314B0627069207930DE7229B0393219B53
:102FA0000293042301932D4B7BE700220898099993
:102FB000264B01F063F9002800D02FE7002E4FD1F7
:102FC00001362BE70323229A1340012B66D0202CD5
:102FD000A6D00B9B002B1FD02D2352461355013436
:102FE0009EE75546202CB9D030233A19002F08D03F
:102FF000172006A9013409180B55202CAED0944295
:10300000F6D10CAB9A462E2352461355013462E793
:103010002024CCE6202C83D0229B5B0708D4229B63
:103020001B0700D47CE7202352461355013477E771
:103030002B2352461355013472E7C046FFFFEFFFC2
:10304000FFFFEF7F65CDCD4165CDCDC10000E03FF5
:103050004C6300104463001080842E4154630010C0
:10306000F30700D4DAE60136D8E6219B013B219331
:10307000A34200D946E7AAE7229B0393219B029330
:1030800003230193074B0CE7074BEA009B185C688E
:103090001B682F000693079400248CE6219B002BCD
:1030A00095D022E75063001090660010F0B55746A7
:1030B000DE464E464546E0B5A5B01F002E9B914624
:1030C0000D93CA4ACA4B82468B461A60002900D12A
:1030D00029E2002338789846002800D12BE2C54B1E
:1030E00044460C93C44B55464E460E930AE0631C6F
:1030F0009846220033005946A847444638780028AD
:1031000000D187E001372528F1D108239A46043BF6
:103110009946023B9846013B00229C460B94387826
:10312000791C0300203BDBB2102B03D80C9C9B00C6
:10313000E3589F460300303B0B9C0B92092B3AD976
:10314000002398462A2800D1DDE000239A462E2845
:103150004BD00300683BDBB2122B1ED80E9A9B00AB
:10316000D3589F4663460F001A43D8E743460F00E3
:103170001A43D4E74B460F001A43D0E710230F0041
:103180001A43CCE753460F001A43C8E780235B007D
:103190000B9A78781A430B9201310F0067284FD8A9
:1031A0002428A4D90300253BDBB2422B9FD89349A6
:1031B0009B00CB589F46002398460B9B47469C4656
:1031C00000E00131BB00DB195B001F180878303FBD
:1031D0000300303B092BF4D963460B930023B84618
:1031E0009A460F0001312E28B3D180200B9AC000DF
:1031F00002430B9230225242944678780B0084446A
:103200006246092A00D8AAE12A2800D1B9E10F00B4
:1032100001319EE7A046AA46B146C84503D3012323
:103220005B424B4498464B46424659460020D047A5
:10323000200025B0F0BCBB46B246A946A046F0BD72
:1032400001006939C9B20F2900D950E701238B4029
:103250009C466B4B994663464A4613400F93624621
:103260004B461A4200D068E10A2956D0072900D0FF
:103270003DE70D9B02CB9846002900D092E10B9BC5
:1032800010211A008A431000113108438146802022
:103290001A00C0000240110003421CD114AB9C462E
:1032A0001F220F2362440D959C4615000F9B0B9423
:1032B00002E0202B0CD0110064460C402000373077
:1032C000092C00D807380133E8540A090F29F0D82F
:1032D0000B9C0D9D0F934B46082206935346059277
:1032E00008320392002204930F9B029201931CABBD
:1032F00022000093594633002800FFF795F9434612
:1033000004000D93FAE60D9B04CB9046002A79DB6E
:1033100078780D930F00013117E70D9B02CB1493C2
:103320000B789C4618005346002B00D134E100284E
:1033300015D05346013B013399460D940B9C8944AB
:103340004A460B00A14601E0934203D05C7801336A
:10335000002CF9D14A465B1A0D9C0B920F938023E7
:10336000DB0099460B9A13400D934B461A4204D04A
:103370000F9B534501D953460F93022399460B9A4D
:1033800013400B934B46134200D1F5E16346002BEB
:1033900000D1D6E10D9B002B00D182E10B1BD14661
:1033A00031009A463B00A1442E005F464D46220064
:1033B0009B46894609E04B463900541CB0475346AA
:1033C000185D002800D192E122009542F3D14B46CE
:1033D0005A46A946BB46350017001E004C460B9BBB
:1033E000002B00D0ADE1149B0D9387E6AD300010AB
:1033F000384D0020F464001038650010846500101A
:10340000419000000B9A283802430B9242465242E8
:10341000787890460F000D93013196E678786C2805
:1034200000D15DE180230B9A5B001A430B920131BE
:10343000B3E680239B00ABE67878682800D148E1AA
:1034400080230B9A01311A430B92A6E6672800D11C
:10345000B2E0472800D11AE1452800D11CE10B9ABF
:103460000721049242460D9B0392073352468B4339
:10347000190002920CC92800009201930D912200BC
:1034800033005946FFF700FA040037E6462800D11A
:103490008DE00B9A0721049242460D9B039207335D
:1034A00052468B43190002920CC9280000920193E6
:1034B0000D91220033005946FFF718FC04001DE669
:1034C000631C98462200330059462520A8474446ED
:1034D00014E60D9B04330F93631C99460B9B9A07CC
:1034E00000D40AE10D9B2200187859463300A84702
:1034F00043464444012B00D86FE1B0462E0025001E
:103500004C46B9465F46220043460134390020202C
:10351000B047AC42F7D12C00BB4635004F4646467B
:103520000F9B0D93EAE5D64B38789A4600239846D0
:10353000002800D0D3E500246FE66F2842D000D8E1
:10354000FDE11023782800D19BE00B9A9A430B925F
:103550000A239C46002314930A330F9338E05746FE
:103560000B9AB900C919490001330F181878303F78
:10357000010030390929F4D9BA460B921F00591CB1
:10358000E7E50D9BB87804CB0237D143C9170A4051
:1035900092460D93791CDCE5002800D1DFE602237A
:1035A0005B42C8E621200B9A0243914676E620232F
:1035B0000B9A1A430B926CE780230B9A1B011A4358
:1035C0000B924CE708239C460023149308330F9377
:1035D0000B9880230200DB001A4011000200184201
:1035E00000D080E00C239A431000802302009B004F
:1035F0001A400B92184200D0F1E0802302005B00D9
:103600001A4091460D9A04321492184200D0C3E237
:10361000430600D5D7E0030600D421E30D9B1B88A9
:103620000993002B00D02DE110339843002900D1DD
:1036300028E10023994643460593534604930F9B84
:1036400006900393002302934B4601931CAB220088
:103650000093594633002800FEF7E6FF0400C2E657
:10366000582809D0622800D0E3E202239C460023B8
:10367000149302330F93ABE720230B9A1A430B9258
:10368000103B9C460023149310330F93A0E7802334
:103690000B9A1B011A430B9220230B9A1A430B928D
:1036A000DDE60B1B9A460F9B99463B0037005E46B2
:1036B0009B4622003B003100A84753460134185D69
:1036C0000028F6D14B460F935B46B3463E001F00E1
:1036D00085E6C0230B9AB8781A430B92F91C5CE577
:1036E000C0239B00F6E70D239A4310007DE75B465D
:1036F0003500BB464E461F0071E64346012B66D996
:10370000631E434432002E001D003B00A2465F466C
:1037100091469B4622004B46013439002020B04799
:10372000AC42F7D15B463500BB464E46A1465446F7
:103730001F000D9B4A461878594633004444A84759
:10374000EEE60F9BA146984500D84CE64444E41AA7
:10375000B0462E0025004C46B9465F46220043463F
:10376000013439002020B047AC42F7D12C00BB46D1
:1037700035004F46464636E60F98804500D873E23E
:103780004346E218131A32002E001D003B009146FA
:103790005F469B460F9122004B46013439002020A2
:1037A000B047AC42F7D15B46BB461F0043460F997A
:1037B00001330F930B7835009C464E466046002837
:1037C00000D0E7E50FE60D9B1B78099329E70D9BD9
:1037D0002200187859463300A8474C46A0E60D9AB7
:1037E000FA3BFF3B07329A430133994691444B46DB
:1037F0000D931368526815921A4306D11032904304
:1038000000220992002900D083E06122810600D5C0
:103810004122D2B20A9214AA91460A9A00210A3A87
:103820000B9242461792524618925A46B246099156
:103830001E001F31149B4944BB4616941A95002460
:10384000674698468946159D19901B920AE03032CA
:10385000D2B24B4601341A55A8454CD0202C4CD03E
:1038600006000D003A0000233000290000F096FA0F
:10387000D2B2092AEBD90B9B9C466244D2B2E8E74C
:10388000792500106123820600D54123DBB20A3B73
:103890000B93434614A91F228C461593534662444A
:1038A000B2460D9417974C468046A9461700099DCD
:1038B0000F9E169308E03033DBB201343B55B5421E
:1038C0000ED3202C0CD005003100280000F028FA7F
:1038D000CBB20929EFD90B9A94466344DBB2ECE7EB
:1038E000159B40469846169B4D465646A1469A461D
:1038F0000D9C179F9FE6B742B0D9179B5646984636
:10390000189B5F469A461B9B09949B46169C1998E8
:103910001A9D43460593534604930F9B06900393C9
:1039200000230293099B01931CAB2200009359468C
:1039300033002800FEF778FE0400FFF7DFFB1023BA
:103940000B9A9A430F92692800D091E10B9980233A
:103950000A00DB001A4010000A00194203D01121AE
:1039600018008A430F920F9A802311009B00194080
:103970008C461A425BD1802311005B0019408946B6
:103980000D9904310B911A4200D0B2E013005B068E
:1039900000D4EDE00D9B1B781A00D90F0D91002B80
:1039A00000D1A3E0100014AA944642461F231592AA
:1039B00052466344A846BA464D461494B1460400A4
:1039C0001F00169201E0202D0FD020000A2100F0E8
:1039D000A7F901357E193031317020000A2100F03D
:1039E0009FF926000400092EEDD8159B4E46A946E6
:1039F00045469846169B57469A46149C0F9B06933D
:103A000043460593534604930A2303930D9B029365
:103A10004B4601931CAB220000935946330028000B
:103A2000FEF702FE0B9B04000D93FFF767FB0722D6
:103A30000D9B07339343013294469C4462460D929A
:103A40000CCBD90F0B911100194300D19BE0D91772
:103A5000139112915140109113995940119110985E
:103A60001199129A139B801A99411090119114AADE
:103A700094464246002315925246994616923200C9
:103A80001F336344A8464E46BA4614941F00109C48
:103A9000119D914601E0202E10D0200029000A221D
:103AA000002300F07BF9013630322B00BA550D00AF
:103AB00022000400002BEED1092AECD8159B1094AB
:103AC0001195454698464B46169AB14657461E00F4
:103AD0009246149C0F9B06934346059353460493CA
:103AE0000A2303930B9B02934B461CE7002885D1C6
:103AF00059E70D9B1B68DA0F1100002B00D1A6E0DF
:103B0000DA179818504014AA91461F2342464B4496
:103B1000A8460D94169704006546B1461F001491FF
:103B2000159201E0202D0FD020000A2100F0F8F8B6
:103B300001357E193031317020000A2100F0F0F893
:103B400026000400092EEDD8159BAC464546984644
:103B5000149B4E4619000D9C169F0F9B02910693D5
:103B600043460593534604930A230393634650E761
:103B700013001B066ED50D9B00229B5ED9175A18A9
:103B80004A4092B209E7002399460028A2D10022B8
:103B90000023109211936AE70D9B1B689946002B36
:103BA00003D110339843002938D16123820600D510
:103BB0004123DBB20A3B0D9343461693534614A9A7
:103BC0001F228C4617932B0062444D46B246159433
:103BD00018978046170099460B9C0F9E08E03033DB
:103BE000DBB201343B55B5420ED3202C0CD005007E
:103BF0003100280000F094F8CBB20929EFD90D9AD2
:103C000094466344DBB2ECE7169B40469846179B0C
:103C100056464D469A460B94189F159C434605936D
:103C2000534604930F9B06900393002302930B9B30
:103C30000BE50B9980230A00DB001A4010000A00F4
:103C4000194200D08BE610239A430F928BE600288E
:103C500083D158E70D9B1B68D9175A184A409CE638
:103C60000D9B1B680993DCE4030001330F93A5E56A
:103C70000B926DE410B5054C82B0009313000A005E
:103C800001002000FFF712FA02B010BD71250010EC
:103C900010B5094A0300146884B0002C08D0012232
:103CA00000910648524203A9A047012004B010BD6C
:103CB00000F05AFF0020F9E7384D00207928001065
:103CC00001480421014B1847600E0020D123001049
:103CD000124A936F9B0815D29066D166002905D0D1
:103CE000FFE7FFE7FFE7516F106F704704B58021D2
:103CF0000906C2175140002800D0C84302F098FAC4
:103D0000002104BDF0B5146E556E576F166FFFF7A6
:103D1000E3FF1466556657671667F0BD000000D0D4
:103D2000114A936F9B0813D210665166002905D083
:103D3000FFE7FFE7FFE7516F106F704704B50028FA
:103D400001D00020C04302F073FA002104BDC04638
:103D5000F0B5146E556E576F166FFFF7E5FF1466DA
:103D6000556657671667F0BD000000D094464A4A72
:103D7000926F9208624601D228E0C046F0B5464EE6
:103D8000346E756E776F366F00F020F89446424AB5
:103D900014665566576716676246F0BD94463E4AFC
:103DA000926F9208624601D254E0C046F0B53A4E96
:103DB000346E756E776F366F00F04CF89446364A65
:103DC00014665566576716676246F0BD002B24DB04
:103DD00011D000293EDA00B5C943404200D101317B
:103DE00000F038F8C943404200D10131DB43524270
:103DF00000D1013300BD002AEBD1002801D10029F8
:103E000005D00020C90FC90701D1C043410800B542
:103E100002F0FEF90022002300BD00B500290ADBF4
:103E2000DB43524200D1013300F014F8C943404251
:103E300000D1013100BDC943404200D10131DB4313
:103E4000524200D1013300F005F8DB43524200D169
:103E5000013300BD002923D1002B18D1002A0CD03A
:103E6000BC460D4F38667A6600210023FFE7FFE766
:103E7000FFE77A6F386F67467047002801D0074820
:103E8000010000B502F0C4F90022002300BD0200C9
:103E90000B00002000217047000000D0FFFFFFFF53
:103EA000002B00D0BFE0130C28D1002AE7D080B44B
:103EB000114F39667A66FFE7FFE730B4040C7B6F79
:103EC000396F1B0423433B667A66FFE7FFE7FFE792
:103ED000C04684B27B6F3D6F1B0423433B667A660A
:103EE000FFE7FFE7C04600232C042D0C7A6F386FE4
:103EF00000196941B0BC7047000000D0F0B594468D
:103F00000025140E01D112020835140F01D112013F
:103F10000435940F01D192000235D40F01D1520023
:103F20000135D40B0134254F7C66254C3C660E0CC4
:103F300093B2FFE7FFE7FFE73C6F6643360C77037A
:103F4000BE467343DF0B5B04C01AB941130C7343C5
:103F5000DB18C91ACE086643360CB64493B27343D5
:103F60001F0F1B01C01AB941130C73431F0B1B0514
:103F7000C01AB941860D8F023E436643360C092DA7
:103F800024DB520A7243801A7703460A6643360CD2
:103F900016235B1BDE40DF40BF1964466643821B6D
:103FA0007046043506330100D940A840C01900D33B
:103FB0000131A24206D20023F0BD0000000000D073
:103FC000FFFFFFFF121B0130F3D3F1E709277F1B2F
:103FD000FE406446A2B27243801A00D20139220C1C
:103FE0007243130C1204821A99410B007046043577
:103FF00013370100F940A840801900D30131002B8C
:1040000002D1A2420AD2F0BD013000D30131121B0D
:10401000FAD2013BF8D1A24200D2F0BD013000D368
:104020000131121BF7E7F0B51C0C00D080E00CB496
:1040300000251C0A04D11B02160E33431202083558
:104040001C0B04D11B01160F3343120104359C0BCA
:1040500004D19B00960F334392000235DC0B02D152
:1040600092185B4101351C00971864410134464F9A
:104070007C66464C3C660E0CFFE7FFE7FFE7C04658
:104080003C6F6643360C7703BE4697B27743C01B3E
:1040900000D20139C01B00D201399FB27743C91B3E
:1040A000C91B170C77437E04FF0B801BB941CE0858
:1040B0006643360C0C2D33DBB644120B1F053A4316
:1040C0001B0B97B27743C01B00D201399FB27743D5
:1040D000C91B170C77433E043F0C801BB941860D6A
:1040E0008F023E43664329277F1BFE400C3D7746E7
:1040F000AF40BF1930BCA2B2ABB272437343801A57
:104100009941220C7243130C1204801A9941020047
:104110000B000137001BA941F9D2781E0021F0BD28
:104120000C277F1BFE4077467F0BAF40FF19E0E76F
:1041300000245D1C07D0144F7D663966FFE7FFE75A
:10414000FFE7FFE73C6F95B29EB265436643401BB5
:10415000B141150C1E0C6543664336042F0C3E43DB
:104160002D04401BB141994204D202000B002000F3
:104170000021F0BD01D19042F7D3801A994101345A
:104180009942F2D3F6E70000000000D0FFFFFFFFE6
:1041900048404140484018B41B4B5B68FC460193C3
:1041A00008BD04DF2344001018B4174B1B68FC46FD
:1041B000019308BD00DF2D4400109446134A926F0E
:1041C000920809D2624618B40F4BDB68FC46019393
:1041D00008BD0CDFE54600100C4AF0B5146E556EB4
:1041E000576F166F6246FFF7EEFF084A1466556672
:1041F00057671667F0BD18B4034B9B68FC460193E4
:1042000008BD08DF8945001010100020000000D014
:10421000FFB550404240504059404B40594000E0AB
:10422000FFB5154F4C00640D03D0BC4204D10C0304
:1042300014D80020090D09055C00640D03D0BC42B0
:1042400004D11C030AD800221B0D1B0501264B407C
:1042500009D44B4003D58B4200D18242FFBD994225
:10426000FCD19042FFBD0B43DB1803431343F5D051
:10427000C9434918FFBD0000FF07000000B5FFF764
:10428000CFFF804100BDC04600B5FFF7C1FF01D997
:10429000002000BD012000BD00B5FFF7B9FF80413F
:1042A00000BD012040054A00121804D85A00121817
:1042B00001D800207047012070470020704700009F
:1042C0000021002805D17047C1174840401AFAD094
:1042D000C90713B5064B1B6898470CBC441CA24089
:1042E0001005120B0349091B09051943114310BDA1
:1042F000E44D00201F04000010B54C00620D802327
:10430000D218DB00D21A5B057E2A10DD9E3A13DA42
:10431000CC170903490819435242D14064000134C3
:104320001532202A05DAD0400843604310BD002032
:1043300010BD0846604310BDC80FC018013810BD3D
:1043400018B4044B5B6AFC46019308BD24DF954812
:104350000010000010100020132370B51D78012DEF
:1043600015D010DD1D48FEF72BF81D4C01008022F2
:10437000200000F05DFB022D2DD01A48FEF718F842
:10438000194B186070BD194B154CA364F5E7174B1A
:10439000134C23606360A360E36023616361A361E6
:1043A000E36123626362A362E36223636363A363E3
:1043B000E36323646364A364E36423656365A365C3
:1043C000E36523666366A366E36623676367A367A3
:1043D000E367A364D1E7054BA364CEE75344000031
:1043E000101000204C330000E44D0020F143001079
:1043F00007B5604601880A0A0230DF2AFAD1C9B23D
:10440000820804D3028840880004104300E000685A
:10441000014A5050039007BD101000200FB403BC98
:104420000CBCF0B50124E407634000E0F0B50C0DCE
:10443000CF0F661E3605891B640503D3C94340426E
:1044400000D30131640D03D0661CF60A07D0E41BCB
:1044500000207F00791C89078912803C24031D0DF0
:10446000DF0F6E1E36059B1B6D0503D3DB435242E7
:1044700000D301336D0D03D06E1CF60A07D0ED1B7F
:1044800000227F007B1C9B079B12803D2D032F1B6E
:10449000661B58D4A446202E46DA20371400BC40B0
:1044A0001D00BD40F24033412A4380185941CB0FD3
:1044B00005D0C943C0430022644250415141624685
:1044C0004D0D28D10D0D07D100281FD024194041D2
:1044D0004941013A0D0DF9D0640006D3013000D3F3
:1044E0000131002C01D140084000013A0BD4941C4A
:1044F000E40A04D112051144DB071944F0BDD907C1
:10450000204B194300E0D9070020F0BD0029DDD180
:10451000002CDBD1F0BD0132C6074008CD0728438F
:104520004908002EE1D0D9E73C2E29DA203E403759
:104530001400BC4000D00124F24014431A00BB40D8
:104540001C43D317ACE7AC46202F08DA2036040012
:10455000B4400D00B540F84039412843A5E73C2F51
:104560000CDA203F40360400B44000D00124F8406B
:1045700004430800B1400C43C117EAE710001900DA
:10458000002494E70000F07FF0B50C0D661E3605A0
:10459000891BE60A6405640D02D0651CED0A04D08F
:1045A000002001210905803C2403A4461C0D671E40
:1045B0003F05DB1BE70A6405640D02D0651CED0AAC
:1045C00004D0002201231B05803C2403774064446F
:1045D00097B484B296B27443070C7E43150C6F43B4
:1045E00080B26843361802D3012000043F1830041B
:1045F000350C00197D41844688B29AB250430C0CA8
:1046000062431F0C7C438EB27E43921902D3012673
:104610003604A4191604170C3618674101BC81B280
:104620009AB25143040C62431B0C5C4380B2584362
:10463000121802D30120000424181004130C40188F
:1046400063412D185E410020474106BC88B293B2F9
:1046500058430C0C6343120C544389B251435B180A
:1046600002D301210904641819041A0C09186241C3
:104670006D1856410020474118BCF902720D1143D4
:10468000F0026A0D1043ED020A0D03D16D1940418D
:104690004941013B124E9B1B7600B3420ED26D0086
:1046A00007D30130002671416646354301D14008E9
:1046B00040001B05C918E4072144F0BD0BDA0133A3
:1046C00006D1013004D101314F0D01D04908F2E784
:1046D000E1070020F0BD013631050020EBE70000C6
:1046E000FF030000F0B51C0D671E3F05DB1BE70A4A
:1046F0006405640D02D0661CF60A04D00022012372
:104700001B05803C2403D0252D060026F6432E668B
:104710001E096E66CE0FF619B44649004F0D02D041
:104720007E1CF60A03D000200021403F3F033E1BC1
:10473000B600B444013F7F05C91B49082E6F0136FE
:1047400076089C02950D25437543ED137543AD1313
:1047500001356D10F603761B0CB4CC02450D2C43CD
:10476000A2B2B3B25A43270C7B43350C6F43A4B2B9
:104770006C431B1902D3012424043F191C041D0C93
:10478000A4187D4124196D41009A91B2ACB26143E5
:10479000170C7C432B0C5F4392B25A43A41802D3EC
:1047A00001221204BF182204230C52187B41019CE1
:1047B0006C431B19520ED9010A434401A01A81B25D
:1047C000B2B2514303145A43360C734387B2774352
:1047D000D617D21900277E4136049B191704160CF0
:1047E0007F185E417316ED18F30100268033754182
:1047F000A90F06D16400690AE8055B0A184309D2CB
:104800002FE00422944480337541A90AA8059B0A2D
:10481000184326D3404149412404009A019B0D00CE
:104820005543641B4343E41A95B286B27543170C93
:104830007E43030C5F4392B25A43B61802D301225F
:104840001204BF183204330C52197B4152429C416E
:10485000002C02D40022013051414008CA07104305
:10486000490802B06246D7079210084BD218084B8D
:104870009A4203D212058918C919F0BD0020002AF6
:1048800001DC3900F0BD01331905F5E7FD03000037
:10489000FE070000002200B5203200F004F80800F6
:1048A00000BD000000220B150AD410B5944600F09C
:1048B00031F81414013400DA0021CB17144C2047CE
:1048C0000020002170476244343A0CD40C2A07DAE5
:1048D00004009140904052422032D440214310BD08
:1048E000D843D94310BD203207D40C4694405242DD
:1048F00020321141D040204310BD0800C91720329A
:1049000003D452422032104110BD1800190010BDCE
:10491000C74800100A0DCC0F531E1B05C91A5205BB
:1049200003D3C943404200D30131520D03D0531C7D
:10493000DB0A07D0121B00206400611C8907891262
:10494000803A1203014BD21A70470000FF030000A7
:1049500051434343C9188C46110C83B24B4310B4E6
:10496000040C614392B280B2504362431C041B0C9E
:10497000001910BC59411304120CC0185141614474
:1049800070470000132310B512481C78FDF718FD7E
:104990000100012C0AD003DD80220F4800F048F806
:1049A0000E48FDF705FD0E4B186010BD0A4C542251
:1049B000200000F03DF80B4B6365A365E3652366BB
:1049C0006366A366E36623676367A367E36723629F
:1049D000E361E5E753460000101100204C3300006E
:1049E000E44D0020E949001007B5604601880A0A35
:1049F0000230DF2AFAD1C9B2820804D30288408883
:104A00000004104300E00068014A5050039007BDC5
:104A10001011002001480421014B1847700E00209E
:104A2000D1230010014B1B6818470000700E0020B6
:104A3000014B5B6818470000700E0020F0B5C646B9
:104A400000B5437D07000D001600002B38D0002A6A
:104A50002EDD00216A1E90466A5C037D4C1C0020FE
:104A60000A2A0CD0A64216D043461B5D21000D3BFE
:104A70005A4253416A5CDBB24C1C0A2AF2D1002B29
:104A8000F0D1884217DB022110483B689847A642C4
:104A900007D02000E8E7864203DD311A3B6828187A
:104AA0009847AD19013D2B780D3B5A4253413B7558
:104AB00080BCB846F0BD091A3B6828189847E2E761
:104AC0000368110028009847F2E7C0460467001009
:104AD000F0B5CE46474680B583B06B460600DD1D77
:104AE0002870FCF79FFA00231A4A12184B418021C4
:104AF00009068B4202D30122174B52421749080084
:104B0000884601F0B5FB164B81461C68002C14D07A
:104B1000144F02E02469002C0FD02368002BF9D039
:104B20003B68002B01D0A342F4D1200001222900D0
:104B3000FFF784FF2469002CEFD14B46002B05D1F1
:104B4000300003B0C0BCB946B046F0BD404601F0ED
:104B500057FBF5E740420F00FFFFFF7FC80E002024
:104B60002C49002034490020F0B5DE4657464E4619
:104B70004546E0B585B0070001F008FB0600FCF7EC
:104B800051FA00232B4A12184B41802109068B420F
:104B900002D30122284B5242284908008B4601F0DB
:104BA00067FB274B01901C689A46002C3BD0254B95
:104BB000984602ABDD1D0A23994602E02469002CC9
:104BC00017D02368002BF9D043461B68002B01D077
:104BD0009C42F3D1200032003900FFF72FFF4B46F3
:104BE0002000012229002B70FFF728FF2469002CE8
:104BF000E7D1019B002B18D153461C68002C06D02E
:104C00006368002B0BD098472469002CF8D1300042
:104C100005B0F0BCBB46B246A946A046F0BD24692B
:104C2000002CEDD1F3E70028F1D0584601F0E8FA66
:104C3000E2E7C04640420F00FFFFFF7FC80E0020A2
:104C40002C490020344900200A4A1368002B05D162
:104C50000CE01A001B691032002B07D09842F8D1E3
:104C6000002902D103691360016170470029FCD05B
:104C70001060FAE72C490020F0B5002915DD0E4B35
:104C80000D271A680D4B0E4CD3185D426B41451829
:104C900020215B001E5F0478A64207D09369194269
:104CA000FCD101301460A842F5D1F0BD93691942DE
:104CB000FCD11760F2E7C046044E00200080FCBF24
:104CC000FC4D0020214B70B504000D1E1E682CDD2C
:104CD000002010211E4B013C1A689369194215D11E
:104CE000013093691942FCD1136823548542F4D1F1
:104CF000002E09D0502338219363536B343219406E
:104D000080235B011343196028000DE0002E09D0B9
:104D1000502338219363536B3432194080235B0155
:104D20001A43116000280ED070BD002E0BD0502207
:104D30003821074B1B689A635A6B34331140802229
:104D400052011343196003204042EDE7E048002080
:104D5000044E0020064B10B51B68002B06D0002126
:104D6000044A12689163044A1068984710BDC0460F
:104D7000E0480020044E0020E44800201D4BF0B520
:104D80001A68C64698461C4B0E00D31859424B4130
:104D90001A4F14331C00050000B53B68002807D0EB
:104DA000002B11D0164B3D601E6080BCB846F0BD94
:104DB000002BF7D0906300212000FCF7E1FA2000DF
:104DC0001049FCF727FCEDE720000E49FCF7FEFA3E
:104DD00001212000FCF7D4FA4346502238211B68F9
:104DE0009A635A6B34331140802252011343196085
:104DF000D8E7C046044E00200080FCBFE0480020F9
:104E0000E4480020554D001070B50C4E0D001C00FC
:104E10003060002A03DB02211000FDF73DF9002C71
:104E200003DB02212000FDF737F929003068FDF788
:104E3000DBF901210248FFF707FF70BD044E002097
:104E4000800E002010B50248FDF794FA10BDC04650
:104E5000DC4D002010B501210520FCF791FA10BDB2
:104E60008022024B5202DA647047C0460020115083
:104E7000F0B5C64600B5060000F0DCF80C231B4D6B
:104E8000FF22AB6705201A49FCF7CAFA402398466F
:104E9000184C402200212000FFF7C4FD43460127A3
:104EA000238321210023144A6770A2601360635496
:104EB0005F31618441462187053963540F4A1049A7
:104EC0006360E260A1620B606362E26201F0A8F9D4
:104ED00080239B052F64EB6490230A4A3000EA503C
:104EE000FFF7BEFF80BCB846F0BDC04600001150C1
:104EF0006104002038490020840010500001105047
:104F00008000105010D00100F0B5C64600B5CC7836
:104F100088780A794B797F21A40701401B02C509D3
:104F200013434F00A20F1400324E7A195201B218E7
:104F3000907001206840507000205B055B0DD070C0
:104F40001383D4768046CA00012D33D02A48844684
:104F5000880162448446B4446046826040461060E2
:104F6000002933D0254AC900904662464144516029
:104F70003F223F339343022C00D15B0020487A1933
:104F800001685201B218D1601E4ACB18036051402B
:104F90005A40802388465B019A4228D84346A4069B
:104FA0001C4380237F197F01F61972681B06234377
:104FB000136011E014488446880162448446B44476
:104FC0006046826240461060002909D100236D01CD
:104FD00075196B600D4BEB60012080BCB846F0BDCD
:104FE000084AC9009046624641445162C0E7FDF755
:104FF000B9FAD3E73849002084001050040010505B
:10500000404D002000001050800010500001105052
:1050100010B57F200C0020404000E4091100001969
:105020001A00034B4001C01800F02AF8012010BDFF
:105030003849002080220D4B520410B51A600C4BE9
:105040000C491A6010008B689843FBD10A4C9C22D3
:1050500000212000FFF7E6FC8022002152010748D2
:10506000FFF7E0FC0923636710BDC04600E0004085
:1050700000F0004000C0004000001150000010503F
:10508000002310B5C382013382828376016104005C
:1050900001F0D6F8002804D080219023074A890225
:1050A000D150200001F0DCF8002802D00123237742
:1050B00010BD200001F0E4F8FAE7C04600201150CE
:1050C000024B5878431E9841C0B270477845002083
:1050D000024B18784007C00F7047C0467845002043
:1050E000F0B5C64600B52C4E05003378FF2B01D035
:1050F00001202AE0532200212848FFF793FC284C86
:105100002000FCF7DDFB274B1C60274C2000143CE3
:10511000FCF7F2FB200000F067FF244B244F1C60DB
:10512000244B9846002F2AD0180000E000BF224BE5
:10513000186043461B780024002F22D0A34222D8B7
:10514000E31ADBB2012B03D9002080BCB846F0BDC6
:1051500018225B421340194A9B181B689847434624
:105160001B780134E4B25A1CA242E5DA28003570FB
:10517000FFF77EFE2800FFF76DFE0120E5E71B78B4
:10518000D9E72300DEE70C4B62001B681219D2003E
:105190009B18002BE1D1D7E7BC0E002078450020FA
:1051A00030450020CC450020B40E0020D045002022
:1051B000000000002A4E0020901400200867001014
:1051C000F8B557464E46DE4645460C00E0B516009B
:1051D0001F00002A3CD01F4B00259A467023994699
:1051E0001D4B9B4617E05B462000997800F0D0FCF1
:1051F00000281FD021004046FFF786FE002819D066
:10520000A378DA09012A1CD00A9A01351370237891
:10521000E418B5421CDA6378052B0BD1E3789B07C1
:105220009B0FBB4206D153464A461B789846A3784B
:105230001A42D8D00020F0BCBB46B246A946A046D0
:10524000F8BD0B9A013513702378E418B542E2DB00
:105250000120F0E7BC0E002078450020702270B5D8
:10526000094B0C001D788B781A4201D0002070BDCC
:10527000064B2000997800F08BFC0028F6D0210026
:105280002800FFF741FEF2E7BC0E00207845002021
:105290000B007F2010B51840DB0933334000044A6F
:1052A000C018044B1168C01800F02EFC10BDC04699
:1052B000CC450020784500200B007F2010B5184019
:1052C000DB0933334000044AC018044B1168C0188E
:1052D00000F042FC10BDC046CC45002078450020BF
:1052E00070B57F240F480C4064000419CD0964197F
:1052F0003034E078C00701D5002070BD0126E57884
:10530000094835430078E570FFF782FE0028F4D1A4
:105310000122E3789343E370E37803329343E3702D
:10532000EAE7C04678450020BC0E00207F22054BEE
:105330000A405200C9099B185B183033D878C0075F
:10534000C00F70477845002070B5094C0600082250
:1053500020000D00FFF76CFB00238021E360A360B9
:105360002B783000994300220023FFF7B9FF70BD6E
:105370001C450020F8B5CE4647469046264E80B5DF
:105380008146082230000D001F00FFF751FB434605
:10539000B3600023F381EC79AB7924021C43231C16
:1053A000BC4200D93B1C9FB2B381002C0ED0002F11
:1053B00018D04346002B2CD03B1C402F1BD89FB24B
:1053C00033787F2B1CD80021144A0FE080212B78E2
:1053D0000022994348460023FFF782FFC0BCB9462C
:1053E000B046F8BD7F230022317899433B00484600
:1053F000FFF776FFF2E740239FB233787F2BE2D9A5
:10540000064C3A0041462000FFF712FB80212200A3
:10541000ECE70020E2E7C0461C45002038450020AC
:10542000F8B50400FFF74CFE002801D10020F8BDBC
:10543000FFF74EFE0028F9D1154B164E5C432500B0
:105440002435AD19280000F017FC0028EED03719DC
:105450000020B978FFF71CFF0028E7D00E4B802210
:105460009C466444A41921002800520100F038FC35
:10547000B978051E08D0030022000020FFF730FF96
:105480000028D3D02800D2E70020FFF715FFCDE792
:1054900088300000941400208820000070B51A4C59
:1054A00082B000212000194AFFF7BCFAFF23637184
:1054B000174B0025E38001260823210020002681C8
:1054C0002373402238310095073B103000F09EFBDB
:1054D00021002000802278315201009601232430DF
:1054E00000F094FB0B4BE6183000FCF7E9F984233D
:1054F0005B012662E6183000E561FCF7E1F92663FE
:10550000656302B070BDC04694140020883000006E
:1055100000C2FFFF7810000010B5094C05220021E1
:105520002000FFF77FFA20002434103000F05CFDEB
:10553000200000F059FD0121200000F075FD10BD94
:1055400094140020F0B54B79060083B0022B02D1F1
:105550008B79022B03D00025280003B0F0BD2F4F1C
:10556000BB78002BF7D18B7809253B700C780C1990
:105570006378242B0BD1082A02D81FE0AA421DD33E
:105580002378E4185D196378ADB2242BF6D0052B8F
:1055900031D0042B12D163790A2B0FD1204B2778FD
:1055A000019301330093022202233000E119FFF737
:1055B00007FE0028CFD00E35ED19ADB2194C80266C
:1055C000200000F077FB7601B042C5D32700103FE2
:1055D0000020F978FFF75CFE0028BDD0200000F025
:1055E00069FBB04215D3104BF978E2180020330064
:1055F000FFF776FEB0E721003000FFF72FFE00280E
:10560000A9D0A3787B7023785D19E4186378ADB2D4
:10561000BFE7F9780020FFF74FFE9DE794140020C4
:1056200096140020A414002078100000F8B5602320
:1056300014001278050013400020202B12D12F4AAD
:105640006379277916781B023B439E420AD163781F
:10565000222B1AD007D8202B3CD0212B02D1012994
:1056600030D00120F8BD232BFCD101293FD00329E4
:10567000F7D1234B002BF4D0E178A3780902002066
:10568000194300E000BF0120ECE701292FD00329D6
:10569000E7D101252E00A378E478023924021C43C7
:1056A0001471264024321000714000F0BDFC154BEF
:1056B000002BD6D06208002031002A40FAF7C6FF3E
:1056C0000120CFE70723210028000F4AFFF752FEF1
:1056D0000120C7E70129F5D00329C2D10B4B002BCC
:1056E000BFD00020911D00E000BF0120BAE72100DB
:1056F0002800FFF729FE0120B4E7C04694140020DB
:10570000000000004D0600109A1400200000000068
:10571000F8B545465746DE464E46E0B5484D1F00B3
:10572000EA7880460C00AB788A424AD000208B424F
:105730001ED0F0BCBB46B246A946A046F8BD414BC0
:10574000002B04D0484600F0ADFA00286FD0484640
:10575000802600F0AFFA7601B04209D310235B42F5
:105760004B440020D9789A46FFF792FD002850D18B
:10577000AB78A34201D00120DBE7334B002B02D0F2
:10578000002000E000BF0020FFF74AFE0028F2D111
:105790002E4C200000F070FA0028ECD1002FEAD047
:1057A000BF06E8D1243C4046A178FFF771FD0028F0
:1057B000E1D0002300224046A178FFF791FD0120AF
:1057C000B7E7234BBAB2EE1810239B46AB44310027
:1057D000584600F04DFB1F4BD946002BAFD06B79DC
:1057E000FF2BACD0002FAAD0F219924603E001366D
:1057F000B245A4D06B7932789A42F8D1484600F08D
:1058000051FA0028F3D14B46103B597900E000BF14
:10581000EDE7484600F04EFAB0420BD353460E4A2D
:10582000D9784A4433000020FFF75AFDA0E700E092
:1058300000BF8CE753460020D978FFF73DFD97E77E
:10584000941400200000000000000000B8140020A4
:10585000881000000000000078100000F0B58400FF
:1058600024182401241AA4002600C646144F183612
:10587000F61900B5300092B200F0FAFA05003000D7
:1058800000F0FAF93F2803D8280080BCB846F0BDE4
:105890003B19002059789846FFF748FD0028F3D1BE
:1058A000FC34E41940222100300000F019FA031EF4
:1058B000EAD04246002051782200FFF711FDE3E7CD
:1058C00094460020F8B5840024182401241A104DB1
:1058D000A4002E1900207178FFF728FD002801D0C0
:1058E0000020F8BD2700FC3718347F1960194022CA
:1058F000390000F0F5F9041EF2D003003A00002050
:105900007178FFF7EDFC0028EAD02000E9E7C046F7
:10591000944600209E2270B5144C82B000212000D5
:105920005200FFF77FF800252100012340222C318F
:10593000201D009500F06AF92600210020000123B7
:1059400040226C31AC360095183000F05FF9300021
:10595000FBF7B6FF66612600B43630002561FBF721
:10596000AFFF6662A56202B070BDC04694460020DB
:1059700010B5054C0023200008C000F035FB2000C6
:10598000183000F031FB10BD94460020F0B5CE4633
:10599000474680B54B7906000D0083B0FF2B07D139
:1059A0002D4F0C787B78B978002B01D1002905D0D8
:1059B000002003B0C0BCB946B046F0BDAB782C198E
:1059C0003B702879002826D06378052B08D0A218D0
:1059D00004E0217864186178052901D09442F8D355
:1059E0001E4B0200984601930133009321000223CD
:1059F0003000FFF7E5FB0028DAD02B7999464346C3
:105A0000597800290AD17978002910D14B464A46A5
:105A1000DB009B1AE418601B80B2CAE742464023B1
:105A20003000BB32FFF75CFC0028ECD1C0E700205F
:105A3000FFF77CFC0028E9D13E003800FC3640220C
:105A40003100183000F04CF9031EDFD032007978B5
:105A50000020FFF745FCD9E794460020954600203A
:105A600010B5254CA2788A4225D0627800208A425F
:105A70000ED1224A002A05D01B04190C002000E098
:105A800000BF61780020FFF751FC002801D0012001
:105A900010BD1B4C402220002100E43800F020F90A
:105AA000031EF4D02200FC3A517800202200FFF7B8
:105AB00017FC0120ECE721009AB2BC31201D00F058
:105AC000D7F9104B002B02D0002000E000BF0020CF
:105AD000A178FFF72BFC0028D9D1201D00F0EAF8AF
