:020000041000EA
:1000000000B5324B212058609868022188439860DF
:10001000D860186158612E4B002199600221596106
:100020000121F02299502B49196001219960352056
:1000300000F044F80222904214D00621196600F024
:1000400034F8196E01211966002018661A6600F04E
:100050002CF8196E196E196E052000F02FF8012189
:100060000842F9D1002199601B49196000215960AB
:100070001A491B48016001219960EB211966A021F2
:10008000196600F012F800219960164914480160C1
:100090000121996001BC002800D000471248134993
:1000A000086003C880F30888084703B5996A0420EC
:1000B0000142FBD001200142F8D103BD02B5186610
:1000C0001866FFF7F2FF186E186E02BD00000240BE
:1000D000000000180000070000035F00212200005C
:1000E000F4000018222000A00001001008ED00E03C
:1000F00000000000000000000000000074B24E7A12
:1001000000200420F7010010C3010010C5010010F9
:10011000C1010010C1010010C1010010C101001097
:10012000C1010010C1010010C1010010C701001081
:10013000C1010010C1010010C9010010CB01001065
:10014000CD010010CD010010CD010010CD01001037
:10015000CD010010CD010010CD010010CD01001027
:10016000CD010010CD010010CD010010CD01001017
:10017000CD010010CD010010CD010010CD01001007
:10018000CD010010CD010010CD010010CD010010F7
:10019000CD010010CD010010CD010010CD010010E7
:1001A000CD010010CD010010CD010010CD010010D7
:1001B000CD010010CD010010CD010010CD010010C7
:1001C00000BE00BE00BE00BE00BE00BEEFF3058054
:1001D000103800BEF2EB8871EC8B0010108C001010
:1001E0003402001090A31AE700201F49086006C8D7
:1001F00081F3088810471D48006800282FD10DA4FE
:100200000ECC002902D000F012F8F9E71849194A7B
:10021000002000E001C19142FCD1174988471749ED
:1002200088471749884700BEFDE701C901C29A42C5
:10023000FBD37047108C0010C0000020480D002038
:1002400098980010000004200000042098980010E6
:10025000001004200010042000000000704709482E
:1002600002F0E7FA0047000008ED00E0000000D0CF
:10027000480D0020D85300201D2C00103D07001011
:10028000D92B00105756000006005250ABB36053F4
:100290008C88001006005250861C03029C880010B7
:1002A000060052505422A29DAC8800100500525006
:1002B000DE65F46898980010F8B5C04610B5064C95
:1002C0002378002B07D1054B002B02D0044800E017
:1002D00000BF0123237010BD480E00200000000065
:1002E00068750010044B10B5002B03D00349044877
:1002F00000E000BF10BDC046000000004C0E002012
:100300006875001010B5192002F0E6F8D024240614
:1003100080239B0463626361182002F0DDF8802370
:100320005B046362A361012002F0D6F80223A3629A
:1003300010BD000010B5E1214902064802F016FA8E
:100340000221102002F0B0F80221112002F0ACF8D6
:1003500010BDC0460040034010B5012002F02AFC49
:100360001E4B18601E4B0C2832D81E4A1340C00288
:1003700003430C218B43082003431B4A13401B4AB1
:1003800013401B4A1340073803431A480340022214
:100390009343194A13608B43136010200343136087
:1003A00014318B43136015490B40A02109030B4303
:1003B00013600A4B1B689B01A021C9058C4663444E
:1003C000002119600E485860996012681A6110BDCA
:1003D0000C4B0D4AC3210D4802F002FC704C00206A
:1003E00010801F00FF87FFFF3FF8FFFFFFFFBFFFE9
:1003F000FFFFDFFFFFFF7FFFC8530020FF7FE0FF0D
:100400000040034068750010F875001088750010F2
:10041000F0B5CE46474680B591B004008946904677
:10042000504E5149306802F0E5FA0500012130686C
:1004300002F0C2FA706032684C4B9A4200D18AE0F6
:100440000721200002F030F8464B1A68474B9A42C9
:1004500000D182E00721484602F026F8414F796832
:100460003868002600960123220002F0DFFA79683E
:100470003868009601234A4602F0D8FA102200217B
:1004800008A804F093FC80235B020893F8235B0226
:1004900009938023DB020A93C0231B030A931022D3
:1004A00008A904A804F088FCEA1C059B0393304BC0
:1004B00003990B40E9010B431203134305931022E8
:1004C00004A90CA804F078FC0F9B0393294B039A12
:1004D0001340E4031C430F940E9B03939B009B0863
:1004E0008022120613430E93404604F08FFB061C35
:1004F00004F0B4FB84B2002C31D0200004F086FB61
:10050000011C301C04F059FB8721C90504F075FB60
:1005100004F0A4FBC3B21B0224041C430C940E9BE6
:100520000393154A1A4081231B0413430E930D4C69
:100530000CAB2A006168206802F0CAFA2168606882
:100540000A68012383409A4313430B6011B0C0BC77
:10055000B946B046F0BD062173E706217BE70023CC
:10056000D9E7C046100C002014760010000020507F
:100570007F00FEFFFF7FF0FFFFFF0AFE10B50120A6
:1005800002F018FB274B1860274B0C283BD8274A52
:100590001340C00203430C22934308200343244A20
:1005A0001340244A1340244A134001221343234A90
:1005B000134002229343224A1068526804322149B0
:1005C000884226D0082152183F2A24D81E491940B3
:1005D000D3030B431022934310321343143A934333
:1005E000104A12681649086849680831890041189C
:1005F0009201A020C0058446624411600021516030
:100600009160136110BD114B114AC321114802F0D2
:10061000E7FA0021D7E7104B104AB5210D4802F048
:10062000DFFAC0468850002010801F00FF87FFFFC0
:100630003FF8FFFFFFFFBFFFFFFFDFFFFFFF7FFF71
:10064000100C002000002050FF7FE0FF68750010B4
:10065000F875001088750010CC750010E07500105A
:10066000002302E0024AD3540133FF2BFADD704726
:10067000304B002010B500F0E1FE00291DDB22D038
:10068000FA229200002303F07DFC144B1B68C01A71
:10069000134A126890420FD39B18104A1360114BF3
:1006A0001B78002B14D0D0221206802189045161BE
:1006B000012253400B4A137010BD0B4B0B4A3F21D4
:1006C0000B4802F08DFAFA21890003F01DFCDCE7EB
:1006D000D0221206802189049161E9E78050002030
:1006E000200C0020D453002024760010A0760010A7
:1006F000407600100FB410B582B004AB04CB019368
:1007000080210C4C0901200003F0B0FB00212200E5
:1007100008E0094B9B699B06FBD41478064B1C60D0
:10072000013101328842F4D802B010BC08BC04B0D8
:100730001847C046640E00200040034010B506F084
:1007400063FE00F0C1F8FFF7DDFDFFF7F3FD0020C9
:1007500005F0FEF8FFF784FF012202210020FFF7D9
:1007600057FEFFF70BFFFFF7F7FD0AE00C4B195D93
:100770000C48FFF7BFFF0134FF2CF7DD0A48FFF7F5
:10078000B9FF01200021404205F01AFCFFF772FF7B
:10079000802252000249054806F096FE0024EBE74D
:1007A000A45000207C7600109C760010100C0020D5
:1007B000F0B583B005001400012951D113785B0610
:1007C0009B0F012B26D0022B4DD15378012B03D048
:1007D000022B07D0002044E03223244A210005F0F8
:1007E00013FD3EE0117953791B020B43072B01D017
:1007F000002036E06B469F1D1D4E0222310038005E
:1008000004F0DAFA3B883200083A2100280005F0AB
:10081000FBFC26E05378222B01D0002021E09178C8
:10082000D3781B020B435A1E9341DBB2114A13705B
:100830001378002B08D1104BFA2292001A60210085
:10084000280005F0C5FC0CE00B4B00221A601E329C
:100850000A49002006F06EF8002006F089F8EEE75D
:10086000012003B0F0BD0020FBE7C046B8760010C1
:10087000E8770010D7530020200C0020807600106D
:10088000034BFA2292001A60024B01221A70704741
:10089000240C0020D6530020034BFA221A60034B8D
:1008A00000221A707047C046240C0020D653002046
:1008B000002904D0002A02D0014B024A1A60704776
:1008C000240C0020C409000010B582B0114B009325
:1008D00001220121052001F0DDFC0F4C200001F078
:1008E00097FE0223009304330C4A0121200001F0FB
:1008F000FFFD0B4C0094230000220121052001F094
:10090000C9FC0094230000220021062001F0C2FC53
:1009100002B010BD006CDC02008002400007215FC5
:10092000406BED0700487047CC77001000487047D7
:1009300068770010004870472C77001070B50028C9
:100940000DD0052824D88000124BC558280006F089
:1009500073FDC0B21F2800D91F2000230EE00D4BED
:1009600019680D480222023004F026FA012007E03F
:100970005A1CEC5C5100084BCC52D3B29842F7D8C9
:1009800001304000C0239B0003430348038070BD37
:100990000020FCE7280C00200447002070B505006B
:1009A0000C00080000F04AFE0949200000F08AFD12
:1009B00000F0D6FE074B9C466044800068602C75B2
:1009C000D0231B061B786B75A400034BE55070BD4C
:1009D000E10C0010400000348C5000200A4B1A68D3
:1009E000EFF3108172B61368002BFCD0BFF35F8F5A
:1009F000054B1B68BFF35F8F00221A6081F31088DC
:100A000040BF002000217047A853002010B50029E6
:100A100022D003681B7B99421ED8174B9C46614429
:100A2000090183689C4661440C684968002A19D012
:100A300003681B7B9A4215D883680F48844662443A
:100A400012019A1810685368020001208B4201D8E5
:100A50000ED00020C0B210BD084B094A3C21094805
:100A600002F0BEF8054B064A3C21064802F0B8F8F1
:100A7000A242EFD8EDE7C046FFFFFF0FD878001085
:100A8000E07A0010A878001010B500291ED0037B72
:100A900099421BD84B005B18033B0468A44663448F
:100AA000002919D0002A1DD0914221D0002A25D03A
:100AB000047BA24222D80468500080180338201812
:100AC0008170197800291FD11A7010BD104B114A7E
:100AD0006821114802F084F8104B114A6F310E481A
:100AE00002F07EF80F4B0E4A70210B4802F078F8A6
:100AF0000D4B0B4A7121084802F072F8044B054A6D
:100B00006821054802F06CF841701A70DDE7C046B4
:100B1000FC7800104C7B00101879001058790010F8
:100B2000287B0010647900107079001070B5060001
:100B30000D001400002914D0002A14D080687368B6
:100B40009847002806D0220029003000FFF79CFFBC
:100B5000280007E02A0021003000FFF795FF200061
:100B600000E0100070BD0800FCE70000F0B583B0A5
:100B70000500009201930AAB1C780BAB1F78002C88
:100B800026D003685A7B944207D10123002B19D148
:100B9000002C3BD1200003B0F0BD002C0CD01A7B00
:100BA000944209D81A6863001B19033BD3189B7839
:100BB000002BEBD00123E9E73E4B3F4A68213F4839
:100BC00002F00EF83E4B3F4A67213F4802F008F81A
:100BD00003689C7B002CDBD012D01A7B94420FD888
:100BE00062001219033A19688C466244517899736D
:100BF000002900D1D9730023937053701370C7E795
:100C00002C4B2D4A68212D4801F0EAFF002C3AD0E8
:100C10002B681B7B9C4236D82C4BE3181B01AA681F
:100C200094466344009A1A60019A5A60089A9A603E
:100C3000099ADA602E68002C2BD030D0337B9C428E
:100C40002DD863001B19033B32689446634400228D
:100C50009A705A701A70717B22003000FFF766FF9D
:100C60007073844200D095E7287D009A019B00F0C4
:100C700071FC061E01D0002F17D00C9B002B00D159
:100C800088E71E7086E7124B124A3C210E4801F09D
:100C9000A7FF114B114AA521084801F0A1FF054B00
:100CA000054A6821054801F09BFF2868210001F0F2
:100CB00075FAE2E7FC7800104C7B00101879001000
:100CC00088790010587B0010A8780010FFFFFF0FF4
:100CD000D8780010E07A0010A47800103C7B001057
:100CE000F0B5DE4657464E464546E0B58BB0099016
:100CF000002308938200B54BD658370052E0B44B1E
:100D0000B44A3F21B44801F06BFFB44BB44A3C21D4
:100D1000B44801F065FF002901D1002869D1002104
:100D2000404601F031FAA04219D12A686B68069258
:100D30000793AB689846EB689A464346002B14D05D
:100D4000002C18D03B681B7B9C4214D8631EFA68A9
:100D5000D35C08931B0218433861002015E0A24BB6
:100D6000A24A8E219F4801F03BFFA14B9F4A92214E
:100D70009C4801F035FF994B9E4A4121994801F06A
:100D80002FFF00239A46984600207B68BFF35F8FB1
:100D900000221A6086F310884346002B32D10028C7
:100DA00000D10CE100F04AFB02000B1EA7DB002083
:100DB0000021069007917868EFF3108672B60168FB
:100DC0000029FCD0BFF35F8F396888464C7B002C2C
:100DD000D7D09AD0097B8C4297D8874965182D01C6
:100DE000B9688C46654428686968801A9941002969
:100DF00091DD2A686B68099800F0ACFB00239A46E5
:100E00009846C2E7089B1B022343994651461800A7
:100E1000C04705000E007A68EFF3108B72B61368B6
:100E200059424B41D9B2002BF9D1BFF35F8F002E4D
:100E30001EDB002E46DD3B69002B47D04B456DD1B4
:100E400000F0FCFA02000B1E6EDB52197341002BFE
:100E500070DB002B72DB00210491013103910294BD
:100E600051460191414600913800FFF77FFE4CE06A
:100E70003B69002BDDD04B4514D1069A079B521BD2
:100E8000B341002B14DB002B16DB00210491013150
:100E90000391029451460191414600913800FFF7B9
:100EA00065FE32E0554B514AA1214E4801F098FEB3
:100EB00001225242524BE6E7454B464A3F21464803
:100EC00001F08EFE002E01D1002DB4D13B68002C24
:100ED00050D05A7B944237D1012100294AD1DA7B84
:100EE000002A4DD19A7B002A03D1DA7B002A5AD1FD
:100EF0009C73DC73002C5CD03B681B7B9C4258D8F5
:100F0000FA68013C135D0133135500233B617A6895
:100F1000BFF35F8F13608BF3108843E7374B334A7F
:100F2000A421304801F05CFE294B2A4A3F212A487F
:100F300001F056FE01225242314B8AE7244B254AEA
:100F40003F21254801F04CFE002C0DD01A7B944225
:100F50000AD862001219033A1868844662449278EB
:100F6000002ABAD00121B8E7264B274A6821274832
:100F700001F036FE264B274AF621244801F030FEC8
:100F8000002A0AD0197B8A4207D851008A18033AEE
:100F900019688C4662445470A4E71A4B1A4A6821B7
:100FA0001A4801F01DFE1C4B1A4AFB21174801F09C
:100FB00017FE0A4B0F4A41210A4801F011FE0BB0FF
:100FC000F0BCBB46B246A946A046F0BD8C500020FE
:100FD00024760010AC7A001040760010D87800100B
:100FE000E07A0010A8780010B0790010C47A0010E0
:100FF000C8790010047B0010FFFFFF0FD4790010A8
:10100000FFFFFF7FFC7800104C7B00101879001068
:10101000107A0010187B0010347A001010B50C4BB9
:101020005B68002B04D00A210A4800F0DBFE10BDEB
:10103000074C2300084A1021206800F0B5FF032068
:1010400000F0F0F903212000FFF7A8FCEBE7C04611
:10105000400C0020A85300200D0A001010B5064BCC
:101060005B68002B01D0044810BD044B044A5E218C
:10107000044801F0B5FDC046400C0020487A00103D
:10108000EC7A0010A8780010F0B5DE4657464E46C0
:101090004546E0B58BB0804616001F00149B9A466B
:1010A000159B994616AB1B789B461F2302AA9446B4
:1010B000634400221A702BE0002809D042461268CF
:1010C000127B904204D8421E4146C9688A5C41E0C6
:1010D000404B414A4121414801F082FD07984CE0D4
:1010E000361BAF41002F07DB002F11DA3C4B3D4A86
:1010F0003F213D4801F074FD012676423B4FF3E766
:10110000374B384A3F21384801F06AFD002F4FDB4A
:1011100043465A68EFF3108472B6136859424B4144
:10112000D9B20791002BF8D1BFF35F8F1F3302AA0A
:101130009446634404930023039302934B46019324
:101140005346009332003B004046FFF70FFD031E5D
:10115000B2D1020041464968BFF35F8F00250D60A0
:1011600084F31088002B29D01F2302A98C466344E6
:101170001B78002BB2D112021043002B20D05B460B
:10118000002B1DD04946D04704000D0003000B433F
:101190001DD00029A4DB00F051F906000F1EAFDBC3
:1011A00036196F41002FB1DA012676420F4FADE7B5
:1011B0000B4B0C4A3F210C4801F012FD012040422C
:1011C0000BB0F0BCBB46B246A946A046F0BD07989E
:1011D000F6E7C046D8780010047B0010A87800100D
:1011E00024760010AC7A001040760010FFFFFF7FDD
:1011F000F8B50400002900D162E04268EFF31085E1
:1012000072B6136858424341D8B2002BF9D1BFF3EC
:101210005F8FCBB22268567BB3421BD101200028DE
:1012200048D0206988422BD0090AC9B2002B2ED0A1
:101230002068007B83422AD8581EE668305C8842CA
:101240002BD000206368BFF35F8F00221A6085F304
:101250001088F8BD002B0DD0167BB3420AD85E0073
:10126000F618033E1768BC466644B678002ED6D002
:101270000120D4E7134B144A6821144801F0B0FC54
:101280002C21134B134AFF31134801F0A9FC134BD7
:10129000134A4121104801F0A3FC1900100000F08E
:1012A0007DFF0028CED199210E4B0A4A49000A48F9
:1012B00001F096FC23698B42C4D100232361C1E76E
:1012C0000020C6E7FC7800104C7B00101879001055
:1012D0006C7A0010947A0010A8780010D87800106A
:1012E000047B0010907A001070B584B005000C00EB
:1012F000EFF30583002B1ED1FFF7B0FE002302930E
:101300000193224B00932A002300FFF7BDFE061E27
:1013100023DD20BFFFF7A2FE3100FFF769FF1C4B62
:101320005B6A9C422DD81A4A926AAA422CD29C42ED
:1013300025D0012026E0164B5B6A994209D8144A51
:10134000926A824207D2994201D001201AE000201D
:1013500018E0002016E0012014E00D4B5B6A9C426F
:1013600009D80B4A926AAA4207D29C4201D00120B6
:1013700008E0002006E0002004E0012002E0002058
:1013800000E0002004B070BD0120FBE7DD09001083
:101390000040054070B5EFF305801038EFF3108C76
:1013A00072B61A4B1B68002BFBD0BFF35F8F012274
:1013B0001300834016494B6316490B6016490978A0
:1013C0000C00C440224214D0114A546A8200134DCA
:1013D0005259944206D38200114C125999430E4B34
:1013E000197007E00A4A031D9B0099589950002282
:1013F00000E00022BFF35F8F044B002119608CF3E3
:101400001088002A00D0904770BDC046280100D047
:10141000004005403C700540D5530020AC530020EF
:10142000EC49002010B50100024A034800F046F9DB
:1014300010BDC046707B0010D1530020044B5B6A86
:10144000034A906A1900536A9942F9D17047C0461D
:1014500000400540084B5B6A01E0074B5B6A8B422A
:10146000FBD301E0044B5B6A8B4203D1024B9B6AC6
:101470008342F7D37047C0460040054070B5040072
:101480000D00FFF7DBFF02000B0020002900801891
:1014900059418B4202D804D1824202D901204042F4
:1014A000C117002902DBFFF7D5FF70BD024B034ACD
:1014B0003F21034801F094FB247600100C7C0010BF
:1014C0004076001070B504000D00EFF3108672B680
:1014D0001B4B1B68002BFBD0BFF35F8F002D1CD074
:1014E000200000F0D7F9174B83420BD019002000E1
:1014F00000F0D8F90121200000F0C4F90123A34035
:10150000114A1360A400114BE550BFF35F8F0C4BE1
:1015100000221A6086F3108870BDA2000B4B0021D8
:10152000D1500122A2400A490B7893430B70054920
:10153000200000F0FBFA0021200000F0A3F9E4E70E
:10154000280100D09513001038600540EC490020B8
:10155000D5530020F0B5DE4600B584B00400150078
:1015600001921E000293FFF769FF03958E4202D895
:101570004ED185424CD9EFF3108B72B6274B1B68C6
:10158000002BFBD0BFF35F8F254A17780125A540BC
:10159000EBB23B431370234B5D63221D9200019914
:1015A000D150A2002049029850501B6A2B4212D100
:1015B0001C4B1B6C2B4208D00020BFF35F8F174BD6
:1015C00000221A608BF3108823E0184B184AC521BB
:1015D000184801F005FBFFF731FF8E4214D802D105
:1015E000039B834210D80E4B1B78BB420ED00D4B91
:1015F0001D625D631F2004400123A3400E4A136057
:10160000074B1F701E38D8E70020D6E70120D4E72B
:10161000012004B080BCBB46F0BDC046280100D00C
:10162000D553002000400540AC530020947B0010AF
:10163000F07B0010B87B001080E200E0EFF3108C2C
:1016400072B60B4B1B68002BFBD0BFF35F8F0123DF
:101650008340084A136208490A789A430A70BFF324
:101660005F8F034B00221A608CF310887047C046CE
:10167000280100D000400540D5530020034B1B68D3
:1016800002201840431E9841C0B2704700C0064077
:10169000EFF3108072B6034B1B68002BFBD0BFF337
:1016A0005F8F70472C0100D0BFF35F8F024B002289
:1016B0001A6080F3108870472C0100D0F8B506003E
:1016C0000C001500FFF7E4FFE308F718F15C0722B0
:1016D0002240012393400B4205D1DBB20B433B7008
:1016E000FFF7E2FFF8BD2100280001F013FBF0B581
:1016F00083B00600019114001F00FFF7C9FF00E04E
:101700000134BC420CD8E308F518F35C07212140F2
:1017100001228A401A42F3D1D2B21A432A7001E060
:1017200001246442FFF7C0FF002C02DB200003B05D
:10173000F0BD019B002BF9D0089801F0EBFA0000F6
:10174000002307E0054A9A189200BFF35F8F00213B
:10175000116001331F2BF5D97047C046400000349B
:10176000054A1078431CDBB21370172B02D9130003
:1017700010221A707047C046680C002000B583B074
:101780000100044B00931F2318220348FFF7AFFF0B
:1017900003B000BD247C0010044B0020074B9B6865
:1017A000103080001950BFF35F8FBFF35F8F044B81
:1017B0000021196082F310887047C04600ED00E0F8
:1017C000240100D010B5091A081F0A4B9C46614439
:1017D000094A914208D8C30706D440104005400D7D
:1017E000064B184380B210BD054B064AA32106489C
:1017F00001F0F6F9FC070000FE0F000000E0FFFF1B
:10180000407C0010887E0010707C001010B5091A12
:1018100004394C08090B08D14905490D064A114302
:101820000180064B2343438010BD054B054AAB2185
:10183000054801F0D5F9C04600F0FFFF00F8FFFFB2
:10184000A47C00105C7E0010707C0010012383409B
:10185000034A10681840431E9841C0B27047C04602
:1018600000E100E0002904D0034B1860034B18602E
:101870007047034B1860FBE780E200E000E100E006
:1018800080E100E010B5012383401800FFF7EAFF74
:1018900010BD0000024B9B6810308000C05870479C
:1018A00000ED00E070B504000D00EFF3108672B695
:1018B0000C4B1B68002BFBD0BFF35F8F2000FFF7A2
:1018C000E9FF094B984201D0A84205D13200290016
:1018D0002000FFF763FF70BD044B054A86210548D1
:1018E00001F07EF9240100D0CD010010B47C00107D
:1018F000BC7E0010707C0010F0B5DE4657464E46A8
:101900004546E0B589B0814601911500EFF3108A94
:1019100072B6744B1B68002BFBD0BFF35F8F724B0A
:101920000027DF57002F40DB7C00E419A4006F483C
:1019300024180622A2566C4B1A706D4B9A684B46BF
:1019400010339B00D35898461E001B1A2F2B38D9F2
:10195000684B98452FD105AE674B33807B009B4683
:10196000D8198000614B9846404402306349FFF724
:1019700029FF7080624BB380FF23B371F571019B27
:1019800007935F44BF0047440ECE0EC701231C439C
:10199000A046524641464846FFF700FF09B0F0BC5A
:1019A000BB46B246A946A046F0BD564B564AD72183
:1019B000564801F015F9564B534ADE21534801F0C1
:1019C0000FF9C04340440C2102F09EFA002912D1C5
:1019D00001239E43B34633000026DA79AA4211D987
:1019E0000621595600290CDB4A00521892001E00AD
:1019F0003E4B9B18F1E7474B434AEA21434801F02D
:101A0000EFF81E00002E3AD005AB434A1A80813A07
:101A10005A800623F3560293002B17DA3F4805AB92
:101A20009B469880029A9A71DD71019A0792301D47
:101A30002100FFF7C7FEB080B7717B00DB199B0068
:101A40002A4FFF185B4607CB07C7A2E77800C019EB
:101A50008000264BC0180430321DB388D90A1C29D7
:101A600007D15B055915023149005118FFF7AAFE4D
:101A7000D5E72B4B2B4AB121244801F0B1F805AE34
:101A80001D4B33807B000293D8198000174A904683
:101A9000020042440392901C1849FFF793FE7080A5
:101AA000039A101D5946FFF78DFEB0801E4B5A4613
:101AB0004146521A524153431B0DB371F571019ABD
:101AC0000792029B9C466744BF0047440ECE0EC758
:101AD000114B5A461380813B538001231C43A0467F
:101AE00057E7C046240100D0D35300206C0C0020DF
:101AF00000ED00E0CD01001000A1FFFF9C0C0020D4
:101B000001BDFFFFEC7C0010A47E0010707C001073
:101B1000147D00103C7D00100148000001BD000054
:101B2000B07D0010947E0010AAAA0000F0B5CE4649
:101B3000474680B583B006000D00EFF3108872B6FB
:101B4000564B1B68002BFBD0BFF35F8F544B9A683A
:101B500034001034A300D758524B9F4207D0AF42F5
:101B600000D198E00197504BFB1A2F2B09D9424620
:101B700039003000FFF712FE03B0C0BCB946B046D2
:101B8000F0BD3000FFF762FE814600213000FFF714
:101B900079FEBFF35F8FEFF30581002901D08C42FE
:101BA00011D10123019C9C430022A368AB4212D0B7
:101BB0000622A256002A0DDB53009B189B00220030
:101BC000394CE418F1E73621384B394AFF313948AE
:101BD00001F006F82200AB4256D106256557002DCC
:101BE00038DB6B005B199A002F4B9B189A68A26038
:101BF000DA79E27106229A56A2719B795BB2002BC8
:101C00000FDA2D48A0806B005B199B00264AD31881
:101C10002A4A11789971157049463000FFF732FE53
:101C2000A5E7201D6B005B199B001F4A9B181A1D1E
:101C30009B88D90A1C2907D15B055B150233590023
:101C40005118FFF7BFFDDDE71D4B1E4AB1211948B2
:101C500000F0C6FF002912D1002A0ED0FF23937195
:101C6000194B9380154A1378A371184B0E49641AC7
:101C7000644163431B0D1370CEE70A4FF2E7201D4A
:101C80001349FFF7C3FDC7E76A21124B084AFF312A
:101C9000084800F0A5FF034F69E7C046240100D0C3
:101CA00000ED00E0CD0100106C0C0020C87D00109C
:101CB000747E0010707C001001BD0000D353002022
:101CC000B07D0010947E001001BDFFFFAAAA0000A5
:101CD000A60C0020FC7D001070B5012101432E4BA5
:101CE000CB1A2F2B28D8EFF30583002B2BD0EFF343
:101CF000108C72B6294A1268002AFBD0BFF35F8F9E
:101D0000274A0400244D641B64416243120D54B2FF
:101D1000244A92689B00D2588A421BD00022032A90
:101D200032D853009B189B001B49CB189B795BB2A0
:101D3000A3421FD00132F2E7C7211B4B1B4A4900C7
:101D40001B4800F04DFF92211A4B184AFF311848EA
:101D500000F046FF134A92681749D150174B1A7882
:101D600082711C70BFF35F8F0C4B00221A608CF3E2
:101D7000108870BD0D005300991889006918FF265E
:101D80008E710F4A8A80E9E7D1210E4B074A49003C
:101D9000074800F025FFC0466C0C0020240100D04D
:101DA000AAAA000000ED00E0047E0010407E0010B2
:101DB000707C00102C7E0010CD010010D353002049
:101DC00001BDFFFF387E00100022044B02E00449F1
:101DD00002C30132072AFAD97047C04600E400E086
:101DE00080808080024B9C4661448900016070477E
:101DF0004000003410B50400FFF7B2FC01002000E1
:101E0000FFF7F0FFFF232371BFF35F8F10BD10B505
:101E10000400FFF7A5FC01002000FFF7E3FFFF230C
:101E2000237100236371BFF35F8F10BD034B9C468A
:101E3000614489000160BFF35F8F70474000003448
:101E400010B504000120FFF799FC01002000FFF706
:101E5000EDFF10BD10B500291ED0037B99421BD8A1
:101E60004B005B18033B0468A4466344002919D067
:101E7000002A1DD0914221D0002A25D0047BA24205
:101E800022D804685000801803382018817019780F
:101E900000291FD11A7010BD104B114A682111483A
:101EA00000F09EFE104B114A6F310E4800F098FE74
:101EB0000F4B0E4A70210B4800F092FE0D4B0B4A5F
:101EC0007121084800F08CFE044B054A6821054842
:101ED00000F086FE41701A70DDE7C046FC78001005
:101EE0007C8000101879001058790010688000106C
:101EF000647900107079001070B506000D001400B0
:101F0000002914D0002A14D08068736898470028EC
:101F100006D0220029003000FFF79CFF280007E0D0
:101F20002A0021003000FFF795FF200000E010009C
:101F300070BD0800FCE7000010B5002343730133B7
:101F40008373037BC3730123027B9A4214D9002B52
:101F50000CD0027B934209D85A00D218033A016888
:101F60008C4662440133DBB25370EDE70B4B0C4AF5
:101F700068210C4800F034FE002A09D0924207D8AC
:101F8000016853009A18033A8A180023537010BD51
:101F9000024B034A6821034800F022FEFC7800103F
:101FA0007C8000101879001010B5017342608360C6
:101FB000FFF7C2FF10BD000070B50400081E00D17D
:101FC00070BD002934D0237B994231D84B005B1877
:101FD000033B2268944663445A78002AF0D02DD0FF
:101FE000237B9A422AD853009B18033B21688C46D6
:101FF00063445D7800215970002825D0237B9842E6
:1020000022D843001B18033B21688C4663440021FF
:10201000597001002000FFF76FFF06002900200023
:10202000FFF7CAFF020031002000FFF765FFC7E796
:10203000084B094A6821094800F0D2FD054B064AC1
:102040006821064800F0CCFD024B034A6821034892
:1020500000F0C6FDFC7800107C800010187900109C
:1020600070B505000C00160000292FD034D0037B7A
:10207000994231D84B005B18033B02689446634495
:102080005A78002A2ED19A78002A31D11978FFF790
:1020900093FF0300002E0AD0EA7B002A2ED1AA7BF0
:1020A000002A03D1EA7B002A3BD1AC73EC73002BEE
:1020B0003DD1002C4FD02B7B9C424CD82B6861002B
:1020C0000C19033C1C190023637070BD254B264A74
:1020D0003821264800F084FD254B264A68212648F1
:1020E00000F07EFD254B204A3A21204800F078FD83
:1020F000234B1D4A3B211D4800F072FD002A0AD0E7
:10210000297B8A4207D851008A18033A29688C46ED
:1021100062445470C3E7164B164A6821164800F013
:102120005FFD184B104A4221104800F059FD002B6A
:102130000BD02A7B934208D843001B18033B2A6824
:102140009446634400229A70B3E7094B094A682118
:10215000094800F045FD064B064A6821064800F094
:102160003FFDC046987F001054800010A07F0010F3
:10217000FC7800107C80001018790010D07F0010CF
:10218000F87F0010347A001070B504000A00457B17
:102190002900FFF765FF6073280070BD70B504006B
:1021A000002967D0437B8B420ED0002911D0037BDE
:1021B00099420ED84B005B18033B0268D018837815
:1021C000002B0CD1002056E00121FFF7DDFF01209C
:1021D00051E0294B294A6821294800F001FD002BD4
:1021E00020D0227B93421DD85A00D318033B22688B
:1021F000D2182568EB5C8B421AD0002B1BD0227BB7
:10220000934218D85A00D318033B2268D218537847
:102210008B4216D0002BF0D11A4B1B4A6B211B4866
:1022200000F0DEFC144B154A6821154800F0D8FC7C
:102230004378137007E0104B104A6821104800F0F3
:10224000CFFC437853700023837043700122200039
:10225000FFF706FF0200617B814205D02000FFF7F7
:102260004BFE6073012006E0094B074A71210748C5
:1022700000F0B6FC002070BDFC7800107C800010DF
:1022800018790010387E00103C800010A07F0010EC
:102290001C800010F8B5DE4657464E464546E0B570
:1022A00005000F0092460A9A934250D31A0E9146A7
:1022B0001E020A9A00233000494601F063FE804660
:1022C0006C006419A400304B9C46644463688342EC
:1022D00000D260602B1FDBB29B46012B3DD9C0238F
:1022E0009B012343802212011A60AB00274A9958B0
:1022F000002907D0506901F007FE431C5800C018A0
:102300000338FDD253465A0123685A40E0231A404D
:1023100080235B0123431A605A46012A28D980236F
:102320009B012343802212011A60434663604246A8
:1023300000233000494601F025FEAD00134B5851F3
:102340000120F0BCBB46B246A946A046F8BD104BE2
:10235000104A3321104800F043FC012FBFD1C023A5
:102360009B01234303221A60A368DB07FCD5C9E75E
:102370002168794003220A401A60A2680123BB4009
:102380001342FAD0CBE7C04600800040084B002043
:1023900088800010D88000109C80001030B583B079
:1023A0000C2000F039F9FFF769F900280DD000235F
:1023B00004E099002D4A2E4888500133092BF8D9A2
:1023C0002A4B2C4A5A6203B030BD2B4B00229A672D
:1023D00000F02AF9294B01221A60274B5B6C012B74
:1023E000FBD1274B03221A60234B9B6B012BFBD1A4
:1023F000013300930433234A0121234800F078F885
:1024000005230093214A0121214800F071F8214B56
:102410000093002202210420FFF73CFF1E4D00958F
:102420002B00002201210520FFF734FF104C0094FF
:102430002300002200210720FFF72CFF0094230037
:10244000002200210820FFF725FF0A4B00932300FC
:10245000002200210920FFF71DFF00952B0000221C
:1024600000210620FFF716FFADE7C046084B00200D
:10247000006CDC021BB70000008000403CB0004054
:1024800030B00040002F685900800240008C864721
:1024900000C00240001BB700405973078000014B89
:1024A000C0587047084B002010B58300084A944676
:1024B00063441C6840226240C024144080225201C0
:1024C00013431C60C000034B9C466044416010BD38
:1024D00004C001400040014010B501238340D022D8
:1024E0001206936293610521FFF7DEFF10BD000025
:1024F000F0B5C64600B504000E0017001D003748B1
:1025000001F002FD8046364BFA18364B9A4239D814
:102510000100380001F0F8FC0200103A98235B003B
:102520009A4235D86B1E062B38D8069B013B062BEA
:1025300034D83F09474537D32D04069B1A0315436A
:102540002368002B36DB284B9C4244D0802252016A
:10255000264B1A60264B1A60264B9B681100994344
:10256000FAD12660A060231DC02292011A432123C4
:1025700013602368002BFCDAE5600823136080BC3D
:10258000B846F0BD1C4B1D4A11211D4800F028FB28
:102590001C4B1A4A19211A4800F022FB1A4B174A01
:1025A0001C21174800F01CFB184B144A2321144827
:1025B00000F016FB22683F231340B342C3D1A36847
:1025C0001B051B0D8342BED1E368EE22D2021340ED
:1025D000AB42B8D1D3E780229201B9E7001BB70024
:1025E00080E84BD380F8A93200C0024000E00040F0
:1025F00000F0004000C00040E880001000820010A1
:10260000488100107C81001098810010E481001046
:102610002D2343607047000080239B000343014A41
:10262000D362704700800540064BAA2212011A604F
:102630002F22DA60044B054A1A60024B5B68002BBC
:10264000FBDA7047004002400060024000B0FA0030
:1026500070B5046BE30701D4200070BD0200303276
:10266000C0239B0113430A4A1A60456A826AAD017E
:10267000AD18AD020620FFF711FF064901F044FC3A
:102680000100280001F040FC0021FEF7F7FEE3E71F
:10269000010300004E0E000070B504000E0015008E
:1026A000FFF7D6FF22002C32E16A4E4035408023EE
:1026B0005B0113431D60206370BD000070B5050011
:1026C0000C000620FFF7EAFEC000210001F01CFC10
:1026D000C60908D00E4B9E4216D87F231840013001
:1026E0003400460800E001246C62AE620022002142
:1026F0002800FFF7D1FF0620FFF7D0FE8000A101E0
:10270000891901F001FC70BD0026024CECE7C046BF
:10271000FEFF0000FFFF000010B505394901013A36
:10272000D2001143002B09D002220A43012B07D00B
:10273000002111436E22FFF7AFFF10BD0022F4E726
:102740000421F6E7002909D00A22064B9C46604482
:10275000434258414000044BC2527047802252000D
:10276000F3E7C0460080FCBFBC53002070B50500F5
:102770000C000620FFF792FE061E27D0164B9D4246
:1027800026D08022D203154B1A60154B1A60154BC8
:102790009B6811009943FAD100212800FFF7D2FF6E
:1027A00021002800FFF78AFF0600002301220821EC
:1027B0002800FFF7B1FF2A002C3280239B0113432E
:1027C00010221A60084B2B630323AB64300070BDEA
:1027D00080221204D7E7C0460080034000E000409A
:1027E00000F0004000C000400103000070B588B058
:1027F000040004AD002604960922002105A802F079
:10280000D5FA00960922002101A802F0CFFA4B2345
:102810002B700D226946280004F03EFE002304E0E0
:102820005A1D69468A5CE2540133072BF8DD08B073
:1028300070BD10B5010018231B881422108898471A
:1028400010BD10B5010018231B8816221088984768
:1028500010BDF0B5C64600B507000E0000250123E7
:10286000984600E00135B5420AD2AC003C19206818
:10287000FFF7DFFF20600028F4D100239846F1E73E
:10288000404680BCB846F0BD0523CB56002B01DB8B
:10289000934211D1094B9C46604443425841800009
:1028A000074BC058097901238B40013B93401840E6
:1028B00043425841C0B270470020FCE70000D0AF4F
:1028C000A848002070B50A79202A19D8174B9C46D1
:1028D0006044434258418000154BC4580123934043
:1028E000013B497949B2002910DB08002025AA1ACA
:1028F000914218DC8B401C4201D00120404270BD47
:102900000C4B0D4A40210D4800F06AF92020801A36
:10291000002805DB1A0082401442F0D00138F7E7A6
:1029200001204042EBE701204042E8E70000D0AF41
:10293000A84800206C8300100484001098830010C5
:1029400070B505000C001600FFF79EFF002801D0AF
:10295000002007E0154800F0DDF9831912339B00D1
:102960005A510130237983420FD9237861780902C3
:102970001943A27812041143E3781B060B4342006B
:102980009A5A530BE9D19219E7E701229A401300B2
:10299000013B074A944665446A425541B340054AA3
:1029A000AD00A9580B43AB5070BDC046CC8300109E
:1029B0000000D0AFA848002010B582B00A4B9C465A
:1029C0006044434258418400E31C084A00922200BC
:1029D0000748FEF78CFE844202DC001B02B010BDEB
:1029E00001204042FAE7C0460000D0AFE08300106B
:1029F000D2530020F8B505000E00FEF749FE07008F
:102A000031002800FFF75EFF041E09DB02003100E1
:102A10002800FFF795FF3800FEF746FE2000F8BDBE
:102A2000014800F077F9C046CC830010F0B5C646E7
:102A300000B506AC25784C006618F60086193700FC
:102A4000DC373F68BC46CC363668B0466418E400D4
:102A5000C83404190434C026B60134438026B602B3
:102A60002660002D01D01F2614E0002612E054013C
:102A7000A0256D0525434C006418E40004192700C7
:102A8000DC373D60114D3543D8342560053B0532B8
:102A90001F242240052BEAD89B06520113434C0009
:102AA0006218D20082181500DC352B60074B1E43DC
:102AB000D832166063462B606118C9004018CC30CC
:102AC0004346036080BCB846F0BDC04680E00000CD
:102AD00070B58AB004000D00160002680121A940FB
:102AE0008A430260002B34D069004919C90041189B
:102AF0000A00C83218681060043258681060043246
:102B000098681060DB68DC310B6069004B19DB00F2
:102B1000D033E318802252011343802212061A6038
:102B20001A60234BAB40A3602B1D0122100098407C
:102B300080239B01234318602800083082401A60DC
:102B40001F2216404919C9006418D83426600AB0FB
:102B500070BD1022002106A802F028F980235B0234
:102B60000693F8235B0207938023DB020893C023BC
:102B70001B030893102206A902A802F01DF96B009E
:102B80005B19DB00E3181A00C83202991160039A3E
:102B900001921A00CC3201991160049A01921A0034
:102BA000D03201991160059ADC331A60ADE7C04656
:102BB0000101010100B583B00100044B00930B2318
:102BC00000220348FEF793FD03B000BD24840010EB
:102BD000CC53002000BEFDE710B5FFF7FBFF00005F
:102BE00010B582B00C001900002A0CD0084B002A46
:102BF0000BD00192009323000200064802F034FA41
:102C00000120FFF7E7FF044BF1E7034AF1E7C04675
:102C100044840010548400105084001070B52B4B75
:102C20002B4A1A602B4B2C4A1A602C4B9A682A4B61
:102C30009343FAD12A4C01E008CC9847294B9C4297
:102C4000FAD3FFF7ABFB234B274A1A60234B9B6851
:102C5000DB43DB01FAD1254B40229A675A671A679A
:102C6000DA66234C09E0234B234A87212348FFF7E8
:102C7000B7FF2000FFF7BEF80834214B9C4209D271
:102C80002368002BF5D0012BEDD12000FFF7BFF812
:102C90000834F2E71B4CA1681B4DC022280002F04B
:102CA0008BF8A560EFF30583002B00D000BEFEF784
:102CB00047FDFFF789F8FEF7B1F9144C01E008CCA5
:102CC0009847134B9C42FAD370BDC04600E00040C9
:102CD000BFCDFBFE00F00040FE7F3C0000C0004086
:102CE000300D0020400D0020FFFFFF0100F00140EB
:102CF000200D002084840010F0840010A4840010B3
:102D0000300D002000ED00E000000020400D00200C
:102D1000480D00200FB400B583B0084802F074F9E4
:102D2000049B002B07D005A90191180002F07CF943
:102D3000034802F069F90120FFF74CFFDC84001022
:102D4000EC8400109A4200D288547047704710B546
:102D5000002802D00B684968984710BD0100002088
:102D600007E083001B185B00501C08601078C01837
:102D700030380A681378303BDBB2092BF1D9704741
:102D8000F0B5DE4657464E464546E0B583B093461D
:102D90001F000C9B9A460D9C0E9B99460F9B9B0710
:102DA00003D0B8460F00060022E00192A3468846F1
:102DB0004E46B9460700B44207D2551C4B46414621
:102DC0002020B84701342A00F5E73D004F465C4615
:102DD000019B9B46B1464646B84637002E0007E0A9
:102DE000013C551C5346185D43463900B0472A0044
:102DF000002CF5D135003E0047460F9B9B0707D4BA
:102E0000100003B0F0BCBB46B246A946A046F0BDD8
:102E1000B0464E46B9462F005D46531BB342EFD233
:102E2000541C4B4641462020B8472200F5E7F0B538
:102E3000CE46474680B585B0944698460C9D0D9C7D
:102E40000EAB1B789946109A119B129EB7071CD4A3
:102E5000002B0CD0F7070AD54F46002F02D10C37B4
:102E6000374204D0013B02E030272F550134944211
:102E700001D21F2CF8D9F70707D59C4205D21F2C89
:102E800003D830272F550134F5E7F70615D5770518
:102E900005D4002C03D0944224D09C4222D00F9A17
:102EA000102A2BD00F9A102A30D00F9A022A35D030
:102EB0001F2C02D830222A5501341F2C05D84A462F
:102EC000002A31D02D222A55013403960293019411
:102ED000009543466246FFF753FF05B0C0BCB946B4
:102EE000B046F0BD621E012C06D00F9F102F01D0FE
:102EF0001400D4E7023CD2E71400D0E7B206D1D4E4
:102F00001F2CCFD878222A550134D1E7B206CCD570
:102F10001F2CCAD858222A550134C9E71F2CC7D8FC
:102F200060322A550134C3E7720703D52B222A5594
:102F30000134CAE73207C8D520222A550134C4E734
:102F4000F0B5DE4657464E464546E0B593B081465D
:102F50008A46089209931CAB10CB1B789B461E9D9A
:102F6000219B9846002C03D1102342469A43904659
:102F70008023DB0046461E4042461A4212D0002CF7
:102F800022D000260EE03033D9B2771C0AAB995517
:102F90002900200000F0B8FFAC4216D31F2F14D830
:102FA0003E0004002900200000F0AEFFCBB2092B48
:102FB000E9D94246920605D54121C918C9B20A3954
:102FC000C9B2E2E76121F8E7270043460693209B58
:102FD00005931F9B049303955B46029301970AABED
:102FE0000093099B089A51464846FFF720FF13B00B
:102FF000F0BCBB46B246A946A046F0BDF0B5DE46E1
:1030000057464E464546E0B595B0089009910A925C
:103010000B931E9E1F9C20AB1B789B46229B9946C0
:10302000239D269B9A463300234303D110335246F7
:103030009A4392468023DB0057461F4052461A426D
:1030400019D0330023432DD0002714E03033DAB2F7
:103050007B1C98460CABDA554A462B003000210009
:1030600000F090FFA5421FD819D043461F2B1BD854
:10307000474606000C004A462B003000210000F0B5
:1030800081FFD3B2092BE1D95246920605D54122E0
:10309000D218D2B20A3AD2B2DAE76122F8E7B145E1
:1030A000E3D901E00023984653460693259B0593F8
:1030B000249B04934B4603935B4602934346019340
:1030C0000CAB00930B9B0A9A09990898FFF7AFFE87
:1030D00015B0F0BCBB46B246A946A046F0BD000004
:1030E000F0B5DE4657464E464546E0B591B08346BC
:1030F0008A460C9298461A9C08941B9D09952200BA
:103100002B002000290001F0C8F9002800D0E5E0DC
:1031100001225242D74B2000290001F0B9F90028C2
:1031200000D0DBE001225242D34B2000290001F005
:1031300099F9002800D0D1E000220023089E300039
:10314000099D290001F08EF9002800D0DDE00898E3
:103150000999069007918023DB001E9A1A400D9270
:103160001E9A1A4201D106231C930698079904005F
:103170000D000A000600024300D1D1E0080D400511
:10318000400DBE4CA44660440A03120BBC4B1343D3
:103190001F0001F095F9BB4ABB4B01F020F9BB4A77
:1031A000BB4B01F0F5F804000D000022B94B3000D4
:1031B000390001F0E4F8B84AB84B01F010F9020008
:1031C0000B002000290001F0E3F801F091F981469D
:1031D00001F076F904000D00B14AB24B01F0FFF89E
:1031E0000022B14B01F0D4F801F082F90600AF4A99
:1031F000AF4B2000290001F0F2F804000D00300070
:1032000001F05EF9AB4AAC4B01F0E9F802000B00AB
:103210002000290001F0B3F804000D0002000B00AB
:1032200001F0DDF80A900B91A44BF31800261F055E
:1032300022002B002000290001F0AAF80E900F9127
:1032400022002B0000208021C90501F098F804001D
:103250000D0000229A4B0A980B9901F0A2F8002267
:10326000984B01F095F802000B000A980B9901F0B9
:1032700098F80022944B01F08BF802000B000A989A
:103280000B9901F08EF802000B002000290001F0DC
:103290007FF802000B000E980F9901F082F80022CF
:1032A000774B01F075F832003B0001F098F806000A
:1032B0000F0004000D00069A079B01F0E9F80028B2
:1032C00030D001235B429C46E14400227D4B30001C
:1032D000390001F066F804000D0023E01E9B049302
:1032E0001D9B03931C9B0293089A099B00920193D8
:1032F00043460C9A5146584600F0FCF811B0F0BC19
:10330000BB46B246A946A046F0BD00230024069362
:103310000794069680231B069C46654407951AE78A
:10332000002399464B466333C62B1ED804261E9BAA
:103330001B0526D52B0023430FD0644A644B069807
:10334000079901F09DF8002879D00022614B06987A
:10335000079901F087F8002871D01C9B4B4506DDCA
:103360004A46981A431E1C9303E00526DFE7002314
:103370001C938023DB001E9A1A431E920026002312
:1033800099461D9B9E4264D29F1B02231E9A1A409F
:103390000A921E9A134202D0002E00D000274B46FC
:1033A000002B07D022002B000698079900F0F9FFA8
:1033B00006900791002200230898099901F052F81D
:1033C000002848D1444B1E9A1340049303971C9B3A
:1033D0000293069B079C0093019443460C9A514626
:1033E000584600F087F8002E00D187E71E9B9B0609
:1033F0003DD54525441C4346020051462800D84788
:103400004B46DA179B18534005220592013E04965D
:10341000002203920A3202924A46D00F0190009392
:103420004346220051465846FFF78AFD0A9B002B6F
:1034300000D163E702005F460C9E1D9D54E01C9B7B
:10344000002B9ED00D9B002B9BD01C9B013B1C9303
:1034500097E7002799E7069C079D22002900802016
:103460000006844661440B0006920793AAE765258F
:10347000C0E7C046FFFFEF7FFFFFEFFF01FCFFFF4C
:103480000000F03FFB799F501344D33FB3C8608BDB
:10349000288AC63F0000F83F61436F63A787D23F89
:1034A00071A379094F930A400000E03F1655B5BB60
:1034B000B16B0240EF39FAFE422EE63FFF030000F7
:1034C00000002C4000002440000018402D431CEB5D
:1034D000E2361A3F80842E41FFF7FFFF541C43461B
:1034E00051462020B8472200931BAB42F6D3100070
:1034F00004E7C046F0B5DE4657464E464546E0B5C1
:1035000095B00690079193469946209F1E9A1F9B5F
:103510001000190000F0C1FF002831D101225242F1
:10352000BF4B1E981F9900F09DFF002837D1012244
:103530005242BC4B1E981F9900F0AAFF00283DD1B3
:103540000022B94B1E981F9900F0A2FF002850D10D
:103550000022B64B1E981F9900F084FF002848D126
:10356000002200231E981F9900F07CFF002850D1F4
:1035700000239846229B5B0500D4B6E0002458E067
:10358000229B0393219B029303230193A84B009357
:103590004B465A4607990698FFF7F2FB0EE1229B2D
:1035A0000393219B029304230193A24B00934B4668
:1035B0005A4607990698FFF7E3FBFFE00423229A97
:1035C0001A4022990B4210D09B4B002A0FD00422A4
:1035D0002299039121990291019200934B465A46F8
:1035E00007990698FFF7CCFBE8E0944BEDE7032240
:1035F000EEE7229B0493219B039302971E9B1F9C43
:10360000009301944B465A4607990698FFF768FDC8
:10361000D4E01E9A1F9B0020002100F0B0FE1E90F7
:103620001F9101239846A5E70CAB30221A55013FA4
:1036300001341F2C01D8092FF6D81E981F9900F0CD
:1036400057FF050000F03CFF02000B001E981F9979
:1036500000F095FEFA007A4B9B181A685B680A9294
:103660000B9300F0BCFE0890099100F065FF060086
:1036700000F022FF02000B000898099900F07FFE7D
:103680000890099100226F4B00F002FF00282ED015
:103690000136300000F010FF02000B000A980B9971
:1036A00000F0E6FE002801D001350026002F2CD1C5
:1036B000280000F005FF02000B001E981F9900F083
:1036C0005EFE06000F0000225E4B00F0CBFE0028DD
:1036D00046D100225B4B3000390000F0D9FE0028B3
:1036E0003ED1EB073CD501353AE0062746E70022FC
:1036F000544B0898099900F0B5FE0028D6D1002E49
:1037000001D0F307D2D50136D0E7AA461F2C11D835
:10371000013F0A21300000F0F7FB651C30310CAB93
:1037200019550A21300000F0EFFB092E0ED90600D2
:103730002C00EBE755461F2C0CD87B1E002F09D020
:103740000CAA302111551F000134F4E72B00554617
:103750001C00F0E71F2C03D80CAB2E221A550134A5
:103760001F2C10D80A21280000F0A6FB661C30315F
:103770000CAB19550A21280000F09EFB051E01D054
:103780003400EDE734000323229A1340012B1CD0B0
:103790001F2C06D84346002B32D00CAB2D221A55D5
:1037A0000134229B0393219B029301940CAB009361
:1037B0004B465A4607990698FFF7E2FA15B0F0BC57
:1037C000BB46B246A946A046F0BD219B002B13D0B4
:1037D0004346002B02D10C3313420FD0219B013BF7
:1037E0002193190003E00CAB30221A5501348C42AE
:1037F000CED21F2CF7D9CBE72199F8E72199F6E72C
:10380000229B5B0704D50CAB2B221A550134C8E769
:10381000229B1B07C5D50CAB20221A550134C0E7EB
:10382000FFFFEFFFFFFFEF7F65CDCD4165CDCDC140
:103830000C85001010850010048500100085001014
:10384000F88600100000E03FF0B5DE4657464E46D1
:103850004546E0B593B082468B46904611930029C9
:1038600000D1EBE200275546119B1878002800D1C3
:10387000E7E2252809D07C1C43463A005946A84770
:10388000119B013311932700EEE7013311930024BC
:10389000119A11780B00203BD8B2102803D883006E
:1038A000D048C3589F460B00303BDBB2092B2CD9C4
:1038B0002A292FD000230A93119B1A782E2A39D057
:1038C00000239A46119A1378683BD9B2122976D808
:1038D0008B00C549CB589F4601231C4301321192EE
:1038E000D6E702231C4301321192D1E704231C4383
:1038F00001321192CCE708231C4301321192C7E731
:1039000010231C4301321192C2E711A8FFF726FAD7
:103910000A90D1E71C9B1A1D1C921868002804DB32
:103920000A90119B01331193C6E702231C434342C3
:103930000A93F6E78022D20014435A1C11925A7857
:103940001300303BDBB2092B04D92A2A07D000230D
:103950009A46B7E711A8FFF701FA8246B2E71C9B27
:103960001A1D1C921868002804DB8246119B013343
:103970001193A7E70020F8E780235B002343511C45
:10398000119152786C2A01D01C0018E0C0239B00D2
:103990001C430131119112E080232343511C1191EA
:1039A0005278682A01D01C0009E0C0231C43013171
:1039B000119104E080235B001C4301321192119BA2
:1039C00018780300253BDAB2532A00D92CE2930081
:1039D000864AD3589F4680239B001C430132119294
:1039E000EDE780235B001C4301321192E7E7782862
:1039F00009D0582838D06F2838D0622838D0102302
:103A00009C430A2600E01026582833D0692803D0AA
:103A1000642801D00C229443630501D5012294430C
:103A200069282AD0642828D0A30500D59FE0E305A3
:103A300000D5B8E0630600D4CAE01C9A111D1C91A1
:103A40001168FF220A4005940A9B0493534603938E
:103A5000029600230193009243463A0059462800FB
:103A6000FFF76EFA070027E01026CDE70826CBE720
:103A70000226C9E720221443C8E7A30520D4E305A2
:103A800050D4630666D51C9A111D1C911168FF2243
:103A90000A40D317D118594005940A9B0493534602
:103AA00003930296D20F0192009143463A00594681
:103AB0002800FFF745FA0700119B01331193D3E665
:103AC0001C9BDA1D07218A43110008311C911168E3
:103AD00053689C46DB170C930D930C9A0D9B1000BA
:103AE00048400E90624653400F930E980F990C9ADF
:103AF0000D9B801A99410E900F9108940A9B079391
:103B0000534606930496002305936346DA0F029208
:103B10000090019143463A0059462800FFF76EFA9B
:103B20000700C9E71C9A111D1C911268D317D11800
:103B3000594005940A9B0493534603930296D20F6F
:103B40000192009143463A0059462800FFF7F8F9E0
:103B50000700B1E7230605D51C9A111D1C9100230F
:103B6000D25E96E71C9A111D1C91126891E71C9B6E
:103B7000DA1D07218A43110008311C9108940A9B21
:103B80000793534606930496002305930293136804
:103B900054680093019443463A0059462800FFF7C1
:103BA0002DFA070088E71C9A111D1C9105940A9BA9
:103BB00004935346039302960023019313680093E2
:103BC00043463A0059462800FFF7BAF9070073E761
:103BD00023060DD51C9A111D1C9112681204120C9B
:103BE00031E7C046188500105C850010A8850010DC
:103BF0001C9A111D1C91126825E746281AD01C9B9F
:103C00000733072293431A0008321C9204940A9A3D
:103C10000392524602925C681B68009301944346EB
:103C20003A0059462800FFF765FC0700119B013355
:103C3000119319E620231C43E1E7672801D04728A8
:103C400002D180231B011C43452801D0472801D104
:103C500020231C431C9B0733072293431A0008327E
:103C60001C9204940A9A0392524602925C681B6862
:103C70000093019443463A0059462800FFF730FA72
:103C80000700119B01331193EEE502231A00224035
:103C9000924623421FD001241C9B1A1D1C927A1CA1
:103CA0009146187843463A005946A8475346002B98
:103CB00016D1119B013311934F46D5E5561C43464F
:103CC00059462020B847230032005C1C9D42F5D89D
:103CD0003D001700E0E701233A002F000A9DF4E7BA
:103CE0004A46A9460A9D06E0571C434659462020ED
:103CF000C84734003A00661CA542F5D84D469146A7
:103D0000D7E71C9B1A1D1C921B6899465346002B33
:103D100000D1013B4E4601E0013613003278002A03
:103D200002D05A1E002BF7D14B46F21A1092802374
:103D3000DB0026001E401C4203D0524501D95346E9
:103D4000109302231A0022400B92234205D03A001E
:103D500037004C46A946554620E03A00109B5F4686
:103D6000B3462E0006E0551C434639002020B047DC
:103D700023002A005C1C0A999942F4D835005E465B
:103D8000BB46109437004C46A946554606E01D0038
:103D90000134561C43465946C84732002078002853
:103DA00004D0002FF4D06B1E002DF0D117004D462B
:103DB0000B9B002B03D1119B0133119354E50A9FF8
:103DC000109B06E0561C434659462020A847230076
:103DD00032005C1C9F42F5D81700ECE721231C43FE
:103DE0001C9B1A1D1C921B680093059408230493C6
:103DF00053460393102302930023019343463A0052
:103E000059462800FFF79CF80700119B01331193D6
:103E10002AE57C1C43463A0059462520A847119BB9
:103E20000133119327001FE57C1C43463A00594695
:103E3000A847119B01331193270015E50A4B9A46B9
:103E400010E5AA46474502D343465A1E00E03A0011
:103E5000434659460020D047380013B0F0BCBB465B
:103E6000B246A946A046F0BD4D2D001000B583B066
:103E7000009313000A0001000248FFF7E5FC03B0BD
:103E800000BDC046452D001000B585B002900391DD
:103E90000121009313004A4202A90248FFF7D4FC13
:103EA00005B000BD4F2D001001480421014B1847FB
:103EB000C00C002053280010124A936F9B0815D2A3
:103EC0009066D166002905D0FFE7FFE7FFE7516F55
:103ED000106F704704B580210906C21751400028B1
:103EE00000D0C84303F0F8FA002104BDF0B5146E09
:103EF000556E576F166FFFF7E3FF146655665767E9
:103F00001667F0BD000000D0114A936F9B0813D2D2
:103F100010665166002905D0FFE7FFE7FFE7516F04
:103F2000106F704704B5002801D00020C04303F093
:103F3000D3FA002104BDC046F0B5146E556E576F1C
:103F4000166FFFF7E5FF1466556657671667F0BDF5
:103F5000000000D094464A4A926F9208624601D20D
:103F600028E0C046F0B5464E346E756E776F366FFA
:103F700000F020F89446424A146655665767166763
:103F80006246F0BD94463E4A926F9208624601D264
:103F900054E0C046F0B53A4E346E756E776F366FAA
:103FA00000F04CF89446364A146655665767166713
:103FB0006246F0BD002B24DB11D000293EDA00B5AB
:103FC000C943404200D1013100F038F8C9434042B2
:103FD00000D10131DB43524200D1013300BD002A40
:103FE000EBD1002801D1002905D00020C90FC90755
:103FF00001D1C043410800B503F05EFA002200235E
:1040000000BD00B500290ADBDB43524200D1013379
:1040100000F014F8C943404200D1013100BDC9434A
:10402000404200D10131DB43524200D1013300F064
:1040300005F8DB43524200D1013300BD002923D1F2
:10404000002B18D1002A0CD0BC460D4F38667A667A
:1040500000210023FFE7FFE7FFE77A6F386F67462D
:104060007047002801D00748010000B503F024FA8A
:104070000022002300BD02000B0000200021704739
:10408000000000D0FFFFFFFF002B00D0BFE0130CAB
:1040900028D1002AE7D080B4114F39667A66FFE74D
:1040A000FFE730B4040C7B6F396F1B0423433B667E
:1040B0007A66FFE7FFE7FFE7C04684B27B6F3D6F9C
:1040C0001B0423433B667A66FFE7FFE7C0460023F5
:1040D0002C042D0C7A6F386F00196941B0BC704701
:1040E000000000D0F0B594460025140E01D1120254
:1040F0000835140F01D112010435940F01D192003B
:104100000235D40F01D152000135D40B0134254FB3
:104110007C66254C3C660E0C93B2FFE7FFE7FFE799
:104120003C6F6643360C7703BE467343DF0B5B047C
:10413000C01AB941130C7343DB18C91ACE08664381
:10414000360CB64493B273431F0F1B01C01AB9411A
:10415000130C73431F0B1B05C01AB941860D8F0248
:104160003E436643360C092D24DB520A7243801A03
:104170007703460A6643360C16235B1BDE40DF409E
:10418000BF1964466643821B70460435063301003E
:10419000D940A840C01900D30131A24206D2002361
:1041A000F0BD0000000000D0FFFFFFFF121B013038
:1041B000F3D3F1E709277F1BFE406446A2B27243A6
:1041C000801A00D20139220C7243130C1204821A95
:1041D00099410B007046043513370100F940A8409F
:1041E000801900D30131002B02D1A2420AD2F0BDC6
:1041F000013000D30131121BFAD2013BF8D1A242A7
:1042000000D2F0BD013000D30131121BF7E7F0B549
:104210001C0C00D080E00CB400251C0A04D11B0249
:10422000160E3343120208351C0B04D11B01160F66
:104230003343120104359C0B04D19B00960F33438A
:1042400092000235DC0B02D192185B4101351C0053
:10425000971864410134464F7C66464C3C660E0C10
:10426000FFE7FFE7FFE7C0463C6F6643360C770386
:10427000BE4697B27743C01B00D20139C01B00D2A3
:1042800001399FB27743C91BC91B170C77437E04C2
:10429000FF0B801BB941CE086643360C0C2D33DB77
:1042A000B644120B1F053A431B0B97B27743C01B52
:1042B00000D201399FB27743C91B170C77433E04E4
:1042C0003F0C801BB941860D8F023E436643292770
:1042D0007F1BFE400C3D7746AF40BF1930BCA2B2F9
:1042E000ABB272437343801A9941220C7243130C90
:1042F0001204801A994102000B000137001BA941EA
:10430000F9D2781E0021F0BD0C277F1BFE407746B6
:104310007F0BAF40FF19E0E700245D1C07D0144F6E
:104320007D663966FFE7FFE7FFE7FFE73C6F95B281
:104330009EB265436643401BB141150C1E0C65439C
:10434000664336042F0C3E432D04401BB141994275
:1043500004D202000B0020000021F0BD01D19042E8
:10436000F7D3801A994101349942F2D3F6E700005D
:10437000000000D0FFFFFFFF48404140484018B414
:104380001B4B5B68FC46019308BD04DF53460010DD
:1043900018B4174B1B68FC46019308BD00DF5D464F
:1043A00000109446134A926F920809D2624618B4DC
:1043B0000F4BDB68FC46019308BD0CDF154900106C
:1043C0000C4AF0B5146E556E576F166F6246FFF7C4
:1043D000EEFF084A1466556657671667F0BD18B4B5
:1043E000034B9B68FC46019308BD08DFB9470010EA
:1043F000A4510020000000D0FFB550404240504082
:1044000059404B40594000E0FFB5154F4C00640D3A
:1044100003D0BC4204D10C0314D80020090D0905B7
:104420005C00640D03D0BC4204D11C030AD80022F6
:104430001B0D1B0501264B4009D44B4003D58B4275
:1044400000D18242FFBD9942FCD19042FFBD0B4397
:10445000DB1803431343F5D0C9434918FFBD0000DF
:10446000FF07000000B5FFF7CFFF804100BDC04649
:1044700000B5FFF7C9FF01D9002000BD012000BD34
:1044800000B5FFF7B9FF01D9002000BD012000BD34
:1044900000B5FFF7B1FF804100BD012040054A0093
:1044A000121804D85A00121801D8002070470120B1
:1044B00070470020704700000021002805D1704798
:1044C000C1174840401AFAD0C90713B5064B1B68FC
:1044D00098470CBC441CA2401005120B0349091B51
:1044E00009051943114310BDA45200201F04000008
:1044F00010B54C00620D8023D218DB00D21A5B0588
:104500007E2A10DD9E3A13DACC17090349081943B5
:104510005242D140640001341532202A05DAD040DD
:104520000843604310BD002010BD0846604310BD25
:10453000C80FC018013810BD18B4044B5B6AFC46A4
:10454000019308BD24DFC54A00100000A4510020DB
:1045500070B513231C78012C14D0012C14DC022C10
:1045600002DC1F4A1F4B9A641F48FEF762F91F4B7B
:10457000186070BD99001A481A4A885001331F2BE1
:10458000F8D9EAE70023FAE71948FEF75AF90500D7
:104590001848FEF756F9023803789B007F2B19DD87
:1045A000802229000F4800F007FC022CD7D1124BC3
:1045B0001A88B5231B029A4209D1104B1A88104B56
:1045C0009A4204D10F4B1A880F4B9A42C7D0002051
:1045D000FEF7A0FB0D4B0E4A32210E48FEF700FB02
:1045E00019460010A45100204C330000A4520020B2
:1045F000534400005346000054380000D8380000EF
:10460000494600009C3800005946000048870010C9
:10461000DC8700109C87001007B56046002800D199
:1046200000BE01880A0A0230DF2AFAD1C9B2820824
:1046300004D3028840880004104300E00068024A66
:104640005050039007BD0000A45100200FB403BCDC
:104650000CBCF0B50124E407634000E0F0B50C0D9C
:10466000CF0F661E3605891B640503D3C94340423C
:1046700000D30131640D03D0661CF60A07D0E41B99
:1046800000207F00791C89078912803C24031D0DBE
:10469000DF0F6E1E36059B1B6D0503D3DB435242B5
:1046A00000D301336D0D03D06E1CF60A07D0ED1B4D
:1046B00000227F007B1C9B079B12803D2D032F1B3C
:1046C000661B58D4A446202E46DA20371400BC407E
:1046D0001D00BD40F24033412A4380185941CB0FA1
:1046E00005D0C943C0430022644250415141624653
:1046F0004D0D28D10D0D07D100281FD024194041A0
:104700004941013A0D0DF9D0640006D3013000D3C0
:104710000131002C01D140084000013A0BD4941C17
:10472000E40A04D112051144DB071944F0BDD9078E
:10473000204B194300E0D9070020F0BD0029DDD14E
:10474000002CDBD1F0BD0132C6074008CD0728435D
:104750004908002EE1D0D9E73C2E29DA203E403727
:104760001400BC4000D00124F24014431A00BB40A6
:104770001C43D317ACE7AC46202F08DA20360400E0
:10478000B4400D00B540F84039412843A5E73C2F1F
:104790000CDA203F40360400B44000D00124F84039
:1047A00004430800B1400C43C117EAE710001900A8
:1047B000002494E70000F07FF0B50C0D661E36056E
:1047C000891BE60A6405640D02D0651CED0A04D05D
:1047D000002001210905803C2403A4461C0D671E0E
:1047E0003F05DB1BE70A6405640D02D0651CED0A7A
:1047F00004D0002201231B05803C2403774064443D
:1048000097B484B296B27443070C7E43150C6F4381
:1048100080B26843361802D3012000043F183004E8
:10482000350C00197D41844688B29AB250430C0C75
:1048300062431F0C7C438EB27E43921902D3012641
:104840003604A4191604170C3618674101BC81B24E
:104850009AB25143040C62431B0C5C4380B2584330
:10486000121802D30120000424181004130C40185D
:1048700063412D185E410020474106BC88B293B2C7
:1048800058430C0C6343120C544389B251435B18D8
:1048900002D301210904641819041A0C0918624191
:1048A0006D1856410020474118BCF902720D1143A2
:1048B000F0026A0D1043ED020A0D03D16D1940415B
:1048C0004941013B124E9B1B7600B3420ED26D0054
:1048D00007D30130002671416646354301D14008B7
:1048E00040001B05C918E4072144F0BD0BDA013371
:1048F00006D1013004D101314F0D01D04908F2E752
:10490000E1070020F0BD013631050020EBE7000093
:10491000FF030000F0B51C0D671E3F05DB1BE70A17
:104920006405640D02D0661CF60A04D0002201233F
:104930001B05803C2403D0252D060026F6432E6659
:104940001E096E66CE0FF619B44649004F0D02D00F
:104950007E1CF60A03D000200021403F3F033E1B8F
:10496000B600B444013F7F05C91B49082E6F0136CC
:1049700076089C02950D25437543ED137543AD13E1
:1049800001356D10F603761B0CB4CC02450D2C439B
:10499000A2B2B3B25A43270C7B43350C6F43A4B287
:1049A0006C431B1902D3012424043F191C041D0C61
:1049B000A4187D4124196D41009A91B2ACB26143B3
:1049C000170C7C432B0C5F4392B25A43A41802D3BA
:1049D00001221204BF182204230C52187B41019CAF
:1049E0006C431B19520ED9010A434401A01A81B22B
:1049F000B2B2514303145A43360C734387B2774320
:104A0000D617D21900277E4136049B191704160CBD
:104A10007F185E417316ED18F3010026803375414F
:104A2000A90F06D16400690AE8055B0A184309D298
:104A30002FE00422944480337541A90AA8059B0AFB
:104A4000184326D3404149412404009A019B0D009C
:104A50005543641B4343E41A95B286B27543170C61
:104A60007E43030C5F4392B25A43B61802D301222D
:104A70001204BF183204330C52197B4152429C413C
:104A8000002C02D40022013051414008CA071043D3
:104A9000490802B06246D7079210084BD218084B5B
:104AA0009A4203D212058918C919F0BD0020002AC4
:104AB00001DC3900F0BD01331905F5E7FD03000005
:104AC000FE070000002200B5203200F004F80800C4
:104AD00000BD000000220B150AD410B5944600F06A
:104AE00031F81414013400DA0021CB17144C20479C
:104AF0000020002170476244343A0CD40C2A07DAB3
:104B000004009140904052422032D440214310BDD5
:104B1000D843D94310BD203207D40C4694405242AA
:104B200020321141D040204310BD0800C917203267
:104B300003D452422032104110BD1800190010BD9C
:104B4000F74A00100A0DCC0F531E1B05C91A520557
:104B500003D3C943404200D30131520D03D0531C4B
:104B6000DB0A07D0121B00206400611C8907891230
:104B7000803A1203014BD21A70470000FF03000075
:104B800051434343C9188C46110C83B24B4310B4B4
:104B9000040C614392B280B2504362431C041B0C6C
:104BA000001910BC59411304120CC0185141614442
:104BB0007047000048404140484000239C46114B4C
:104BC0005B68184700239C460E4B1B6818470E4A2B
:104BD000936F9B0804D200239C460A4BDB6818475E
:104BE000F0B5146E556E576F166FFFF7F4FF064A57
:104BF0001466556657671667F0BD00239C46014B47
:104C00009B681847A8520020000000D0491A0028CD
:104C100008D1084670470000C10FC90700D54042BF
:104C2000002817D0F44603B40B4B1B68984706BC0A
:104C300081409E384042803107D20B0607D04900A0
:104C4000490AC0051043084360470130F8E7490AA4
:104C50008902F5E770470000A452002000239C461B
:104C6000014B5B6A18470000A852002070B513235F
:104C70001D782A48FDF7E5FD0400012D11D0012D16
:104C800009DDA31E1B789B007F2B40DD80222100C5
:104C9000234800F091F82348FDF7CBFD224B186024
:104CA00070BD542201001E4800F086F81F4B1A8880
:104CB0001F4B9A421CD1A7239B011A881D4B9A4275
:104CC00016D11D4B1A881D4B9A4211D11C4B1A88C4
:104CD00094239B019A420BD11A4B1A881A4B9A4281
:104CE00006D11A4B1A681A4B9A4201D1152307E0D4
:104CF0001848FEF70FF899001748094A8850013301
:104D00001F2BF8D9144A064B1A62DA61B7E7134B26
:104D1000134A42211348FDF763FFC0465346000083
:104D2000A85200204C330000A4520020EE290000BD
:104D3000C40F0000C20D0000962B0000C0B500009B
:104D4000182B0000CC2A000010B50000FC2C00003D
:104D500051ED876450840010694D0010F0870010F9
:104D6000608800102488001007B56046002800D134
:104D700000BE01880A0A0230DF2AFAD1C9B28208CD
:104D800004D3028840880004104300E00068024A0F
:104D90005050039007BD0000A85200200148042194
:104DA000014B1847D00C002053280010014B1B6802
:104DB00018470000D00C0020014B5B68184700002A
:104DC000D00C002010B50300080011001B689847A4
:104DD00010BD0000F8B507000D001600437D002B44
:104DE00002D0002400200CE003681100280098473E
:104DF0002DE03B7D10E0022115483B689847601C80
:104E00000134B44214DA002CF3DD2B19013B1B787A
:104E10000D3B5A425341DBB22A5D0A2AF0D1002BE6
:104E2000EED1A042E7DA211A28183B689847E2E75A
:104E3000B04203DA311A28183B689847002E06DD85
:104E4000AD19013D2B780D3B5A4253413B75F8BDDE
:104E5000F488001070B505000368002B16D00C4BC9
:104E60001C6805E0290004C92000FFF7B3FF24698E
:104E7000002C09D02368002BF9D0064B1B68002BAF
:104E8000F0D0A342F3D1EDE700232B6070BDC04604
:104E9000744C00207C4C002070B505000C000B68A1
:104EA000802B05D021684B1C23606418257170BDD0
:104EB0000800FFF7CFFFF5E710B5FCF7BFFA0200D7
:104EC0000B1E0BDB0D48002112184B41002B0BDB96
:104ED000002B0DDB0A4802F017FB10BD094B0A4AF4
:104EE0003F210A48FDF77CFE01225242084BEFE7C2
:104EF000044B054A3F210548FDF772FE40420F0072
:104F0000280D002024760010DC8800104076001068
:104F1000FFFFFF7F10B5024802F0C6FA10BDC04681
:104F2000280D0020F0B5CE46474680B583B0060078
:104F30000D0090461C00FFF7BFFF81466B1C05D09B
:104F4000002C08D0194F1A4B1C6807E0300002F003
:104F500073FA0500F4E7174FF5E72469002C17D022
:104F60002368002BF9D0144B1B68002B01D0A342FF
:104F7000F3D12A0031002000B8474346002BECD083
:104F80006B46D91D0A230B7001222000B847E4E7C5
:104F90004B46002B07D16B1E9D41E8B203B0C0BC4D
:104FA000B946B046F0BDFFF7B5FFF4E7C54D0010B8
:104FB000744C0020D54D00107C4C0020094A01E0C3
:104FC00010331A001368002B08D08342F8D100294F
:104FD00007D1036913600023036102E0002900D0B8
:104FE00010607047744C002010B5064B1C6801E03F
:104FF00098472469002C03D06368002BF8D1F8E7A8
:1050000010BDC046744C002070B5050002F014FAC3
:1050100004000023012201002800FFF783FFFFF7AF
:10502000E3FF200070BD000070B5A2B004000E00C8
:10503000FFF742FF0500002301933300220001A97E
:105040000848FEF721FF040001A8FFF703FFFFF760
:10505000CBFF002D02D1200022B070BDFFF75AFF18
:10506000F9E7C046994E00100FB400B583B004A90B
:1050700001C90191FFF7D8FF03B008BC04B018477D
:10508000F0B583B005000E0000240FE06B46D91D7B
:105090000D230B700020002816D193699B06FCD4C9
:1050A0000B78136001300131F5E70134B44219DAAD
:1050B0000D4B1A682F5D0D4BD31859424B415B00C5
:1050C0000B495B5EBB42E1D06B46D91D0F700020DF
:1050D0000028EAD193699B06FCD40B781360013059
:1050E0000131F5E703B0F0BDC45300200080FCBFE0
:1050F000BC530020F0B583B006000F00002504E08B
:105100006B4607331B782B702500BD4215DA174B11
:105110001A6893691024210019401C420DD16C1C9F
:1051200075196B46D81D0029EAD19369DB06FCD4BA
:105130001368037001310130F5E70D4B1B68002B3C
:105140000CD00A4B1A685023936311003431536B0F
:1051500038221A4080235B010B431A60002D02D0D5
:10516000280003B0F0BD033DFAE7C046C453002059
:10517000FC4A002010B5064B1B68002B06D0054AE0
:10518000126800219163044A1068984710BDC04618
:10519000FC4A0020C4530020004B002070B50400DE
:1051A0000E001C4B1B681C4A981842425041143098
:1051B0000500002C03D0194A1268002A06D0002CE2
:1051C00019D0164B1C60164B1E6070BD1549FCF7BC
:1051D00069FB01212800FCF755FB0E4B1A68502390
:1051E000936311003431536B38221A4080235B01E2
:1051F0000B431A60E5E7094A1268002AE1D0002251
:105200009A6300212800FCF73DFB06492800FCF7C3
:105210008DFCD6E7C45300200080FCBFFC4A002070
:10522000004B00207551001070B50D001C000D4B97
:105230001860002A0BDA002C0EDA0A4B18682900D5
:10524000FDF794FA01210848FFF7B8FE70BD02216E
:105250001000FDF729F9EEE702212000FDF724F9FF
:10526000EBE7C046C4530020E00C002010B5024814
:10527000FDF7BCFA10BDC0469C50002002007F2004
:105280001040D209400080184001014BC0187047FF
:10529000804C002010B5038B3F333F2293430229FB
:1052A00015D0124C2268C260D31823609C0610D11E
:1052B0000F4C6240634080246401A3420FD88906EA
:1052C000114380231B0619434368196010BD5B001E
:1052D000E7E7084B084A54210848FDF781FC084BD2
:1052E000054A56210548FDF77BFCC0468450002046
:1052F00000001050F8880010088A0010288900105B
:1053000074890010F8B505000E001400FFF7B6FF11
:105310007F232B40EF0985707A427A414270002248
:10532000C2700683C476012F0DD0DA0012498C4674
:1053300062448260826800211160002B09D14360C1
:105340000E4BC360F8BDDA000D498C4662448260A2
:10535000F0E7012F09D0013BDB000A4A9446634481
:1053600043602100FFF796FFECE7013BDB00064AB4
:10537000944663444360F4E78400105000011050E9
:10538000800010500C0010500800105070B50C0038
:105390001500FFF773FF2A00210000F00DF970BD22
:1053A00010B5002804D101210520FCF76BFA10BDCF
:1053B000D521034B034A49000348FDF711FCC046C1
:1053C000BC890010F88900102889001010B5002849
:1053D00005D1002200218020FFF7D8FF10BDDB217E
:1053E000024B034A49000348FDF7FAFBBC89001051
:1053F000E889001028890010024B80225202DA64EA
:105400007047C0460020115070B5041E26D100F030
:10541000ADF8164D0C23AB67FF2215490520FCF7AC
:105420006BFA402200211348FFF7C0FC0022402104
:105430000020FFF767FF002240218020FFF762FF76
:1054400002F08AF801232B6480239B05EB649023F0
:10545000094AEA502000FFF7CFFF70BD8621074BB5
:10546000074AFF310748FDF7BBFBC046000011505B
:10547000F9040020804C002010D00100BC890010ED
:105480001C8A0010288900100B785B0602D14B782B
:10549000052B00D070478A78014B1A60FAE7C046A6
:1054A0000000115010B50C0000280DD10979637966
:1054B0001B020B435B05590DE2789207920FA0780F
:1054C000FFF720FF012010BDFC21034B034AFF31F1
:1054D0000348FDF785FBC046BC890010D889001041
:1054E0002889001010B502F037F810BD10B504007F
:1054F000080011001A00002C03D1FFF747FF01201C
:1055000010BD034B034A04490448FDF769FBC0463C
:10551000BC890010C88900100A0200002889001008
:1055200010B508004B0605D1CB09012B0AD0022289
:10553000054B9A66FFF7A2FE80221201002102F0BD
:1055400003F810BD0122F3E70020115010B5080048
:105550004B0600D110BDFFF791FE0023C37000225F
:10556000014901F0F1FFF5E7FFF7FFFF10B58023D8
:105570005B040C4A13600C4A13600C4B9A6880233E
:105580005B049343F9D10A4C9C2200212000FFF7D1
:105590000DFC8022520100210648FFF707FC092379
:1055A000636710BD00E0004000F0004000C0004014
:1055B000000011500000105070B504000D001600DE
:1055C000837E002B17D1A6820023E3820133A376CA
:1055D0002561200001F090FF002804D0094A9023A3
:1055E00080218902D150200001F0A6FF002805D0BB
:1055F0000123237770BD01F097FFE4E7200001F05D
:105600008BFFF7E70020115070B50500002414E06F
:1056100063001B19DA00194B1B689B1806E0230076
:1056200017E05A00D218D200154B9B18002B12D04D
:105630005B68280098470134E4B2124B1B785A1C6F
:10564000A24209DB104A002AE9D0A342E0D8E31ABB
:10565000DBB2012BE5D970BD0C4C53220021200098
:10566000FFF7A4FBE01C1022FF21FFF79FFB2000A7
:1056700013302022FF21FFF799FBECE7641600208E
:10568000A48B0010CE530020000000008C470020A7
:1056900010B5FFF7B9FF00F0F1FD10BD70B50500C2
:1056A0000C001600C86800F0F3FDE3683200012129
:1056B0002800984770BD0000F0B5DE464F464646CC
:1056C000C0B584B001900139C8B2FBF72FF90028AA
:1056D00000D196E04678022E00D094E0C5796A1198
:1056E000012350491A4014010A781027BA43224373
:1056F0000A70AD112B405B01D2B22024A2431343A8
:105700000B70070009378278C47824021443041907
:10571000A7426FD27B780B2B0AD001239B467B7864
:10572000042B00D076E0E31B9BB29946002523E0D2
:10573000FB789B463B78FF18F1E76B005B19DB00B9
:10574000394A12689046984407E02B0021E05A003D
:10575000D318DB00354A904698444346002B5BD073
:105760004A46390001989B6898470390082801D958
:10577000814512D20135EDB22D4B1B785A1C029592
:10578000AA422FDB2B4A002ADFD0AB42D5D8EB1A36
:10579000DBB2012BDBD9002036E05B46012B10D0B9
:1057A00000218B4514D9BB785B18DBB21D4AD21897
:1057B000D278FF2A32D11B4AD318DD700131C9B229
:1057C000EFE743469A681C4B9A42E9D1B346E7E7B4
:1057D00014482B00039D2A003900133001F07CFA95
:1057E000AC466744124B1B780133029A9A428FDD14
:1057F000002009E0114B002B12D0FBF741F80120EB
:1058000002E0002000E0002004B0E0BCBB46B1464E
:10581000A846F0BD0020F7E70020F5E70020F3E7F9
:105820000120F1E78C47002064160020A48B0010B3
:10583000CE53002000000000956500108108001084
:1058400070B505000C00CB7888780F2B50D89A00E3
:105850002E498A589746FBF765F80200122321006B
:10586000280000F0D1FC44E0294B002B42D0FBF78C
:1058700061F8021E40D08178C3781B020B432100DF
:10588000280000F0C1FC34E0022B09D0214B002B92
:1058900034D000E000BF0200002A05D1002028E03B
:1058A000FBF744F80200F7E79178D3781B020B432B
:1058B0002100280000F0A8FC1BE02379617909028F
:1058C0001943FBF73BF8021E1AD003782100280089
:1058D00000F09AFC0DE0104B002B13D000E000BF4D
:1058E000021E11D003782100280000F08DFC00E09A
:1058F000002070BD0020FCE70020FAE70020F8E758
:105900000020F6E70020F4E70020F2E7188B0010F3
:10591000350900100000000000000000024B58781C
:10592000431E9841C0B270478C470020024B187844
:105930004007C00F7047C0468C470020034B1878C3
:10594000FF38431E9841C0B27047C0461C0D00206E
:1059500070B50400FFF7F2FF061E01D0300070BDE5
:10596000532200212448FFF721FA244D2800FCF798
:1059700041FA234B1D60234D28001430FCF760FAD8
:10598000280001F0FEFC204B1D60204B002B04D0B2
:105990001F4800E000BF1F4B186000250BE06B00A4
:1059A0005B19DA001B4B1B689B18002BD6D01B68B9
:1059B00098470135EDB2164B1B785A1CAA4210DBF2
:1059C000124A002A0BD0AB42E9D8EB1ADBB2012B0A
:1059D000C4D85A00D218D2000F4B9B18E5E72B0011
:1059E000F5E70E4B1C702000FFF70EFD2000FFF7BF
:1059F000D7FC0126B2E7C0468C4700204447002070
:105A0000E0470020000D0020E447002000000000D7
:105A1000CE53002064160020A48B00101C0D002023
:105A200070B50C00094B1D788B7870221A4201D09A
:105A3000002070BD064B9978200001F011F9002874
:105A4000F7D021002800FFF72DFDF2E71C0D002004
:105A50008C470020F8B5CE46474680B581460C00FD
:105A600017001E00089B9846002504E0099A137051
:105A70002378E4180135AF4214DD6378052B16D185
:105A8000E1788907890FB14213D121004846FFF719
:105A9000C7FF002807D0A378DA09012AE6D04246DA
:105AA0001370E5E70120C0BCB946B046F8BD002040
:105AB000F9E70020F7E7000010B57F200840C9098A
:105AC000400040183030044908180330034B19686F
:105AD00001F07FF810BDC0468C470020E047002051
