:020000041000EA
:1000000000B5324B212058609868022188439860DF
:10001000D860186158612E4B002199600221596106
:100020000121F02299502B49196001219960352056
:1000300000F044F80222904214D00621196600F024
:1000400034F8196E01211966002018661A6600F04E
:100050002CF8196E196E196E052000F02FF8012189
:100060000842F9D1002199601B49196000215960AB
:100070001A491B48016001219960EB211966A021F2
:10008000196600F012F800219960164914480160C1
:100090000121996001BC002800D000471248134993
:1000A000086003C880F30888084703B5996A0420EC
:1000B0000142FBD001200142F8D103BD02B5186610
:1000C0001866FFF7F2FF186E186E02BD00000240BE
:1000D000000000180000070000035F00212200005C
:1000E000F4000018222000A00001001008ED00E03C
:1000F00000000000000000000000000074B24E7A12
:1001000000200420F7010010C3010010C5010010F9
:10011000C1010010C1010010C1010010C101001097
:10012000C1010010C1010010C1010010290600101A
:10013000C1010010C1010010410600108506001029
:10014000CD010010CD010010CD010010CD01001037
:10015000CD010010CD010010CD010010CD01001027
:10016000CD010010CD010010CD010010CD01001017
:10017000CD010010CD010010CD010010CD01001007
:10018000CD010010CD010010CD010010CD010010F7
:10019000CD010010CD010010CD010010CD010010E7
:1001A000CD010010CD010010CD010010CD010010D7
:1001B000CD010010CD010010CD010010CD010010C7
:1001C00000BE00BE00BE00BE00BE00BEEFF3058054
:1001D000103800BEF2EB8871907A0010B47A0010EB
:1001E0003402001090A31AE700201F49086006C8D7
:1001F00081F3088810471D48006800282FD10DA4FE
:100200000ECC002902D000F012F8F9E71849194A7B
:10021000002000E001C19142FCD1174988471749ED
:1002200088471749884700BEFDE701C901C29A42C5
:10023000FBD37047B47A0010C0000020380E0020B5
:100240002C88001000000420000004202C880010DE
:10025000001004200010042000000000704709482E
:1002600002F019FB0047000008ED00E0000000D09C
:10027000380E0020F8540020352900109D0400108D
:10028000F12800105756000006005250ABB36053DF
:10029000CC77001006005250861C0302DC77001059
:1002A000060052505422A29DEC77001005005250D7
:1002B000DE65F4682C880010F8B5C04610B5064C11
:1002C0002378002B07D1054B002B02D0044800E017
:1002D00000BF0123237010BD380F00200000000074
:1002E00068660010044B10B5002B03D00349044886
:1002F00000E000BF10BDC046000000003C0F002021
:100300006866001010B5192002F018F9D0242406F0
:1003100080239B0463626361182002F00FF980233D
:100320005B046362A361012002F008F90223A36267
:1003300010BD000010B5E1214902064802F048FA5C
:100340000221102002F0E2F80221112002F0DEF872
:1003500010BDC0460040034010B5030B0918013919
:10036000090BC91A013118030903EFF3108472B69F
:1003700006F042F984F3108810BD0000F0B5C646BF
:1003800000B505000E00FF231C000440034201D10C
:10039000134206D0104804F067FC012080BCB84628
:1003A000F0BDEFF3108872B6170006F015F988F368
:1003B0001088A7420ED9611980235B05CB181A78E3
:1003C000335D9A4201D10134F3E7044804F07CFC28
:1003D0000220E3E70020E1E768660010A466001051
:1003E00010B50B008021890388420BD2002A0BD064
:1003F000002B0BD0802149054118180004F00CFB9C
:10040000002000E0012010BD0120FCE70120FAE7F8
:1004100070B580256D008024640329002000FFF75B
:100420009BFF2A0004492000FFF7A8FF2A00034988
:100430002000FFF7D5FF70BDD84C0020540F0020DE
:10044000002302E0024AD3540133FF2BFADD704748
:10045000D84C00200FB410B582B004AB04CB01938C
:1004600080210C4C0901200003F08CFB00212200AC
:1004700008E0094B9B699B06FBD41478064B1C6073
:10048000013101328842F4D802B010BC08BC04B07B
:100490001847C046541000200040034010B506F035
:1004A00031F800F093F8FFF72DFFFFF743FF00202E
:1004B00004F0A6FEFFF7C4FFFFF7AAFF0BE0074B0F
:1004C000195D0748FFF7C6FF0134FF2CF7DDFA205E
:1004D000800000F031FF0024F7E7C046540F0020F1
:1004E000CC660010F0B583B005001400012951D18D
:1004F00013785B069B0F012B26D0022B4DD153782E
:10050000012B03D0022B07D0002044E03223244AE1
:10051000210004F0E3FF3EE0117953791B020B4305
:10052000072B01D0002036E06B469F1D1D4E022296
:100530003100380004F070FA3B883200083A21009C
:10054000280004F0CBFF26E05378222B01D00020B6
:1005500021E09178D3781B020B435A1E9341DBB202
:10056000114A13701378002B08D1104BFA22920015
:100570001A602100280004F095FF0CE00B4B0022CC
:100580001A601E320A49002005F0BAFA002005F070
:10059000D5FAEEE7012003B0F0BD0020FBE7C0462E
:1005A000F466001030670010F6540020280D00207B
:1005B000D4660010002904D0002A02D0014B024A60
:1005C0001A6070472C0D0020C409000010B582B0DD
:1005D000114B009301220121052001F08DFE0F4CEB
:1005E000200002F047F80223009304330C4A012153
:1005F000200001F0AFFF0B4C0094230000220121EA
:10060000052001F079FE009423000022002106203D
:1006100001F072FE02B010BD006CDC0200800240EE
:100620000007215F406BED077047EFF3108072B653
:10063000704780F310887047000000000000000041
:10064000EFF309800E4B1A6820381060F0C0444662
:100650004D4656465F46F0C008B572B600F0DAF86F
:1006600062B60CBC116808681030F0C8A046A946F4
:10067000B246BB4680F309882038F0C81847C04608
:100680003852002010B5FFF7D0FF040000F022F828
:10069000002803D0034B802252051A602000FFF788
:1006A000C8FF10BD04ED00E0084B1B681B68002B61
:1006B00004D1074B012252421A607047034B1B685A
:1006C000DB681A68024B1A60F7E7C0463C5200200C
:1006D000DC540020F8B5444B1B68002B7ED1434B03
:1006E0001E6801361E60002E0AD0414B1B68B342C3
:1006F00013D900203F4B1B68002B74D0012072E0FF
:100700003D4A11683D4B1868106019603C4A1368F7
:1007100001331360FFF7C8FFE7E7002033E0344BF5
:10072000012252421A60E5E7314B1A60E2E7D968CC
:1007300051603EE000219962116801391160DA6A66
:10074000304909688A4201D92E490A602E4994002D
:10075000A418A2008A1852689A609468DC606560E8
:100760009560DC6AA2001719BD004D195D61BD00DE
:100770006D580135BC006550DA6A244B1B68DB6A92
:100780009A4200D901201C4B1B681B68002BC6D065
:10079000194B1B68DB68DB685A689642C4D35A69F8
:1007A0009C68D968A1609C684C601D1D5168A94275
:1007B000BDD0002159611168013911609A6A002A7F
:1007C000BDD0DC69196AA160DC694C601900183180
:1007D00054688C42AED1196A5160ABE70C4A136879
:1007E000013313600020F8BDD4540020E8540020E9
:1007F000DC540020EC5400203C52002040520020E9
:10080000E0540020D85400204452002038520020E8
:10081000E454002010B51B4B1B68002B03D01A4B6F
:1008200001221A6010BD184B00221A60174B1B687A
:1008300000E0013B9A00D2189100154A8A58002A1C
:10084000F7D013489A0041184C6864684C60D2187D
:1008500091000831401884420BD09A00D2189100C0
:100860000B4A52185268D1680A4A1160074A13604D
:10087000D8E760689A00D2189100054A5218506073
:10088000EBE7C046D4540020EC540020D85400209C
:10089000445200203852002070B505000C000800BA
:1008A00000F0FEFE0949200000F03EFE00F08AFF45
:1008B000074B9C466044800068602C75D0231B0663
:1008C0001B786B75A400034BE55070BDDD0B001069
:1008D00040000034285200200A4B1A68EFF31081C0
:1008E00072B61368002BFCD0BFF35F8F054B1B68FB
:1008F000BFF35F8F00221A6081F3108840BF002091
:1009000000217047B454002010B5002922D003689C
:100910001B7B99421ED8174B9C4661440901836892
:100920009C4661440C684968002A19D003681B7B07
:100930009A4215D883680F488446624412019A1877
:1009400010685368020001208B4201D80ED00020AD
:10095000C0B210BD084B094A3C21094801F0CCFF48
:10096000054B064A3C21064801F0C6FFA242EFD8DB
:10097000EDE7C046FFFFFF0F20680010D06A0010AF
:10098000F067001010B500291ED0037B99421BD8D8
:100990004B005B18033B0468A4466344002919D04C
:1009A000002A1DD0914221D0002A25D0047BA242EA
:1009B00022D80468500080180338201881701978F4
:1009C00000291FD11A7010BD104B114A682111481F
:1009D00001F092FF104B114A6F310E4801F08CFF6D
:1009E0000F4B0E4A70210B4801F086FF0D4B0B4A4E
:1009F0007121084801F080FF044B054A6821054831
:100A000001F07AFF41701A70DDE7C04644680010BB
:100A10003C6B001060680010A0680010186B00109C
:100A2000AC680010B868001070B506000D00140026
:100A3000002914D0002A14D08068736898470028D1
:100A400006D0220029003000FFF79CFF280007E0B5
:100A50002A0021003000FFF795FF200000E0100081
:100A600070BD0800FCE70000F0B583B005000092FF
:100A700001930AAB1C780BAB1F78002C26D00368BF
:100A80005A7B944207D10123002B19D1002C3BD172
:100A9000200003B0F0BD002C0CD01A7B944209D882
:100AA0001A6863001B19033BD3189B78002BEBD00B
:100AB0000123E9E73E4B3F4A68213F4801F01CFF14
:100AC0003E4B3F4A67213F4801F016FF03689C7B7D
:100AD000002CDBD012D01A7B94420FD8620012197E
:100AE000033A19688C46624451789973002900D101
:100AF000D9730023937053701370C7E72C4B2D4AA2
:100B000068212D4801F0F8FE002C3AD02B681B7BA1
:100B10009C4236D82C4BE3181B01AA6894466344C8
:100B2000009A1A60019A5A60089A9A60099ADA60E3
:100B30002E68002C2BD030D0337B9C422DD8630004
:100B40001B19033B32689446634400229A705A7022
:100B50001A70717B22003000FFF766FF70738442C9
:100B600000D095E7287D009A019B00F025FD061E28
:100B700001D0002F17D00C9B002B00D188E71E70EE
:100B800086E7124B124A3C210E4801F0B5FE114B8C
:100B9000114AA521084801F0AFFE054B054A68211E
:100BA000054801F0A9FE2868210001F029FBE2E7D1
:100BB000446800103C6B001060680010D0680010A2
:100BC000486B0010F0670010FFFFFF0F2068001057
:100BD000D06A0010EC6700102C6B0010F0B5DE46F8
:100BE00057464E464546E0B58BB009900023089322
:100BF0008200B54BD658370052E0B44BB44A3F217F
:100C0000B44801F079FEB44BB44A3C21B44801F039
:100C100073FE002901D1002869D10021404601F06E
:100C2000E5FAA04219D12A686B6806920793AB686F
:100C30009846EB689A464346002B14D0002C18D0F7
:100C40003B681B7B9C4214D8631EFA68D35C0893F4
:100C50001B0218433861002015E0A24BA24A8E21E6
:100C60009F4801F049FEA14B9F4A92219C4801F008
:100C700043FE994B9E4A4121994801F03DFE0023D5
:100C80009A46984600207B68BFF35F8F00221A6067
:100C900086F310884346002B32D1002800D10CE1A6
:100CA00000F0FEFB02000B1EA7DB002000210690D7
:100CB00007917868EFF3108672B601680029FCD0BE
:100CC000BFF35F8F396888464C7B002CD7D09AD011
:100CD000097B8C4297D8874965182D01B9688C46E5
:100CE000654428686968801A9941002991DD2A685D
:100CF0006B68099800F060FC00239A469846C2E7AA
:100D0000089B1B022343994651461800C047050023
:100D10000E007A68EFF3108B72B6136859424B419C
:100D2000D9B2002BF9D1BFF35F8F002E1EDB002E4E
:100D300046DD3B69002B47D04B456DD100F0B0FB41
:100D400002000B1E6EDB52197341002B70DB002B6F
:100D500072DB00210491013103910294514601910B
:100D6000414600913800FFF77FFE4CE03B69002BC5
:100D7000DDD04B4514D1069A079B521BB341002B83
:100D800014DB002B16DB0021049101310391029446
:100D900051460191414600913800FFF765FE32E06F
:100DA000554B514AA1214E4801F0A6FD0122524265
:100DB000524BE6E7454B464A3F21464801F09CFD31
:100DC000002E01D1002DB4D13B68002C50D05A7BAD
:100DD000944237D1012100294AD1DA7B002A4DD132
:100DE0009A7B002A03D1DA7B002A5AD19C73DC73E8
:100DF000002C5CD03B681B7B9C4258D8FA68013CB5
:100E0000135D0133135500233B617A68BFF35F8F95
:100E100013608BF3108843E7374B334AA4213048E3
:100E200001F06AFD294B2A4A3F212A4801F064FD5E
:100E300001225242314B8AE7244B254A3F21254863
:100E400001F05AFD002C0DD01A7B94420AD86200A2
:100E50001219033A1868844662449278002ABAD07C
:100E60000121B8E7264B274A6821274801F044FDB5
:100E7000264B274AF621244801F03EFD002A0AD0DD
:100E8000197B8A4207D851008A18033A19688C46A0
:100E900062445470A4E71A4B1A4A68211A4801F0B8
:100EA0002BFD1C4B1A4AFB21174801F025FD0A4B6C
:100EB0000F4A41210A4801F01FFD0BB0F0BCBB46B0
:100EC000B246A946A046F0BD28520020F86800109E
:100ED0009C6A00101469001020680010D06A00108D
:100EE000F067001050690010B46A001068690010C3
:100EF000F46A0010FFFFFF0F74690010FFFFFF7F0F
:100F0000446800103C6B001060680010B06900106D
:100F1000086B0010D469001010B50C4B5B68002BF7
:100F200004D00A210A4800F08FFF10BD074C2300AF
:100F3000084A1021206801F069F8032000F0A4FAA3
:100F400003212000FFF7A8FCEBE7C046300D00208E
:100F5000B45400200909001010B5064B5B68002B43
:100F600001D0044810BD044B044A5E21044801F03E
:100F7000C3FCC046300D0020E8690010DC6A001098
:100F8000F0670010F0B5DE4657464E464546E0B5E0
:100F90008BB0804616001F00149B9A46159B9946FD
:100FA00016AB1B789B461F2302AA9446634400227B
:100FB0001A702BE0002809D042461268127B90423A
:100FC00004D8421E4146C9688A5C41E0404B414A10
:100FD0004121414801F090FC07984CE0361BAF419D
:100FE000002F07DB002F11DA3C4B3D4A3F213D48E3
:100FF00001F082FC012676423B4FF3E7374B384A3B
:101000003F21384801F078FC002F4FDB43465A68F7
:10101000EFF3108472B6136859424B41D9B207916D
:10102000002BF8D1BFF35F8F1F3302AA94466344AD
:1010300004930023039302934B460193534600937A
:1010400032003B004046FFF70FFD031EB2D1020005
:1010500041464968BFF35F8F00250D6084F3108817
:10106000002B29D01F2302A98C4663441B78002B38
:10107000B2D112021043002B20D05B46002B1DD0B2
:101080004946D04704000D0003000B431DD0002942
:10109000A4DB00F005FA06000F1EAFDB36196F4126
:1010A000002FB1DA012676420F4FADE70B4B0C4A09
:1010B0003F210C4801F020FC012040420BB0F0BC65
:1010C000BB46B246A946A046F0BD0798F6E7C04623
:1010D00020680010F46A0010F0670010F868001033
:1010E0009C6A001014690010FFFFFF7FF8B5040030
:1010F000002900D162E04268EFF3108572B61368F0
:1011000058424341D8B2002BF9D1BFF35F8FCBB225
:101110002268567BB3421BD10120002848D02069A9
:1011200088422BD0090AC9B2002B2ED02068007B40
:1011300083422AD8581EE668305C88422BD00020B3
:101140006368BFF35F8F00221A6085F31088F8BDD3
:10115000002B0DD0167BB3420AD85E00F618033E72
:101160001768BC466644B678002ED6D00120D4E776
:10117000134B144A6821144801F0BEFB2C21134B79
:10118000134AFF31134801F0B7FB134B134A4121B7
:10119000104801F0B1FB1900100001F031F80028EF
:1011A000CED199210E4B0A4A49000A4801F0A4FB0E
:1011B00023698B42C4D100232361C1E70020C6E725
:1011C000446800103C6B0010606800100C6A00104E
:1011D000846A0010F067001020680010F46A0010A4
:1011E000306A0010F0B587B006000F00EFF30583FA
:1011F000002B1FD106246442E517A4197D418D42BE
:1012000002D803D1844201D900240025002D14DB2B
:101210000494059500F044F902000B1E13DBA41A98
:101220009D41002D17DC14D03000390000F044F946
:1012300007B0F0BD234801F0F9FB234B234A3F21BF
:10124000234801F059FB204B204A3F21204801F060
:1012500053FB002CE8D0FFF77FFE0023029301939D
:101260001C4B0093049A059BFFF78CFE002818DAAC
:10127000DAE7002300E00023002BD5D1164B1A68D3
:10128000EFF3108172B61368002BFCD0BFF35F8FB1
:10129000114B1B68BFF35F8F00221A6081F3108827
:1012A00020BF0499059A0D4B5B6A9A42E3D80B481C
:1012B000806A884203D29A42DBD00123DCE7012313
:1012C000DAE7C046346A0010F86800109C6A001023
:1012D00014690010D9080010B454002000400540E3
:1012E00070B504000D0000F0DBF802000B1E0ADBF5
:1012F000200029008018594100290ADB00290CDB55
:10130000FFF770FF70BD084B084A3F21084801F005
:10131000F3FA012040420749F0E7034B034A3F211B
:10132000034801F0E9FAC046F86800109C6A001012
:1013300014690010FFFFFF7F10B5FA22920000230E
:10134000002103F0A9FAFFF7CBFF10BD70B584B000
:1013500005000C00EFF30583002B1ED1FFF7FCFD09
:10136000002302930193224B00932A002300FFF7EE
:1013700009FE061E23DD20BFFFF7EEFD3100FFF75B
:10138000B5FE1C4B5B6A9C422DD81A4A926AAA424F
:101390002CD29C4225D0012026E0164B5B6A994254
:1013A00009D8144A926A824207D2994201D0012098
:1013B0001AE0002018E0002016E0012014E00D4B98
:1013C0005B6A9C4209D80B4A926AAA4207D29C42A5
:1013D00001D0012008E0002006E0002004E0012008
:1013E00002E0002000E0002004B070BD0120FBE717
:1013F000D90800100040054070B5EFF305801038A3
:10140000EFF3108C72B61A4B1B68002BFBD0BFF3A6
:101410005F8F01221300834016494B6316490B600E
:10142000164909780C00C440224214D0114A546A6B
:101430008200134D5259944206D38200114C125926
:1014400099430E4B197007E00A4A031D9B009958F7
:101450009950002200E00022BFF35F8F044B00216F
:1014600019608CF31088002A00D0904770BDC046E8
:10147000280100D0004005403C700540F554002094
:10148000B8540020944B002010B50100024A0348D4
:1014900000F046F910BDC046606B0010F354002008
:1014A000044B5B6A034A906A1900536A9942F9D166
:1014B0007047C04600400540084B5B6A01E0074B9F
:1014C0005B6A8B42FBD301E0044B5B6A8B4203D126
:1014D000024B9B6A8342F7D37047C04600400540E9
:1014E00070B504000D00FFF7DBFF02000B002000C9
:1014F0002900801859418B4202D804D1824202D976
:1015000001204042C117002902DBFFF7D5FF70BD63
:10151000024B034A3F21034801F0EEF9F86800103E
:10152000FC6B00101469001070B504000D00EFF39F
:10153000108672B61B4B1B68002BFBD0BFF35F8F6E
:10154000002D1CD0200000F0D7F9174B83420BD0A0
:101550001900200000F0D8F90121200000F0C4F9A2
:101560000123A340114A1360A400114BE550BFF3BF
:101570005F8F0C4B00221A6086F3108870BDA200AA
:101580000B4B0021D1500122A2400A490B78934312
:101590000B700549200000F0FBFA0021200000F04C
:1015A000A3F9E4E7280100D0F913001038600540E2
:1015B000944B0020F5540020F0B5DE4600B584B011
:1015C0000400150001921E000293FFF769FF0395C6
:1015D0008E4202D84ED185424CD9EFF3108B72B6B1
:1015E000274B1B68002BFBD0BFF35F8F254A177872
:1015F0000125A540EBB23B431370234B5D63221DD5
:1016000092000199D150A2002049029850501B6AC3
:101610002B4212D11C4B1B6C2B4208D00020BFF375
:101620005F8F174B00221A608BF3108823E0184B52
:10163000184AC521184801F05FF9FFF731FF8E42C3
:1016400014D802D1039B834210D80E4B1B78BB42A7
:101650000ED00D4B1D625D631F2004400123A3408B
:101660000E4A1360074B1F701E38D8E70020D6E7DC
:101670000120D4E7012004B080BCBB46F0BDC046C9
:10168000280100D0F554002000400540B854002047
:10169000846B0010E06B0010A86B001080E200E08B
:1016A000EFF3108C72B60B4B1B68002BFBD0BFF313
:1016B0005F8F01238340084A136208490A789A43DE
:1016C0000A70BFF35F8F034B00221A608CF31088FF
:1016D0007047C046280100D000400540F554002066
:1016E000034B1B6802201840431E9841C0B270474C
:1016F00000C00640EFF3108072B6034B1B68002B4E
:10170000FBD0BFF35F8F70472C0100D0BFF35F8F1A
:10171000024B00221A6080F3108870472C0100D021
:10172000F8B506000C001500FFF7E4FFE308F71812
:10173000F15C07222240012393400B4205D1DBB22A
:101740000B433B70FFF7E2FFF8BD2100280001F0DA
:101750006DF9F0B583B00600019114001F00FFF78A
:10176000C9FF00E00134BC420CD8E308F518F35C73
:101770000721214001228A401A42F3D1D2B21A43F2
:101780002A7001E001246442FFF7C0FF002C02DB55
:10179000200003B0F0BD019B002BF9D0089801F0A8
:1017A00045F90000002307E0054A9A189200BFF3AC
:1017B0005F8F0021116001331F2BF5D97047C046A0
:1017C00040000034054A1078431CDBB21370172B1D
:1017D00002D9130010221A707047C046580D00201D
:1017E00000B583B00100044B00931F231822034867
:1017F000FFF7AFFF03B000BD146C0010AC4C00202D
:10180000074B9B68103080001950BFF35F8FBFF308
:101810005F8F044B0021196082F310887047C04627
:1018200000ED00E0240100D010B5091A081F0A4B92
:101830009C466144094A914208D8C30706D4401027
:101840004005400D064B184380B210BD054B064ABB
:10185000A321064801F050F8FC070000FE0F00002D
:1018600000E0FFFF306C0010786E0010606C00101C
:1018700010B5091A04394C08090B08D14905490D5E
:10188000064A11430180064B2343438010BD054B9C
:10189000054AAB21054801F02FF8C04600F0FFFFD4
:1018A00000F8FFFF946C00104C6E0010606C00108C
:1018B00001238340034A10681840431E9841C0B278
:1018C0007047C04600E100E0002904D0034B1860D7
:1018D000034B18607047034B1860FBE780E200E0A1
:1018E00000E100E080E100E010B501238340180032
:1018F000FFF7EAFF10BD0000024B9B68103080002C
:10190000C058704700ED00E070B504000D00EFF323
:10191000108672B60C4B1B68002BFBD0BFF35F8F99
:101920002000FFF7E9FF094B984201D0A84205D1FA
:10193000320029002000FFF763FF70BD044B054A09
:101940008621054800F0D8FF240100D0CD01001009
:10195000A46C0010AC6E0010606C0010F0B5DE4698
:1019600057464E464546E0B589B08146019115007F
:10197000EFF3108A72B6744B1B68002BFBD0BFF3D9
:101980005F8F724B0027DF57002F40DB7C00E4198C
:10199000A4006F4824180622A2566C4B1A706D4B97
:1019A0009A684B4610339B00D35898461E001B1A6A
:1019B0002F2B38D9684B98452FD105AE674B338014
:1019C0007B009B46D8198000614B9846404402300A
:1019D0006349FFF729FF7080624BB380FF23B37127
:1019E000F571019B07935F44BF0047440ECE0EC7BD
:1019F00001231C43A046524641464846FFF700FFDC
:101A000009B0F0BCBB46B246A946A046F0BD564B55
:101A1000564AD721564800F06FFF564B534ADE21F5
:101A2000534800F069FFC04340440C2102F0F8F82D
:101A3000002912D101239E43B34633000026DA79F0
:101A4000AA4211D90621595600290CDB4A00521826
:101A500092001E003E4B9B18F1E7474B434AEA2198
:101A6000434800F049FF1E00002E3AD005AB434A20
:101A70001A80813A5A800623F3560293002B17DA14
:101A80003F4805AB9B469880029A9A71DD71019A96
:101A90000792301D2100FFF7C7FEB080B7717B00B1
:101AA000DB199B002A4FFF185B4607CB07C7A2E74D
:101AB0007800C0198000264BC0180430321DB3884E
:101AC000D90A1C2907D15B05591502314900511863
:101AD000FFF7AAFED5E72B4B2B4AB121244800F093
:101AE0000BFF05AE1D4B33807B000293D81980009D
:101AF000174A9046020042440392901C1849FFF78F
:101B000093FE7080039A101D5946FFF78DFEB0803A
:101B10001E4B5A464146521A524153431B0DB37154
:101B2000F571019A0792029B9C466744BF004744A7
:101B30000ECE0EC7114B5A461380813B53800123B2
:101B40001C43A04657E7C046240100D0F4540020AF
:101B50005C0D002000ED00E0CD01001000A1FFFFB2
:101B60008C0D002001BDFFFFDC6C0010946E001096
:101B7000606C0010046D00102C6D00100148000016
:101B800001BD0000A06D0010846E0010AAAA000024
:101B9000F0B5CE46474680B583B006000D00EFF3A2
:101BA000108872B6564B1B68002BFBD0BFF35F8FBB
:101BB000544B9A6834001034A300D758524B9F42BC
:101BC00007D0AF4200D198E00197504BFB1A2F2B62
:101BD00009D9424639003000FFF712FE03B0C0BCFD
:101BE000B946B046F0BD3000FFF762FE81460021E5
:101BF0003000FFF779FEBFF35F8FEFF30581002917
:101C000001D08C4211D10123019C9C430022A36886
:101C1000AB4212D00622A256002A0DDB53009B18BD
:101C20009B002200394CE418F1E73621384B394A41
:101C3000FF31394800F060FE2200AB4256D1062544
:101C40006557002D38DB6B005B199A002F4B9B18F2
:101C50009A68A260DA79E27106229A56A2719B799B
:101C60005BB2002B0FDA2D48A0806B005B199B0044
:101C7000264AD3182A4A11789971157049463000BE
:101C8000FFF732FEA5E7201D6B005B199B001F4A82
:101C90009B181A1D9B88D90A1C2907D15B055B1567
:101CA000023359005118FFF7BFFDDDE71D4B1E4AF7
:101CB000B121194800F020FE002912D1002A0ED0CF
:101CC000FF239371194B9380154A1378A371184B16
:101CD0000E49641A644163431B0D1370CEE70A4F2B
:101CE000F2E7201D1349FFF7C3FDC7E76A21124B36
:101CF000084AFF31084800F0FFFD034F69E7C0467E
:101D0000240100D000ED00E0CD0100105C0D0020AA
:101D1000B86D0010646E0010606C001001BD000012
:101D2000F4540020A06D0010846E001001BDFFFF70
:101D3000AAAA0000960D0020EC6D001070B50121DC
:101D400001432E4BCB1A2F2B28D8EFF30583002B02
:101D50002BD0EFF3108C72B6294A1268002AFBD000
:101D6000BFF35F8F274A0400244D641B6441624324
:101D7000120D54B2244A92689B00D2588A421BD05A
:101D80000022032A32D853009B189B001B49CB1812
:101D90009B795BB2A3421FD00132F2E7C7211B4BF4
:101DA0001B4A49001B4800F0A7FD92211A4B184A14
:101DB000FF31184800F0A0FD134A92681749D1502E
:101DC000174B1A7882711C70BFF35F8F0C4B002287
:101DD0001A608CF3108870BD0D00530099188900AB
:101DE0006918FF268E710F4A8A80E9E7D1210E4BD0
:101DF000074A4900074800F07FFDC0465C0D0020FF
:101E0000240100D0AAAA000000ED00E0F46D00104B
:101E1000306E0010606C00101C6E0010CD010010C0
:101E2000F454002001BDFFFF286E00100022044B77
:101E300002E0044902C30132072AFAD97047C046BA
:101E400000E400E080808080024B9C466144890071
:101E5000016070474000003410B50400FFF7B2FC89
:101E600001002000FFF7F0FFFF232371BFF35F8F16
:101E700010BD10B50400FFF7A5FC01002000FFF71E
:101E8000E3FFFF23237100236371BFF35F8F10BD56
:101E9000034B9C46614489000160BFF35F8F70472C
:101EA0004000003410B504000120FFF799FC010048
:101EB0002000FFF7EDFF10BD10B500291ED0037BF9
:101EC00099421BD84B005B18033B0468A44663444B
:101ED000002919D0002A1DD0914221D0002A25D0F6
:101EE000047BA24222D804685000801803382018CE
:101EF0008170197800291FD11A7010BD104B114A3A
:101F00006821114800F0F8FC104B114A6F310E485F
:101F100000F0F2FC0F4B0E4A70210B4800F0ECFC75
:101F20000D4B0B4A7121084800F0E6FC044B054AB2
:101F30006821054800F0E0FC41701A70DDE7C046FA
:101F4000446800106C70001060680010A0680010F9
:101F500058700010AC680010B868001070B506002A
:101F60000D001400002914D0002A14D08068736872
:101F70009847002806D0220029003000FFF79CFF78
:101F8000280007E02A0021003000FFF795FF20001D
:101F900000E0100070BD0800FCE7000010B5002351
:101FA000437301338373037BC3730123027B9A4220
:101FB00014D9002B0CD0027B934209D85A00D218B6
:101FC000033A01688C4662440133DBB25370EDE79B
:101FD0000B4B0C4A68210C4800F08EFC002A09D0FB
:101FE000924207D8016853009A18033A8A180023CE
:101FF000537010BD024B034A6821034800F07CFC7B
:10200000446800106C7000106068001010B5017317
:1020100042608360FFF7C2FF10BD000070B504008E
:10202000081E00D170BD002934D0237B994231D8DD
:102030004B005B18033B2268944663445A78002A9D
:10204000F0D02DD0237B9A422AD853009B18033B13
:1020500021688C4663445D7800215970002825D0A2
:10206000237B984222D843001B18033B21688C46EF
:1020700063440021597001002000FFF76FFF060044
:1020800029002000FFF7CAFF020031002000FFF7FF
:1020900065FFC7E7084B094A6821094800F02CFC96
:1020A000054B064A6821064800F026FC024B034A0D
:1020B0006821034800F020FC446800106C70001098
:1020C0006068001070B505000C00160000292FD0C4
:1020D00034D0037B994231D84B005B18033B026834
:1020E000944663445A78002A2ED19A78002A31D136
:1020F0001978FFF793FF0300002E0AD0EA7B002A2D
:102100002ED1AA7B002A03D1EA7B002A3BD1AC73F3
:10211000EC73002B3DD1002C4FD02B7B9C424CD834
:102120002B6861000C19033C1C190023637070BDFF
:10213000254B264A3821264800F0DEFB254B264A4F
:102140006821264800F0D8FB254B204A3A21204838
:1021500000F0D2FB234B1D4A3B211D4800F0CCFB75
:10216000002A0AD0297B8A4207D851008A18033AEC
:1021700029688C4662445470C3E7164B164A68219E
:10218000164800F0B9FB184B104A4221104800F0E5
:10219000B3FB002B0BD02A7B934208D843001B18BB
:1021A000033B2A689446634400229A70B3E7094BC4
:1021B000094A6821094800F09FFB064B064A68213E
:1021C000064800F099FBC046886F0010447000106C
:1021D000906F0010446800106C7000106068001070
:1021E000C06F0010E86F0010D469001070B50400D3
:1021F0000A00457B2900FFF765FF6073280070BD6A
:1022000070B50400002967D0437B8B420ED00029B3
:1022100011D0037B99420ED84B005B18033B026838
:10222000D0188378002B0CD1002056E00121FFF755
:10223000DDFF012051E0294B294A6821294800F09F
:102240005BFB002B20D0227B93421DD85A00D31871
:10225000033B2268D2182568EB5C8B421AD0002B16
:102260001BD0227B934218D85A00D318033B226814
:10227000D21853788B4216D0002BF0D11A4B1B4A40
:102280006B211B4800F038FB144B154A6821154898
:1022900000F032FB4378137007E0104B104A6821BE
:1022A000104800F029FB437853700023837043707B
:1022B00001222000FFF706FF0200617B814205D06A
:1022C0002000FFF74BFE6073012006E0094B074A30
:1022D0007121074800F010FB002070BD4468001019
:1022E0006C70001060680010286E00102C700010D8
:1022F000906F00100C700010F8B5DE4657464E4641
:102300004546E0B505000F0092460A9A934250D325
:102310001A0E91461E020A9A00233000494601F027
:10232000BDFC80466C006419A400304B9C4664449C
:102330006368834200D260602B1FDBB29B46012B97
:102340003DD9C0239B012343802212011A60AB00B8
:10235000274A9958002907D0506901F061FC431CB5
:102360005800C0180338FDD253465A0123685A401A
:10237000E0231A4080235B0123431A605A46012A56
:1023800028D980239B012343802212011A604346EF
:102390006360424600233000494601F07FFCAD00F7
:1023A000134B58510120F0BCBB46B246A946A0468B
:1023B000F8BD104B104A3321104800F09DFA012F50
:1023C000BFD1C0239B01234303221A60A368DB070C
:1023D000FCD5C9E72168794003220A401A60A26847
:1023E0000123BB401342FAD0CBE7C0460080004037
:1023F000B04C002078700010C87000108C70001075
:1024000030B583B00C2000F039F9FFF769F90028E6
:102410000DD0002304E099002D4A2E488850013346
:10242000092BF8D92A4B2C4A5A6203B030BD2B4BEA
:1024300000229A6700F02AF9294B01221A60274BE3
:102440005B6C012BFBD1274B03221A60234B9B6B48
:10245000012BFBD1013300930433234A012123488C
:1024600000F078F805230093214A0121214800F06B
:1024700071F8214B0093002202210420FFF73CFF5A
:102480001E4D00952B00002201210520FFF734FF8F
:10249000104C00942300002200210720FFF72CFF9E
:1024A00000942300002200210820FFF725FF0A4B9B
:1024B00000932300002200210920FFF71DFF009553
:1024C0002B00002200210620FFF716FFADE7C046D3
:1024D000B04C0020006CDC021BB700000080004004
:1024E0003CB0004030B00040002F685900800240EE
:1024F000008C864700C00240001BB700405973079C
:102500008000014BC0587047B04C002010B58300CC
:10251000084A944663441C6840226240C024144028
:102520008022520113431C60C000034B9C46604450
:10253000416010BD04C001400040014010B50123BE
:102540008340D0221206936293610521FFF7DEFFDC
:1025500010BD0000F0B5C64600B504000E0017001F
:102560001D00374801F05CFB8046364BFA18364BAD
:102570009A4239D80100380001F052FB0200103AAB
:1025800098235B009A4235D86B1E062B38D8069BE1
:10259000013B062B34D83F09474537D32D04069B12
:1025A0001A0315432368002B36DB284B9C4244D08A
:1025B00080225201264B1A60264B1A60264B9B68DC
:1025C00011009943FAD12660A060231DC022920118
:1025D0001A43212313602368002BFCDAE5600823EB
:1025E000136080BCB846F0BD1C4B1D4A11211D482C
:1025F00000F082F91C4B1A4A19211A4800F07CF9A4
:102600001A4B174A1C21174800F076F9184B144A48
:102610002321144800F070F922683F231340B3428D
:10262000C3D1A3681B051B0D8342BED1E368EE2214
:10263000D2021340AB42B8D1D3E780229201B9E76E
:10264000001BB70080E84BD380F8A93200C00240DD
:1026500000E0004000F0004000C00040D8700010D2
:10266000F0710010387100106C710010887100104A
:10267000D47100102D2343607047000080239B001D
:102680000343014AD362704700800540064BAA22EB
:1026900012011A602F22DA60044B054A1A60024BBD
:1026A0005B68002BFBDA704700400240006002408C
:1026B00000B0FA0070B5046BE30701D4200070BDD0
:1026C00002003032C0239B0113430A4A1A60456A54
:1026D000826AAD01AD18AD020620FFF711FF064971
:1026E00001F09EFA0100280001F09AFA0021FEF79D
:1026F000F7FEE3E7010300004E0E000070B5040092
:102700000E001500FFF7D6FF22002C32E16A4E4082
:10271000354080235B0113431D60206370BD0000C2
:1027200070B505000C000620FFF7EAFEC00021008E
:1027300001F076FAC60908D00E4B9E4216D87F23C8
:10274000184001303400460800E001246C62AE629B
:10275000002200212800FFF7D1FF0620FFF7D0FE5E
:102760008000A101891901F05BFA70BD0026024CBE
:10277000ECE7C046FEFF0000FFFF000010B5053982
:102780004901013AD2001143002B09D002220A4329
:10279000012B07D0002111436E22FFF7AFFF10BDC0
:1027A0000022F4E70421F6E7002909D00A22064BAB
:1027B0009C466044434258414000044BC25270471B
:1027C00080225200F3E7C0460080FCBFC8540020BE
:1027D00070B505000C000620FFF792FE061E27D0FC
:1027E000164B9D4226D08022D203154B1A60154B02
:1027F0001A60154B9B6811009943FAD100212800FB
:10280000FFF7D2FF21002800FFF78AFF0600002310
:10281000012208212800FFF7B1FF2A002C32802373
:102820009B01134310221A60084B2B630323AB64F4
:10283000300070BD80221204D7E7C04600800340FC
:1028400000E0004000F0004000C000400103000034
:1028500070B588B0040004AD00260496092200215A
:1028600005A802F0D3F800960922002101A802F081
:10287000CDF84B232B700D226946280003F08CFE07
:10288000002304E05A1D69468A5CE2540133072B99
:10289000F8DD08B070BD10B5010018231B881422A4
:1028A0001088984710BD10B5010018231B88162208
:1028B0001088984710BDF0B5C64600B507000E0059
:1028C00000250123984600E00135B5420AD2AC004C
:1028D0003C192068FFF7DFFF20600028F4D10023B7
:1028E0009846F1E7404680BCB846F0BD00BEFDE723
:1028F00010B5FFF7FBFF000010B582B00C00190007
:10290000002A0CD0084B002A0BD001920093230020
:102910000200064802F0D8F90120FFF7E7FF044B58
:10292000F1E7034AF1E7C046847300109473001086
:102930009073001070B52B4B2B4A1A602B4B2C4A0E
:102940001A602C4B9A682A4B9343FAD12A4C01E027
:1029500008CC9847294B9C42FAD3FFF751FD234BF3
:10296000274A1A60234B9B68DB43DB01FAD1254BD6
:1029700040229A675A671A67DA66234C09E0234BAC
:10298000234A87212348FFF7B7FF2000FFF764FAA7
:102990000834214B9C4209D22368002BF5D0012B2F
:1029A000EDD12000FFF765FA0834F2E71B4CA1686F
:1029B0001B4DC022280002F02FF8A560EFF305831D
:1029C000002B00D000BEFEF7EDFEFFF72FFAFEF75A
:1029D000A3FA144C01E008CC9847134B9C42FAD35D
:1029E00070BDC04600E00040BFCDFBFE00F00040DF
:1029F000FE7F3C0000C00040200E0020300E002072
:102A0000FFFFFF0100F00140100E0020C473001012
:102A10002C740010E4730010200E002000ED00E084
:102A200000000020300E0020380E00200FB400B54A
:102A300083B0084802F018F9049B002B07D005A9C1
:102A40000191180002F020F9034802F00DF901206D
:102A5000FFF74CFF1C740010C86600109A4200D2A9
:102A600088547047704710B5002802D00B68496839
:102A7000984710BD0100002007E083001B185B0091
:102A8000501C08601078C01830380A681378303B42
:102A9000DBB2092BF1D97047F0B5DE4657464E46FA
:102AA0004546E0B583B093461F000C9B9A460D9CAB
:102AB0000E9B99460F9B9B0703D0B8460F0006005C
:102AC00022E00192A34688464E46B9460700B4422A
:102AD00007D2551C4B4641462020B84701342A00F6
:102AE000F5E73D004F465C46019B9B46B146464696
:102AF000B84637002E0007E0013C551C5346185DD0
:102B000043463900B0472A00002CF5D135003E007D
:102B100047460F9B9B0707D4100003B0F0BCBB4691
:102B2000B246A946A046F0BDB0464E46B9462F0073
:102B30005D46531BB342EFD2541C4B464146202006
:102B4000B8472200F5E7F0B5CE46474680B585B0D8
:102B5000944698460C9D0D9C0EAB1B789946109A96
:102B6000119B129EB7071CD4002B0CD0F7070AD577
:102B70004F46002F02D10C37374204D0013B02E010
:102B800030272F550134944201D21F2CF8D9F70772
:102B900007D59C4205D21F2C03D830272F5501346E
:102BA000F5E7F70615D5770505D4002C03D0944238
:102BB00024D09C4222D00F9A102A2BD00F9A102A90
:102BC00030D00F9A022A35D01F2C02D830222A5535
:102BD00001341F2C05D84A46002A31D02D222A550F
:102BE0000134039602930194009543466246FFF731
:102BF00053FF05B0C0BCB946B046F0BD621E012C03
:102C000006D00F9F102F01D01400D4E7023CD2E76A
:102C10001400D0E7B206D1D41F2CCFD878222A5581
:102C20000134D1E7B206CCD51F2CCAD858222A5578
:102C30000134C9E71F2CC7D860322A550134C3E7D5
:102C4000720703D52B222A550134CAE73207C8D5AB
:102C500020222A550134C4E7F0B5DE4657464E46D9
:102C60004546E0B593B081468A46089209931CAB6D
:102C700010CB1B789B461E9D219B9846002C03D1B0
:102C8000102342469A4390468023DB0046461E406E
:102C900042461A4212D0002C22D000260EE03033D9
:102CA000D9B2771C0AAB99552900200000F0B8FF73
:102CB000AC4216D31F2F14D83E0004002900200078
:102CC00000F0AEFFCBB2092BE9D94246920605D5FA
:102CD0004121C918C9B20A39C9B2E2E76121F8E74E
:102CE000270043460693209B05931F9B049303955F
:102CF0005B46029301970AAB0093099B089A5146E1
:102D00004846FFF720FF13B0F0BCBB46B246A946C9
:102D1000A046F0BDF0B5DE4657464E464546E0B506
:102D200095B0089009910A920B931E9E1F9C20ABB0
:102D30001B789B46229B9946239D269B9A463300EF
:102D4000234303D1103352469A4392468023DB003B
:102D500057461F4052461A4219D0330023432DD004
:102D6000002714E03033DAB27B1C98460CABDA55FE
:102D70004A462B003000210000F090FFA5421FD8EA
:102D800019D043461F2B1BD8474606000C004A4665
:102D90002B003000210000F081FFD3B2092BE1D9D4
:102DA0005246920605D54122D218D2B20A3AD2B280
:102DB000DAE76122F8E7B145E3D901E0002398465C
:102DC00053460693259B0593249B04934B460393FC
:102DD0005B460293434601930CAB00930B9B0A9A0C
:102DE00009990898FFF7AFFE15B0F0BCBB46B24694
:102DF000A946A046F0BD0000F0B5DE4657464E4657
:102E00004546E0B591B083468A460C9298461A9C96
:102E100008941B9D099522002B002000290001F039
:102E2000C8F9002800D0E5E001225242D74B20002B
:102E3000290001F0B9F9002800D0DBE0012252425C
:102E4000D34B2000290001F099F9002800D0D1E0EF
:102E500000220023089E3000099D290001F08EF910
:102E6000002800D0DDE0089809990690079180239A
:102E7000DB001E9A1A400D921E9A1A4201D10623B7
:102E80001C930698079904000D000A0006000243EF
:102E900000D1D1E0080D4005400DBE4CA446604471
:102EA0000A03120BBC4B13431F0001F095F9BB4AF8
:102EB000BB4B01F020F9BB4ABB4B01F0F5F8040015
:102EC0000D000022B94B3000390001F0E4F8B84A97
:102ED000B84B01F010F902000B002000290001F0AE
:102EE000E3F801F091F9814601F076F904000D0054
:102EF000B14AB24B01F0FFF80022B14B01F0D4F817
:102F000001F082F90600AF4AAF4B2000290001F022
:102F1000F2F804000D00300001F05EF9AB4AAC4B52
:102F200001F0E9F802000B002000290001F0B3F8DD
:102F300004000D0002000B0001F0DDF80A900B9177
:102F4000A44BF31800261F0522002B0020002900A7
:102F500001F0AAF80E900F9122002B000020802192
:102F6000C90501F098F804000D0000229A4B0A9858
:102F70000B9901F0A2F80022984B01F095F802009D
:102F80000B000A980B9901F098F80022944B01F07D
:102F90008BF802000B000A980B9901F08EF80200E2
:102FA0000B002000290001F07FF802000B000E98B2
:102FB0000F9901F082F80022774B01F075F832008A
:102FC0003B0001F098F806000F0004000D00069A7F
:102FD000079B01F0E9F8002830D001235B429C46B2
:102FE000E14400227D4B3000390001F066F8040016
:102FF0000D0023E01E9B04931D9B03931C9B0293D7
:10300000089A099B0092019343460C9A51465846F0
:1030100000F0FCF811B0F0BCBB46B246A946A04691
:10302000F0BD0023002406930794069680231B0618
:103030009C46654407951AE7002399464B4663333F
:10304000C62B1ED804261E9B1B0526D52B0023430A
:103050000FD0644A644B0698079901F09DF8002848
:1030600079D00022614B0698079901F087F8002873
:1030700071D01C9B4B4506DD4A46981A431E1C9393
:1030800003E00526DFE700231C938023DB001E9A64
:103090001A431E920026002399461D9B9E4264D22D
:1030A0009F1B02231E9A1A400A921E9A134202D0B4
:1030B000002E00D000274B46002B07D022002B000B
:1030C0000698079900F0F9FF069007910022002367
:1030D0000898099901F052F8002848D1444B1E9AEB
:1030E0001340049303971C9B0293069B079C009339
:1030F000019443460C9A5146584600F087F8002E3A
:1031000000D187E71E9B9B063DD54525441C4346C1
:10311000020051462800D8474B46DA179B18534007
:1031200005220592013E0496002203920A32029281
:103130004A46D00F0190009343462200514658461C
:10314000FFF78AFD0A9B002B00D163E702005F4670
:103150000C9E1D9D54E01C9B002B9ED00D9B002BB4
:103160009BD01C9B013B1C9397E7002799E7069C8B
:10317000079D2200290080200006844661440B0040
:1031800006920793AAE76525C0E7C046FFFFEF7FD9
:10319000FFFFEFFF01FCFFFF0000F03FFB799F50B6
:1031A0001344D33FB3C8608B288AC63F0000F83F62
:1031B00061436F63A787D23F71A379094F930A4098
:1031C0000000E03F1655B5BBB16B0240EF39FAFE87
:1031D000422EE63FFF03000000002C400000244088
:1031E000000018402D431CEBE2361A3F80842E412C
:1031F000FFF7FFFF541C434651462020B8472200EA
:10320000931BAB42F6D3100004E7C046F0B5DE4690
:1032100057464E464546E0B595B006900791934611
:103220009946209F1E9A1F9B1000190000F0C1FFB5
:10323000002831D101225242BF4B1E981F9900F045
:103240009DFF002837D101225242BC4B1E981F9986
:1032500000F0AAFF00283DD10022B94B1E981F990B
:1032600000F0A2FF002850D10022B64B1E981F99F3
:1032700000F084FF002848D1002200231E981F99E7
:1032800000F07CFF002850D100239846229B5B056C
:1032900000D4B6E0002458E0229B0393219B0293C4
:1032A00003230193A84B00934B465A46079906986F
:1032B000FFF7F2FB0EE1229B0393219B0293042371
:1032C0000193A24B00934B465A4607990698FFF785
:1032D000E3FBFFE00423229A1A4022990B4210D00C
:1032E0009B4B002A0FD0042222990391219902912D
:1032F000019200934B465A4607990698FFF7CCFB7C
:10330000E8E0944BEDE70322EEE7229B0493219B38
:10331000039302971E9B1F9C009301944B465A46B1
:1033200007990698FFF768FDD4E01E9A1F9B0020BE
:10333000002100F0B0FE1E901F9101239846A5E7E2
:103340000CAB30221A55013F01341F2C01D8092F34
:10335000F6D81E981F9900F057FF050000F03CFFBB
:1033600002000B001E981F9900F095FEFA007A4BA0
:103370009B181A685B680A920B9300F0BCFE0890D9
:10338000099100F065FF060000F022FF02000B002B
:103390000898099900F07FFE0890099100226F4B70
:1033A00000F002FF00282ED00136300000F010FFA0
:1033B00002000B000A980B9900F0E6FE002801D0ED
:1033C00001350026002F2CD1280000F005FF020057
:1033D0000B001E981F9900F05EFE06000F000022F1
:1033E0005E4B00F0CBFE002846D100225B4B300044
:1033F000390000F0D9FE00283ED1EB073CD501355D
:103400003AE0062746E70022544B0898099900F055
:10341000B5FE0028D6D1002E01D0F307D2D5013653
:10342000D0E7AA461F2C11D8013F0A21300000F036
:10343000F7FB651C30310CAB19550A21300000F048
:10344000EFFB092E0ED906002C00EBE755461F2C8A
:103450000CD87B1E002F09D00CAA302111551F005B
:103460000134F4E72B0055461C00F0E71F2C03D86D
:103470000CAB2E221A5501341F2C10D80A2128001B
:1034800000F0A6FB661C30310CAB19550A21280050
:1034900000F09EFB051E01D03400EDE7340003234D
:1034A000229A1340012B1CD01F2C06D84346002B18
:1034B00032D00CAB2D221A550134229B0393219B51
:1034C000029301940CAB00934B465A460799069819
:1034D000FFF7E2FA15B0F0BCBB46B246A946A046DB
:1034E000F0BD219B002B13D04346002B02D10C339F
:1034F00013420FD0219B013B2193190003E00CAB39
:1035000030221A5501348C42CED21F2CF7D9CBE78A
:103510002199F8E72199F6E7229B5B0704D50CABCC
:103520002B221A550134C8E7229B1B07C5D50CABCB
:1035300020221A550134C0E7FFFFEFFFFFFFEF7FA6
:1035400065CDCD4165CDCDC1487400104C740010DF
:10355000407400103C740010387600100000E03F0A
:10356000F0B5DE4657464E464546E0B593B0824636
:103570008B4690461193002900D1EBE20027554677
:10358000119B1878002800D1E7E2252809D07C1C7F
:1035900043463A005946A847119B0133119327002F
:1035A000EEE7013311930024119A11780B00203BB0
:1035B000D8B2102803D88300D048C3589F460B00C8
:1035C000303BDBB2092B2CD92A292FD000230A93B8
:1035D000119B1A782E2A39D000239A46119A137813
:1035E000683BD9B2122976D88B00C549CB589F4683
:1035F00001231C4301321192D6E702231C430132FE
:103600001192D1E704231C4301321192CCE7082325
:103610001C4301321192C7E710231C43013211925F
:10362000C2E711A8FFF726FA0A90D1E71C9B1A1DE2
:103630001C921868002804DB0A90119B0133119337
:10364000C6E702231C4343420A93F6E78022D200D6
:1036500014435A1C11925A781300303BDBB2092BE9
:1036600004D92A2A07D000239A46B7E711A8FFF702
:1036700001FA8246B2E71C9B1A1D1C9218680028AA
:1036800004DB8246119B01331193A7E70020F8E782
:1036900080235B002343511C119152786C2A01D086
:1036A0001C0018E0C0239B001C430131119112E063
:1036B00080232343511C11915278682A01D01C00A9
:1036C00009E0C0231C430131119104E080235B0019
:1036D0001C4301321192119B18780300253BDAB28A
:1036E000532A00D92CE29300864AD3589F46802360
:1036F0009B001C4301321192EDE780235B001C43C9
:1037000001321192E7E7782809D0582838D06F287D
:1037100038D0622838D010239C430A2600E01026B7
:10372000582833D0692803D0642801D00C22944350
:10373000630501D50122944369282AD0642828D042
:10374000A30500D59FE0E30500D5B8E0630600D4EB
:10375000CAE01C9A111D1C911168FF220A400594B1
:103760000A9B04935346039302960023019300920D
:1037700043463A0059462800FFF76EFA070027E053
:103780001026CDE70826CBE70226C9E720221443FE
:10379000C8E7A30520D4E30550D4630666D51C9A78
:1037A000111D1C911168FF220A40D317D1185940EE
:1037B00005940A9B0493534603930296D20F0192F9
:1037C000009143463A0059462800FFF745FA0700A2
:1037D000119B01331193D3E61C9BDA1D07218A4309
:1037E000110008311C91116853689C46DB170C933B
:1037F0000D930C9A0D9B100048400E90624653406A
:103800000F930E980F990C9A0D9B801A99410E9068
:103810000F9108940A9B079353460693049600233E
:1038200005936346DA0F02920090019143463A00F5
:1038300059462800FFF76EFA0700C9E71C9A111DC8
:103840001C911268D317D118594005940A9B049310
:10385000534603930296D20F0192009143463A00D9
:1038600059462800FFF7F8F90700B1E7230605D508
:103870001C9A111D1C910023D25E96E71C9A111D03
:103880001C91126891E71C9BDA1D07218A431100E5
:1038900008311C9108940A9B07935346069304969B
:1038A00000230593029313685468009301944346E0
:1038B0003A0059462800FFF72DFA070088E71C9ABE
:1038C000111D1C9105940A9B049353460393029681
:1038D000002301931368009343463A005946280099
:1038E000FFF7BAF9070073E723060DD51C9A111DDF
:1038F0001C9112681204120C31E7C0465474001077
:1039000098740010E47400101C9A111D1C91126828
:1039100025E746281AD01C9B0733072293431A0039
:1039200008321C9204940A9A0392524602925C68EE
:103930001B680093019443463A0059462800FFF75C
:1039400065FC0700119B0133119319E620231C43EA
:10395000E1E7672801D0472802D180231B011C43DF
:10396000452801D0472801D120231C431C9B073345
:10397000072293431A0008321C9204940A9A039275
:10398000524602925C681B680093019443463A00D9
:1039900059462800FFF730FA0700119B01331193B5
:1039A000EEE502231A002240924623421FD0012452
:1039B0001C9B1A1D1C927A1C9146187843463A00AB
:1039C0005946A8475346002B16D1119B013311933A
:1039D0004F46D5E5561C434659462020B84723009C
:1039E00032005C1C9D42F5D83D001700E0E7012342
:1039F0003A002F000A9DF4E74A46A9460A9D06E0D0
:103A0000571C434659462020C84734003A00661CDC
:103A1000A542F5D84D469146D7E71C9B1A1D1C922E
:103A20001B6899465346002B00D1013B4E4601E0EE
:103A3000013613003278002A02D05A1E002BF7D12B
:103A40004B46F21A10928023DB0026001E401C42D7
:103A500003D0524501D95346109302231A00224045
:103A60000B92234205D03A0037004C46A9465546F2
:103A700020E03A00109B5F46B3462E0006E0551C3E
:103A8000434639002020B04723002A005C1C0A99D5
:103A90009942F4D835005E46BB46109437004C4638
:103AA000A946554606E01D000134561C43465946BA
:103AB000C84732002078002804D0002FF4D06B1EB5
:103AC000002DF0D117004D460B9B002B03D1119B0D
:103AD0000133119354E50A9F109B06E0561C4346A0
:103AE00059462020A847230032005C1C9F42F5D88D
:103AF0001700ECE721231C431C9B1A1D1C921B681A
:103B000000930594082304935346039310230293D0
:103B10000023019343463A0059462800FFF79CF8DA
:103B20000700119B013311932AE57C1C43463A00A0
:103B300059462520A847119B0133119327001FE503
:103B40007C1C43463A005946A847119B0133119308
:103B5000270015E50A4B9A4610E5AA46474502D3C9
:103B600043465A1E00E03A00434659460020D047DB
:103B7000380013B0F0BCBB46B246A946A046F0BD23
:103B8000652A001000B583B0009313000A000100FD
:103B90000248FFF7E5FC03B000BDC0465D2A0010F7
:103BA00000B585B0029003910121009313004A42B1
:103BB00002A90248FFF7D4FC05B000BD672A001037
:103BC00001480421014B1847B00D0020B728001010
:103BD000124A936F9B0815D29066D166002905D0D2
:103BE000FFE7FFE7FFE7516F106F704704B58021D3
:103BF0000906C2175140002800D0C84302F0F4FC67
:103C0000002104BDF0B5146E556E576F166FFFF7A7
:103C1000E3FF1466556657671667F0BD000000D0D5
:103C2000114A936F9B0813D210665166002905D084
:103C3000FFE7FFE7FFE7516F106F704704B50028FB
:103C400001D00020C04302F0CFFC002104BDC046DB
:103C5000F0B5146E556E576F166FFFF7E5FF1466DB
:103C6000556657671667F0BD000000D094464A4A73
:103C7000926F9208624601D228E0C046F0B5464EE7
:103C8000346E756E776F366F00F020F89446424AB6
:103C900014665566576716676246F0BD94463E4AFD
:103CA000926F9208624601D254E0C046F0B53A4E97
:103CB000346E756E776F366F00F04CF89446364A66
:103CC00014665566576716676246F0BD002B24DB05
:103CD00011D000293EDA00B5C943404200D101317C
:103CE00000F038F8C943404200D10131DB43524271
:103CF00000D1013300BD002AEBD1002801D10029F9
:103D000005D00020C90FC90701D1C043410800B543
:103D100002F052FC0022002300BD00B500290ADB9E
:103D2000DB43524200D1013300F014F8C943404252
:103D300000D1013100BDC943404200D10131DB4314
:103D4000524200D1013300F005F8DB43524200D16A
:103D5000013300BD002923D1002B18D1002A0CD03B
:103D6000BC460D4F38667A6600210023FFE7FFE767
:103D7000FFE77A6F386F67467047002801D0074821
:103D8000010000B502F018FC0022002300BD020073
:103D90000B00002000217047000000D0FFFFFFFF54
:103DA000002B00D0BFE0130C28D1002AE7D080B44C
:103DB000114F39667A66FFE7FFE730B4040C7B6F7A
:103DC000396F1B0423433B667A66FFE7FFE7FFE793
:103DD000C04684B27B6F3D6F1B0423433B667A660B
:103DE000FFE7FFE7C04600232C042D0C7A6F386FE5
:103DF00000196941B0BC7047000000D0F0B594468E
:103E00000025140E01D112020835140F01D1120140
:103E10000435940F01D192000235D40F01D1520024
:103E20000135D40B0134254F7C66254C3C660E0CC5
:103E300093B2FFE7FFE7FFE73C6F6643360C77037B
:103E4000BE467343DF0B5B04C01AB941130C7343C6
:103E5000DB18C91ACE086643360CB64493B27343D6
:103E60001F0F1B01C01AB941130C73431F0B1B0515
:103E7000C01AB941860D8F023E436643360C092DA8
:103E800024DB520A7243801A7703460A6643360CD3
:103E900016235B1BDE40DF40BF1964466643821B6E
:103EA0007046043506330100D940A840C01900D33C
:103EB0000131A24206D20023F0BD0000000000D074
:103EC000FFFFFFFF121B0130F3D3F1E709277F1B30
:103ED000FE406446A2B27243801A00D20139220C1D
:103EE0007243130C1204821A99410B007046043578
:103EF00013370100F940A840801900D30131002B8D
:103F000002D1A2420AD2F0BD013000D30131121B0E
:103F1000FAD2013BF8D1A24200D2F0BD013000D369
:103F20000131121BF7E7F0B51C0C00D080E00CB497
:103F300000251C0A04D11B02160E33431202083559
:103F40001C0B04D11B01160F3343120104359C0BCB
:103F500004D19B00960F334392000235DC0B02D153
:103F600092185B4101351C00971864410134464F9B
:103F70007C66464C3C660E0CFFE7FFE7FFE7C04659
:103F80003C6F6643360C7703BE4697B27743C01B3F
:103F900000D20139C01B00D201399FB27743C91B3F
:103FA000C91B170C77437E04FF0B801BB941CE0859
:103FB0006643360C0C2D33DBB644120B1F053A4317
:103FC0001B0B97B27743C01B00D201399FB27743D6
:103FD000C91B170C77433E043F0C801BB941860D6B
:103FE0008F023E43664329277F1BFE400C3D7746E8
:103FF000AF40BF1930BCA2B2ABB272437343801A58
:104000009941220C7243130C1204801A9941020048
:104010000B000137001BA941F9D2781E0021F0BD29
:104020000C277F1BFE4077467F0BAF40FF19E0E770
:1040300000245D1C07D0144F7D663966FFE7FFE75B
:10404000FFE7FFE73C6F95B29EB265436643401BB6
:10405000B141150C1E0C6543664336042F0C3E43DC
:104060002D04401BB141994204D202000B002000F4
:104070000021F0BD01D19042F7D3801A994101345B
:104080009942F2D3F6E70000000000D0FFFFFFFFE7
:1040900048404140484018B41B4B5B68FC460193C4
:1040A00008BD04DF6B43001018B4174B1B68FC46B7
:1040B000019308BD00DF754300109446134A926FC8
:1040C000920809D2624618B40F4BDB68FC46019394
:1040D00008BD0CDF2D4600100C4AF0B5146E556E6D
:1040E000576F166F6246FFF7EEFF084A1466556673
:1040F00057671667F0BD18B4034B9B68FC460193E5
:1041000008BD08DFD1440010B0520020000000D0EC
:10411000FFB550404240504059404B40594000E0AC
:10412000FFB5154F4C00640D03D0BC4204D10C0305
:1041300014D80020090D09055C00640D03D0BC42B1
:1041400004D11C030AD800221B0D1B0501264B407D
:1041500009D44B4003D58B4200D18242FFBD994226
:10416000FCD19042FFBD0B43DB1803431343F5D052
:10417000C9434918FFBD0000FF07000000B5FFF765
:10418000CFFF804100BDC04600B5FFF7C9FF01D990
:10419000002000BD012000BD00B5FFF7B9FF01D927
:1041A000002000BD012000BD00B5FFF7B1FF804138
:1041B00000BD012040054A00121804D85A00121808
:1041C00001D8002070470120704700207047000090
:1041D0000021002805D17047C1174840401AFAD085
:1041E000C90713B5064B1B6898470CBC441CA2407A
:1041F0001005120B0349091B09051943114310BD92
:10420000B05300201F04000010B54C00620D802345
:10421000D218DB00D21A5B057E2A10DD9E3A13DA33
:10422000CC170903490819435242D14064000134B4
:104230001532202A05DAD0400843604310BD002023
:1042400010BD0846604310BDC80FC018013810BD2E
:1042500018B4044B5B6AFC46019308BD24DFDD47BC
:1042600000100000B052002070B513231C78012C00
:1042700014D0012C14DC022C02DC1F4A1F4B9A6460
:104280001F48FEF708FB1F4B186070BD99001A48C5
:104290001A4A885001331F2BF8D9EAE70023FAE7BE
:1042A0001948FEF700FB05001848FEF7FCFA023833
:1042B00003789B007F2B19DD802229000F4800F036
:1042C000ABFB022CD7D1124B1A88B5231B029A42A2
:1042D00009D1104B1A88104B9A4204D10F4B1A88FF
:1042E0000F4B9A42C7D00020FEF7A0FB0D4B0E4AA1
:1042F00032210E48FEF700FB31430010B05200207F
:104300004C330000B05300205344000053460000DB
:1043100054380000D8380000494600009C3800009E
:1043200059460000887600101C770010DC760010DB
:1043300007B56046002800D100BE01880A0A023095
:10434000DF2AFAD1C9B2820804D302884088000467
:10435000104300E00068024A5050039007BD00007F
:10436000B05200200FB403BC0CBCF0B50124E4072C
:10437000634000E0F0B50C0DCF0F661E3605891BBB
:10438000640503D3C943404200D30131640D03D017
:10439000661CF60A07D0E41B00207F00791C890701
:1043A0008912803C24031D0DDF0F6E1E36059B1BFA
:1043B0006D0503D3DB43524200D301336D0D03D0AF
:1043C0006E1CF60A07D0ED1B00227F007B1C9B07AA
:1043D0009B12803D2D032F1B661B58D4A446202E14
:1043E00046DA20371400BC401D00BD40F240334186
:1043F0002A4380185941CB0F05D0C943C04300223E
:1044000064425041514162464D0D28D10D0D07D1F6
:1044100000281FD0241940414941013A0D0DF9D01F
:10442000640006D3013000D30131002C01D14008D3
:104430004000013A0BD4941CE40A04D11205114443
:10444000DB071944F0BDD907204B194300E0D90719
:104450000020F0BD0029DDD1002CDBD1F0BD013200
:10446000C6074008CD0728434908002EE1D0D9E708
:104470003C2E29DA203E40371400BC4000D00124F5
:10448000F24014431A00BB401C43D317ACE7AC46C0
:10449000202F08DA20360400B4400D00B540F84063
:1044A00039412843A5E73C2F0CDA203F4036040071
:1044B000B44000D00124F84004430800B1400C434C
:1044C000C117EAE710001900002494E70000F07F0C
:1044D000F0B50C0D661E3605891BE60A6405640DF1
:1044E00002D0651CED0A04D0002001210905803CA2
:1044F0002403A4461C0D671E3F05DB1BE70A640569
:10450000640D02D0651CED0A04D0002201231B05B6
:10451000803C24037740644497B484B296B27443D9
:10452000070C7E43150C6F4380B26843361802D3E4
:10453000012000043F183004350C00197D418446E9
:1045400088B29AB250430C0C62431F0C7C438EB26B
:104550007E43921902D301263604A4191604170CBF
:104560003618674101BC81B29AB25143040C6243D0
:104570001B0C5C4380B25843121802D30120000484
:1045800024181004130C401863412D185E410020BC
:10459000474106BC88B293B258430C0C6343120CDB
:1045A000544389B251435B1802D3012109046418B2
:1045B00019041A0C091862416D1856410020474130
:1045C00018BCF902720D1143F0026A0D1043ED029E
:1045D0000A0D03D16D1940414941013B124E9B1B0D
:1045E0007600B3420ED26D0007D301300026714130
:1045F0006646354301D1400840001B05C918E40751
:104600002144F0BD0BDA013306D1013004D1013170
:104610004F0D01D04908F2E7E1070020F0BD013657
:1046200031050020EBE70000FF030000F0B51C0D92
:10463000671E3F05DB1BE70A6405640D02D0661C9C
:10464000F60A04D0002201231B05803C2403D02558
:104650002D060026F6432E661E096E66CE0FF6194D
:10466000B44649004F0D02D07E1CF60A03D000204C
:104670000021403F3F033E1BB600B444013F7F058D
:10468000C91B49082E6F013676089C02950D2543FB
:104690007543ED137543AD1301356D10F603761BAD
:1046A0000CB4CC02450D2C43A2B2B3B25A43270C32
:1046B0007B43350C6F43A4B26C431B1902D3012416
:1046C00024043F191C041D0CA4187D4124196D41BC
:1046D000009A91B2ACB26143170C7C432B0C5F4340
:1046E00092B25A43A41802D301221204BF18220422
:1046F000230C52187B41019C6C431B19520ED901AB
:104700000A434401A01A81B2B2B2514303145A437E
:10471000360C734387B27743D617D21900277E41F0
:1047200036049B191704160C7F185E417316ED189A
:10473000F301002680337541A90F06D16400690A90
:10474000E8055B0A184309D22FE004229444803321
:104750007541A90AA8059B0A184326D3404149413F
:104760002404009A019B0D005543641B4343E41A43
:1047700095B286B27543170C7E43030C5F4392B229
:104780005A43B61802D301221204BF183204330C64
:1047900052197B4152429C41002C02D4002201302C
:1047A00051414008CA071043490802B06246D70782
:1047B0009210084BD218084B9A4203D2120589185E
:1047C000C919F0BD0020002A01DC3900F0BD013319
:1047D0001905F5E7FD030000FE070000002200B503
:1047E000203200F004F8080000BD000000220B1584
:1047F0000AD410B5944600F031F81414013400DAEC
:104800000021CB17144C2047002000217047624440
:10481000343A0CD40C2A07DA0400914090405242FA
:104820002032D440214310BDD843D94310BD20329B
:1048300007D40C469440524220321141D0402043CC
:1048400010BD0800C917203203D452422032104153
:1048500010BD1800190010BD0F4800100A0DCC0F34
:10486000531E1B05C91A520503D3C943404200D346
:104870000131520D03D0531CDB0A07D0121B00205C
:104880006400611C89078912803A1203014BD21A15
:1048900070470000FF03000051434343C9188C4692
:1048A000110C83B24B4310B4040C614392B280B23A
:1048B000504362431C041B0C001910BC59411304E3
:1048C000120CC018514161447047000070B51323A9
:1048D0001D782A48FDF7E7FF0400012D11D0012DB6
:1048E00009DDA31E1B789B007F2B40DD8022210069
:1048F000234800F091F82348FDF7CDFF224B1860C4
:1049000070BD542201001E4800F086F81F4B1A8823
:104910001F4B9A421CD1A7239B011A881D4B9A4218
:1049200016D11D4B1A881D4B9A4211D11C4B1A8867
:1049300094239B019A420BD11A4B1A881A4B9A4224
:1049400006D11A4B1A681A4B9A4201D1152307E077
:104950001848FEF76BF899001748094A8850013348
:104960001F2BF8D9144A064B1A62DA61B7E7134BCA
:10497000134A42211348FDF7BFFFC04653460000CB
:10498000B45300204C330000B0530020EE29000047
:10499000C40F0000C20D0000962B0000C0B500003F
:1049A000182B0000CC2A000010B50000FC2C0000E1
:1049B00051ED876490730010C949001030770010E2
:1049C000A07700106477001007B56046002800D17A
:1049D00000BE01880A0A0230DF2AFAD1C9B2820871
:1049E00004D3028840880004104300E00068024AB3
:1049F0005050039007BD0000B4530020014804212B
:104A0000014B1847C00D0020B7280010014B1B6850
:104A100018470000C00D0020014B5B6818470000DC
:104A2000C00D002010B50300080011001B68984756
:104A300010BD0000F8B507000D001600437D002BE7
:104A400002D0002400200CE00368110028009847E1
:104A50002DE03B7D10E0022115483B689847601C23
:104A60000134B44214DA002CF3DD2B19013B1B781E
:104A70000D3B5A425341DBB22A5D0A2AF0D1002B8A
:104A8000EED1A042E7DA211A28183B689847E2E7FE
:104A9000B04203DA311A28183B689847002E06DD29
:104AA000AD19013D2B780D3B5A4253413B75F8BD82
:104AB0003478001070B505000368002B16D00C4B3D
:104AC0001C6805E0290004C92000FFF7B3FF246932
:104AD000002C09D02368002BF9D0064B1B68002B53
:104AE000F0D0A342F3D1EDE700232B6070BDC046A8
:104AF000184E0020204E002070B505000C000B68F9
:104B0000802B05D021684B1C23606418257170BD73
:104B10000800FFF7CFFFF5E710B5FCF7C1FC020076
:104B20000B1E0BDB0D48002112184B41002B0BDB39
:104B3000002B0DDB0A4801F077FD10BD094B0A4A36
:104B40003F210A48FDF7D8FE01225242084BEFE709
:104B5000044B054A3F210548FDF7CEFE40420F00B9
:104B6000180E0020F86800101C780010146900105E
:104B7000FFFFFF7F10B5024801F016FD10BDC046D3
:104B8000180E0020F0B5CE46474680B583B006002B
:104B90000D0090461C00FFF7BFFF81466B1C05D03F
:104BA000002C08D0194F1A4B1C6807E0300001F0A8
:104BB000C1FC0500F4E7174FF5E72469002C17D076
:104BC0002368002BF9D0144B1B68002B01D0A342A3
:104BD000F3D12A0031002000B8474346002BECD027
:104BE0006B46D91D0A230B7001222000B847E4E769
:104BF0004B46002B07D16B1E9D41E8B203B0C0BCF1
:104C0000B946B046F0BDFFF7B5FFF4E7254A0010FE
:104C1000184E0020354A0010204E0020094A01E0BD
:104C200010331A001368002B08D08342F8D10029F2
:104C300007D1036913600023036102E0002900D05B
:104C400010607047184E002010B5064B1C6801E03C
:104C500098472469002C03D06368002BF8D1F8E74B
:104C600010BDC046184E002070B5050001F062FC72
:104C700004000023012201002800FFF783FFFFF753
:104C8000E3FF200070BD000070B5A2B004000E006C
:104C9000FFF742FF0500002301933300220001A922
:104CA0000848FEF77DFF040001A8FFF703FFFFF7A8
:104CB000CBFF002D02D1200022B070BDFFF75AFFBC
:104CC000F9E7C046F94A00100FB400B583B004A953
:104CD00001C90191FFF7D8FF03B008BC04B0184721
:104CE000F0B583B005000E0000240FE06B46D91D1F
:104CF0000D230B700020002816D193699B06FCD46D
:104D00000B78136001300131F5E70134B44219DA50
:104D10000D4B1A682F5D0D4BD31859424B415B0068
:104D20000B495B5EBB42E1D06B46D91D0F70002082
:104D30000028EAD193699B06FCD40B7813600130FC
:104D40000131F5E703B0F0BDD05400200080FCBF76
:104D5000C8540020F0B583B006000F00002504E021
:104D60006B4607331B782B702500BD4215DA174BB5
:104D70001A6893691024210019401C420DD16C1C43
:104D800075196B46D81D0029EAD19369DB06FCD45E
:104D90001368037001310130F5E70D4B1B68002BE0
:104DA0000CD00A4B1A685023936311003431536BB3
:104DB00038221A4080235B010B431A60002D02D079
:104DC000280003B0F0BD033DFAE7C046D0540020F0
:104DD000A44C002010B5064B1B68002B06D0054ADA
:104DE000126800219163044A1068984710BDC046BC
:104DF000A44C0020D0540020A84C002070B5040022
:104E00000E001C4B1B681C4A98184242504114303B
:104E10000500002C03D0194A1268002A06D0002C85
:104E200019D0164B1C60164B1E6070BD1549FCF75F
:104E30006BFD01212800FCF757FD0E4B1A6850232B
:104E4000936311003431536B38221A4080235B0185
:104E50000B431A60E5E7094A1268002AE1D00022F4
:104E60009A6300212800FCF73FFD06492800FCF763
:104E70008FFED6E7D05400200080FCBFA44C002059
:104E8000A84C0020D54D001070B50D001C000D4B36
:104E90001860002A0BDA002C0EDA0A4B1868290079
:104EA000FDF796FC01210848FFF7B8FE70BD02210E
:104EB0001000FDF72BFBEEE702212000FDF726FB9B
:104EC000EBE7C046D0540020D00D002010B50248BA
:104ED000FDF7BEFC10BDC046A852002002007F2096
:104EE0001040D209400080184001014BC0187047A3
:104EF000244E002010B5038B3F333F2293430229F9
:104F000015D0124C2268C260D31823609C0610D1C1
:104F10000F4C6240634080246401A3420FD889068D
:104F2000114380231B0619434368196010BD5B00C1
:104F3000E7E7084B084A54210848FDF7DDFC084B19
:104F4000054A56210548FDF7D7FCC04624520020EB
:104F50000000105038780010387900106878001080
:104F6000B4780010F8B505000E001400FFF7B6FF86
:104F70007F232B40EF0985707A427A4142700022EC
:104F8000C2700683C476012F0DD0DA0012498C4618
:104F900062448260826800211160002B09D1436065
:104FA0000E4BC360F8BDDA000D498C466244826046
:104FB000F0E7012F09D0013BDB000A4A9446634425
:104FC00043602100FFF796FFECE7013BDB00064A58
:104FD000944663444360F4E784001050000110508D
:104FE000800010500C0010500800105070B50C00DC
:104FF0001500FFF773FF2A00210000F0BFF870BD15
:1050000010B5002804D101210520FCF76DFC10BD6E
:10501000D521034B034A49000348FDF76DFCC04608
:10502000FC7800102879001068780010024B80226C
:105030005202DA647047C0460020115070B5041E59
:1050400026D100F075F8164D0C23AB67FF221549E9
:105050000520FCF783FC402200211348FFF7D6FC13
:10506000002240210020FFF77DFF00224021802008
:10507000FFF778FF01F0A8FA01232B6480239B053A
:10508000EB649023094AEA502000FFF7CFFF70BD80
:105090008621074B074AFF310748FDF72DFCC04624
:1050A0000000115011060020244E002010D00100F5
:1050B000FC7800104C7900106878001010B50C00D6
:1050C00000280DD1097963791B020B435B05590D4B
:1050D000E2789207920FA078FFF744FF012010BDFD
:1050E000FC21034B034AFF310348FDF705FCC04692
:1050F000FC780010187900106878001010B50400D2
:10510000080011001A00002C03D1FFF76FFF0120E7
:1051100010BD034B034A04490448FDF7EDFBC046AC
:10512000FC780010087900100A020000687800106E
:1051300010B580235B040C4A13600C4A13600C4BBF
:105140009A6880235B049343F9D10A4C9C22002186
:105150002000FFF75BFC8022520100210648FFF788
:1051600055FC0923636710BD00E0004000F00040DB
:1051700000C00040000011500000105070B5040045
:105180000D001600837E002B17D1A6820023E38238
:105190000133A3762561200001F03EFA002804D0F7
:1051A000094A902380218902D150200001F054FA4D
:1051B000002805D00123237770BD01F045FAE4E70C
:1051C000200001F039FAF7E700201150024B58781F
:1051D000431E9841C0B270473C490020024B1878EA
:1051E0004007C00F7047C0463C490020034B187869
:1051F000FF38431E9841C0B27047C0460C0E0020D5
:1052000070B50400FFF7F2FF061E01D0300070BD3C
:10521000532200212448FFF7F9FB244D2800FCF716
:105220001BFE234B1D60234D28001430FCF73AFE73
:10523000280001F025F9204B1D60204B002B04D0E5
:105240001F4800E000BF1F4B186000250BE06B00FB
:105250005B19DA001B4B1B689B18002BD6D01B6810
:1052600098470135EDB2164B1B785A1CAA4210DB49
:10527000124A002A0BD0AB42E9D8EB1ADBB2012B61
:10528000C4D85A00D218D2000F4B9B18E5E72B0068
:10529000F5E70E4B1C702000FFF7D0FE2000FFF753
:1052A000AFFE0126B2E7C0463C490020F44800208A
:1052B00090490020F00D00209449002000000000DB
:1052C000F054002054180020487A00100C0E0020E2
:1052D00070B50C00094B1D788B7870221A4201D0F2
:1052E000002070BD064B9978200000F097FD002843
:1052F000F7D021002800FFF7E1FEF2E70C0E0020B6
:105300003C490020F8B5CE46474680B581460C00A2
:1053100017001E00089B9846002504E0099A1370A8
:105320002378E4180135AF4214DD6378052B16D1DC
:10533000E1788907890FB14213D121004846FFF770
:10534000C7FF002807D0A378DA09012AE6D0424631
:105350001370E5E70120C0BCB946B046F8BD002097
:10536000F9E70020F7E7000010B57F200840C909E1
:10537000400040183030044908180330034B1968C6
:1053800000F006FD10BDC0463C49002090490020B9
:1053900010B57F200840C90940004018303004494A
:1053A00008180330034B196800F01AFD10BDC04601
:1053B0003C49002090490020F8B5CE46474680B5CC
:1053C000194800787F250D40CE096F00174CE4196D
:1053D000A4193034E478E40704D50020C0BCB946F1
:1053E000B046F8BD114CE419A4193027B946A144C0
:1053F0004C46E4780127BC4667463C4327004C46B0
:10540000E770FFF77BFE0028E8D16D00074B5D19C0
:10541000AE193036F37801229343F370F3780332F8
:105420009343F370DAE7C0460C0E00203C4900209D
:105430007F220A40CB09520003498918C91830312C
:10544000C878C007C00F70473C490020F8B5050078
:10545000124B9F89DE89B91B89B20B1C402900D9E8
:1054600040239CB20D4B1B785BB2002B08DB002164
:10547000B74211D00A4A23002800FFF79DFFF8BD6C
:10548000B74201D18021F3E7044B99682200044818
:10549000FFF7C2FA8021EBE70022ECE7E0480020AA
:1054A000FC48002070B506000C000B4D08222800B7
:1054B000FFF7B2FA0023AB60EB81AB810023E35628
:1054C000002B06DB8021002300223000FFF774FF51
:1054D00070BD0021F7E7C046E0480020F0B5C646A1
:1054E00000B580460C0016001D00184F0822380039
:1054F000FFF792FABE600023FB81A379E1790902EC
:1055000019430B1CA94200D92B1C99B20F4A938155
:10551000A279E3791B02134309D0002901D0002EA0
:1055200012D04046FFF792FF80BCB846F0BD002382
:10553000E356002B06DB8021002300224046FFF7C4
:105540003BFFF1E70021F7E70020EDE7E04800200E
:1055500070B5040005001035280000F03FFF8023DF
:105560005B01984201D2002070BDE1780020FFF776
:10557000FBFE0028F8D0280000F030FF80235B01FC
:10558000984208D3074BE2188023E1785B010020A2
:10559000FFF712FFE8E7E1780020FFF7F9FE0020AF
:1055A000E2E7C0468810000070B50500FFF70EFE68
:1055B000002804D10023002B09D1002070BDFFF783
:1055C0000DFE002801D10123F5E70023F3E7214C6C
:1055D0006C432034204BE4180434200000F0CDFE4E
:1055E000002801D10020E9E71A4A6A431A4B9B18A8
:1055F00099780020FFF7B8FE002801D10020DDE7F0
:10560000144E6E43154B9C466644134BF61880228D
:1056100052013100200000F0F7FE041E0DD00D48AD
:1056200068430D4D2D18A978230032000020FFF7A4
:10563000C3FE00280BD02000C0E706486843064D93
:105640002D18A9780020FFF7A3FE0020B6E7002060
:10565000B4E7C046883000005818002088200000B9
:10566000F0B5CE46474680B583B0274A002127488B
:10567000FFF7CCF90026002E04D003B0C0BCB94619
:10568000B046F0BD214F204C74433D19FF236B7190
:10569000002398461E4AEA8001222A81AB72EB72EF
:1056A00008232B7321003831C91920001030C0198C
:1056B0004346009301333F3200F021FE2100783150
:1056C000C919802220002030C01904300123009322
:1056D000520100F014FE0F4BE3189946B9444846B6
:1056E000FCF7BAFB4346EB614B462B6284235B011C
:1056F0009C466444E4192000FCF7AEFB2C6343464F
:105700006B630136F6B2B6E7883000005818002007
:1057100000C2FFFF7810000070B50025002D00D0FA
:1057200070BD0D4C6C430D4EA01905220021FFF7F2
:105730006DF920001030801900F0A2FE2034A41969
:105740000434200000F09CFE0121200000F0B7FE90
:105750000135EDB2E2E7C04688300000581800205D
:10576000F0B583B006004B79022B4FD18B79022B19
:1057700050D10023002B08D00027002F4CD08B786D
:105780003B700C780C19092510E0264C5C43264828
:1057900000198078002802D00133DBB2EAE7224FFB
:1057A000E719EAE721784D19ADB264186378242B24
:1057B00001D19542F6D9052B09D06378042B02D18B
:1057C00063790A2B10D03800FFF7C2FE1FE02100DA
:1057D0003000FFF77DFD002820D0A3787B70227871
:1057E0005519ADB2A418E8E721784D19ADB261188A
:1057F000BB1C0193FB1C0093022302223000FFF725
:1058000081FD00280CD00E35ADB2DCE70025280064
:1058100003B0F0BD0025FAE70025F8E70025F6E71C
:105820000025F4E78830000058180020F8B514006F
:10583000127860231340202B7ED1444A0025002D8E
:1058400000D07BE01678277963791B023B439E42A8
:1058500005D00135EDB23E4B9C466244EFE76378DC
:10586000222B31D009D8202B11D0212B03D1012993
:1058700023D0012061E000205FE0232B05D1012926
:1058800049D003294CD0012057E0002055E00129E0
:1058900003D0032908D001204FE00632072321005E
:1058A000FFF71CFE012048E02A4B002B48D0911D39
:1058B000280000E000BF01203FE00632072321005E
:1058C000FFF70CFE012038E0012903D0032906D0A0
:1058D000012032E02100FFF7E5FD01202DE0A17855
:1058E000E3781B020B430120190001400E005C0805
:1058F000044013714B425941C9B22432100000F0E8
:10590000DEFD154B002B1DD0220031002800FAF7D8
:1059100051FE012011E02100FFF7C4FD01200CE041
:105920000E4B002B10D0A378E17809021943280010
:1059300000E000BF012000E00020F8BD0020FCE7EF
:105940000120FAE70120F8E70120F6E758180020C7
:105950008830000000000000B505001000000000C5
:10596000F0B5D64600B582B001900F000093002438
:10597000002C0ED0002C00D079E0EB78BB4215D083
:10598000AB78BB424AD00124200002B080BCBA46AA
:10599000F0BD3A4D65433A4BED18EB78BB42E9D088
:1059A000AB78BB42E6D00134E4B2E1E710239A467B
:1059B000AA446B461A88334BE918504600F05BFD49
:1059C000314B002B1AD06B79FF2B17D0002600E04B
:1059D0000136009B9E4211D26A79AB1929498C4647
:1059E00063441B789A42F3D1504600F0DBFC002858
:1059F000EED16979200000E000BFE9E7234B002BDE
:105A000004D0504600F0CEFC002803D02800FFF759
:105A10009FFDB5E7200000E000BFF7E71C4B002B1F
:105A200002D0200000E000BF2000FFF7BDFD0028ED
:105A300001D00124A8E72800243000F09EFC0028B3
:105A400017D1009B002B16D09B0601D001249BE7A9
:105A5000A9780198FFF788FC041E01D1012493E77F
:105A6000A978002300220198FFF7A6FC8CE7002408
:105A70008AE7012488E7012486E7C04688300000D1
:105A800058180020881000000000000000000000EE
:105A90000000000010B5040081780020FFF7C8FC6A
:105AA000002800D010BD201D00F098FC3F28F9D937
:105AB0002200BC32A17840230020FFF77DFCF1E7F3
:105AC00070B5040041780020FFF7B2FC002802D036
:105AD0000025280070BD2600FC362000183040222A
