:020000041000EA
:1000000000B5324B212058609868022188439860DF
:10001000D860186158612E4B002199600221596106
:100020000121F02299502B49196001219960352056
:1000300000F044F80222904214D00621196600F024
:1000400034F8196E01211966002018661A6600F04E
:100050002CF8196E196E196E052000F02FF8012189
:100060000842F9D1002199601B49196000215960AB
:100070001A491B48016001219960EB211966A021F2
:10008000196600F012F800219960164914480160C1
:100090000121996001BC002800D000471248134993
:1000A000086003C880F30888084703B5996A0420EC
:1000B0000142FBD001200142F8D103BD02B5186610
:1000C0001866FFF7F2FF186E186E02BD00000240BE
:1000D000000000180000070000035F00212200005C
:1000E000F4000018222000A00001001008ED00E03C
:1000F00000000000000000000000000074B24E7A12
:1001000000200420F7010010C3010010C5010010F9
:10011000C1010010C1010010C1010010C101001097
:10012000C1010010C1010010C1010010C701001081
:10013000C1010010C1010010C9010010CB01001065
:10014000CD010010CD010010CD010010CD01001037
:10015000CD010010CD010010CD010010CD01001027
:10016000CD010010CD010010CD010010CD01001017
:10017000CD010010CD010010CD010010CD01001007
:10018000CD010010CD010010CD010010CD010010F7
:10019000CD010010CD010010CD010010CD010010E7
:1001A000CD010010CD010010CD010010CD010010D7
:1001B000CD010010CD010010CD010010CD010010C7
:1001C00000BE00BE00BE00BE00BE00BEEFF3058054
:1001D000103800BEF2EB8871CC820010F082001063
:1001E0003402001090A31AE700201F49086006C8D7
:1001F00081F3088810471D48006800282FD10DA4FE
:100200000ECC002902D000F012F8F9E71849194A7B
:10021000002000E001C19142FCD1174988471749ED
:1002200088471749884700BEFDE701C901C29A42C5
:10023000FBD37047F0820010C0000020D80C0020D3
:10024000088F00100000042000000420088F001018
:10025000001004200010042000000000704709482E
:1002600002F023F90047000008ED00E0000000D094
:10027000D80C00205449002049250010CD0300105F
:10028000052500105756000006005250ABB36053CE
:100290006C7F001006005250861C03027C7F001009
:1002A000060052505422A29D8C7F0010050052502F
:1002B000DE65F468088F0010F8B5C04610B5064C2E
:1002C0002378002B07D1054B002B02D0044800E017
:1002D00000BF0123237010BDD80D002000000000D6
:1002E000E06D0010044B10B5002B03D00349044807
:1002F00000E000BF10BDC04600000000DC0D002083
:10030000E06D001010B5192001F022FFD024240662
:1003100080239B0463626361182001F019FF80232E
:100320005B046362A36110BD10B5E1214902064878
:1003300002F058F80221102001F0F2FE02211120F3
:1003400001F0EEFE10BDC0460040034010B500F0C5
:10035000B1FE00291DDB22D0FA229200002303F017
:1003600095FA144B1B68C01A134A126890420FD3B7
:100370009B18104A1360114B1B78002B14D0D0220D
:100380001206802189045161012253400B4A1370E7
:1003900010BD0B4B0B4A3F210B4802F0B7F8FA2176
:1003A000890003F035FADCE7D022120680218904A7
:1003B0009161E9E704470020B80B00204D49002077
:1003C000E06D0010586E0010FC6D001010B506F0C6
:1003D0005FFC00F0B5F8FFF795FFFFF7A5FF0020E1
:1003E00004F0DEFED0231B06802292049A6111E005
:1003F00001200021404205F00BFA0A4BE1180122CE
:10040000002005F06FFC013480235B049C42EFD395
:10041000FFF79CFF01200021404205F0F9F900247C
:10042000F2E7C04600F0FF10F0B583B005001400FD
:10043000012951D113785B069B0F012B26D0022B8B
:100440004DD15378012B03D0022B07D0002044E07C
:100450003223244A210005F0FFFA3EE01179537956
:100460001B020B43072B01D0002036E06B469F1D7B
:100470001D4E02223100380004F0C6F83B883200DD
:10048000083A2100280005F0E7FA26E05378222BED
:1004900001D0002021E09178D3781B020B435A1E33
:1004A0009341DBB2114A13701378002B08D1104B23
:1004B000FA2292001A602100280005F0B1FA0CE03F
:1004C0000B4B00221A601E320A49002005F076FE0E
:1004D000002005F091FEEEE7012003B0F0BD002002
:1004E000FBE7C046706E0010A06F0010504900205E
:1004F000B80B0020386E0010034BFA2292001A60ED
:10050000024B01221A707047BC0B00204F4900209B
:10051000034BFA221A60034B00221A707047C04640
:10052000BC0B00204F490020002904D0002A02D033
:10053000014B024A1A607047BC0B0020C40900003E
:1005400010B582B0114B009301220121052001F06A
:10055000DDFC0F4C200001F097FE022300930433D2
:100560000C4A0121200001F0FFFD0B4C00942300F8
:1005700000220121052001F0C9FC00942300002283
:100580000021062001F0C2FC02B010BD006CDC02AC
:10059000008002400007215F406BED070048704774
:1005A000846F001000487047206F001000487047AB
:1005B000E46E001070B500280DD0052824D8800006
:1005C000124BC558280006F07BFBC0B21F2800D98B
:1005D0001F2000230EE00D4B19680D480222023047
:1005E00004F012F8012007E05A1CEC5C5100084BA3
:1005F000CC52D3B29842F7D801304000C0239B00C0
:1006000003430348038070BD0020FCE7C00B0020BB
:10061000943E002070B505000C00080000F04AFE72
:100620000949200000F08AFD00F0D6FE074B9C46E9
:100630006044800068602C75D0231B061B786B75A6
:10064000A400034BE55070BD590900104000003470
:100650000C4700200A4B1A68EFF3108172B613683A
:10066000002BFCD0BFF35F8F054B1B68BFF35F8F80
:1006700000221A6081F3108840BF002000217047DB
:100680002849002010B5002922D003681B7B99421D
:100690001ED8174B9C466144090183689C466144FF
:1006A0000C684968002A19D003681B7B9A4215D848
:1006B00083680F488446624412019A181068536890
:1006C000020001208B4201D80ED00020C0B210BD24
:1006D000084B094A3C21094801F018FF054B064A1E
:1006E0003C21064801F012FFA242EFD8EDE7C046D8
:1006F000FFFFFF0F907000109872001060700010E4
:1007000010B500291ED0037B99421BD84B005B1803
:10071000033B0468A4466344002919D0002A1DD075
:10072000914221D0002A25D0047BA24222D804681D
:1007300050008018033820188170197800291FD1C3
:100740001A7010BD104B114A6821114801F0DEFEED
:10075000104B114A6F310E4801F0D8FE0F4B0E4A74
:1007600070210B4801F0D2FE0D4B0B4A7121084855
:1007700001F0CCFE044B054A6821054801F0C6FE95
:1007800041701A70DDE7C046B470001004730010A9
:10079000D070001010710010E07200101C71001079
:1007A0002871001070B506000D001400002914D047
:1007B000002A14D0806873689847002806D0220069
:1007C00029003000FFF79CFF280007E02A002100E5
:1007D0003000FFF795FF200000E0100070BD08001A
:1007E000FCE70000F0B583B00500009201930AAB6E
:1007F0001C780BAB1F78002C26D003685A7B9442E0
:1008000007D10123002B19D1002C3BD1200003B0CC
:10081000F0BD002C0CD01A7B944209D81A686300F2
:100820001B19033BD3189B78002BEBD00123E9E77E
:100830003E4B3F4A68213F4801F068FE3E4B3F4A2D
:1008400067213F4801F062FE03689C7B002CDBD0EF
:1008500012D01A7B94420FD862001219033A196819
:100860008C46624451789973002900D1D9730023D2
:10087000937053701370C7E72C4B2D4A68212D4895
:1008800001F044FE002C3AD02B681B7B9C4236D8EA
:100890002C4BE3181B01AA6894466344009A1A6023
:1008A000019A5A60089A9A60099ADA602E68002CB8
:1008B0002BD030D0337B9C422DD863001B19033BD7
:1008C00032689446634400229A705A701A70717BA1
:1008D00022003000FFF766FF7073844200D095E776
:1008E000287D009A019B00F071FC061E01D0002FAC
:1008F00017D00C9B002B00D188E71E7086E7124BA7
:10090000124A3C210E4801F001FE114B114AA5216B
:10091000084801F0FBFD054B054A6821054801F038
:10092000F5FD2868210001F075FAE2E7B4700010C7
:1009300004730010D070001040710010107300108C
:1009400060700010FFFFFF0F907000109872001091
:100950005C700010F4720010F0B5DE4657464E464B
:100960004546E0B58BB00990002308938200B54B53
:10097000D658370052E0B44BB44A3F21B44801F096
:10098000C5FDB44BB44A3C21B44801F0BFFD002979
:1009900001D1002869D10021404601F031FAA0427E
:1009A00019D12A686B6806920793AB689846EB6882
:1009B0009A464346002B14D0002C18D03B681B7B72
:1009C0009C4214D8631EFA68D35C08931B02184338
:1009D0003861002015E0A24BA24A8E219F4801F009
:1009E00095FDA14B9F4A92219C4801F08FFD994BA8
:1009F0009E4A4121994801F089FD00239A46984674
:100A000000207B68BFF35F8F00221A6086F3108896
:100A10004346002B32D1002800D10CE100F04AFB04
:100A200002000B1EA7DB00200021069007917868CA
:100A3000EFF3108672B601680029FCD0BFF35F8F18
:100A4000396888464C7B002CD7D09AD0097B8C42E1
:100A500097D8874965182D01B9688C466544286880
:100A60006968801A9941002991DD2A686B680998A4
:100A700000F0ACFB00239A469846C2E7089B1B0295
:100A80002343994651461800C04705000E007A6876
:100A9000EFF3108B72B6136859424B41D9B2002B59
:100AA000F9D1BFF35F8F002E1EDB002E46DD3B69C0
:100AB000002B47D04B456DD100F0FCFA02000B1E15
:100AC0006EDB52197341002B70DB002B72DB0021AF
:100AD00004910131039102945146019141460091E4
:100AE0003800FFF77FFE4CE03B69002BDDD04B4523
:100AF00014D1069A079B521BB341002B14DB002B29
:100B000016DB0021049101310391029451460191B9
:100B1000414600913800FFF765FE32E0554B514ADF
:100B2000A1214E4801F0F2FC01225242524BE6E76D
:100B3000454B464A3F21464801F0E8FC002E01D1D2
:100B4000002DB4D13B68002C50D05A7B944237D151
:100B5000012100294AD1DA7B002A4DD19A7B002A53
:100B600003D1DA7B002A5AD19C73DC73002C5CD051
:100B70003B681B7B9C4258D8FA68013C135D0133EB
:100B8000135500233B617A68BFF35F8F13608BF3CB
:100B9000108843E7374B334AA421304801F0B6FCB4
:100BA000294B2A4A3F212A4801F0B0FC0122524237
:100BB000314B8AE7244B254A3F21254801F0A6FC0A
:100BC000002C0DD01A7B94420AD862001219033A05
:100BD0001868844662449278002ABAD00121B8E7A6
:100BE000264B274A6821274801F090FC264B274ACC
:100BF000F621244801F08AFC002A0AD0197B8A4297
:100C000007D851008A18033A19688C466244547018
:100C1000A4E71A4B1A4A68211A4801F077FC1C4BCA
:100C20001A4AFB21174801F071FC0A4B0F4A412177
:100C30000A4801F06BFC0BB0F0BCBB46B246A946BB
:100C4000A046F0BD0C470020E06D0010647200105B
:100C5000FC6D001090700010987200106070001011
:100C6000687100107C72001080710010BC7200105E
:100C7000FFFFFF0F8C710010FFFFFF7FB4700010AB
:100C800004730010D0700010C8710010D0720010F2
:100C9000EC71001010B50C4B5B68002B04D00A21DE
:100CA0000A4800F0DBFE10BD074C2300084A102163
:100CB000206800F0B5FF032000F0F0F903212000C8
:100CC000FFF7A8FCEBE7C046D80B0020284900201E
:100CD0008506001010B5064B5B68002B01D0044858
:100CE00010BD044B044A5E21044801F00FFCC046CD
:100CF000D80B002000720010A47200106070001069
:100D0000F0B5DE4657464E464546E0B58BB08046C8
:100D100016001F00149B9A46159B994616AB1B782C
:100D20009B461F2302AA9446634400221A702BE0BC
:100D3000002809D042461268127B904204D8421E15
:100D40004146C9688A5C41E0404B414A41214148E3
:100D500001F0DCFB07984CE0361BAF41002F07DBAE
:100D6000002F11DA3C4B3D4A3F213D4801F0CEFBBC
:100D7000012676423B4FF3E7374B384A3F2138484C
:100D800001F0C4FB002F4FDB43465A68EFF3108499
:100D900072B6136859424B41D9B20791002BF8D172
:100DA000BFF35F8F1F3302AA94466344049300236A
:100DB000039302934B4601935346009332003B004A
:100DC0004046FFF70FFD031EB2D1020041464968BD
:100DD000BFF35F8F00250D6084F31088002B29D0AE
:100DE0001F2302A98C4663441B78002BB2D1120248
:100DF0001043002B20D05B46002B1DD04946D04726
:100E000004000D0003000B431DD00029A4DB00F0FB
:100E100051F906000F1EAFDB36196F41002FB1DA12
:100E2000012676420F4FADE70B4B0C4A3F210C4891
:100E300001F06CFB012040420BB0F0BCBB46B24657
:100E4000A946A046F0BD0798F6E7C046907000108E
:100E5000BC72001060700010E06D00106472001031
:100E6000FC6D0010FFFFFF7FF8B50400002900D1E2
:100E700062E04268EFF3108572B61368584243414E
:100E8000D8B2002BF9D1BFF35F8FCBB22268567B6B
:100E9000B3421BD10120002848D0206988422BD0C2
:100EA000090AC9B2002B2ED02068007B83422AD8C1
:100EB000581EE668305C88422BD000206368BFF380
:100EC0005F8F00221A6085F31088F8BD002B0DD0CB
:100ED000167BB3420AD85E00F618033E1768BC467C
:100EE0006644B678002ED6D00120D4E7134B144ABE
:100EF0006821144801F00AFB2C21134B134AFF31DF
:100F0000134801F003FB134B134A4121104801F031
:100F1000FDFA1900100000F07DFF0028CED19921C4
:100F20000E4B0A4A49000A4801F0F0FA23698B4245
:100F3000C4D100232361C1E70020C6E7B4700010CC
:100F400004730010D0700010247200104C72001056
:100F50006070001090700010BC7200104872001099
:100F600070B584B005000C00EFF30583002B1ED193
:100F7000FFF7B0FE002302930193224B00932A0057
:100F80002300FFF7BDFE061E23DD20BFFFF7A2FEF4
:100F90003100FFF769FF1C4B5B6A9C422DD81A4A4F
:100FA000926AAA422CD29C4225D0012026E0164B00
:100FB0005B6A994209D8144A926A824207D29942DE
:100FC00001D001201AE0002018E0002016E00120E6
:100FD00014E00D4B5B6A9C4209D80B4A926AAA4204
:100FE00007D29C4201D0012008E0002006E000204A
:100FF00004E0012002E0002000E0002004B070BD09
:101000000120FBE7550600100040054070B5EFF3E6
:1010100005801038EFF3108C72B61A4B1B68002B4A
:10102000FBD0BFF35F8F01221300834016494B634F
:1010300016490B60164909780C00C440224214D0AE
:10104000114A546A8200134D5259944206D38200C9
:10105000114C125999430E4B197007E00A4A031DAF
:101060009B0099589950002200E00022BFF35F8F47
:10107000044B002119608CF31088002A00D090479F
:1010800070BDC046280100D0004005403C700540BE
:101090004E4900202C4900207441002010B5010069
:1010A000024A034800F046F910BDC04628730010FC
:1010B0004B490020044B5B6A034A906A1900536A4B
:1010C0009942F9D17047C04600400540084B5B6A21
:1010D00001E0074B5B6A8B42FBD301E0044B5B6A88
:1010E0008B4203D1024B9B6A8342F7D37047C046C1
:1010F0000040054070B504000D00FFF7DBFF020063
:101100000B0020002900801859418B4202D804D1DD
:10111000824202D901204042C117002902DBFFF7B9
:10112000D5FF70BD024B034A3F21034801F0EEF9A1
:10113000E06D0010C4730010FC6D001070B5040069
:101140000D00EFF3108672B61B4B1B68002BFBD013
:10115000BFF35F8F002D1CD0200000F0D7F9174B94
:1011600083420BD01900200000F0D8F901212000A3
:1011700000F0C4F90123A340114A1360A400114BED
:10118000E550BFF35F8F0C4B00221A6086F3108886
:1011900070BDA2000B4B0021D1500122A2400A4990
:1011A0000B7893430B700549200000F0FBFA0021F7
:1011B000200000F0A3F9E4E7280100D00D10001092
:1011C00038600540744100204E490020F0B5DE46ED
:1011D00000B584B00400150001921E000293FFF7D1
:1011E00069FF03958E4202D84ED185424CD9EFF368
:1011F000108B72B6274B1B68002BFBD0BFF35F8FA1
:10120000254A17780125A540EBB23B431370234BC9
:101210005D63221D92000199D150A20020490298DD
:1012200050501B6A2B4212D11C4B1B6C2B4208D016
:101230000020BFF35F8F174B00221A608BF31088DA
:1012400023E0184B184AC521184801F05FF9FFF751
:1012500031FF8E4214D802D1039B834210D80E4B2B
:101260001B78BB420ED00D4B1D625D631F200440F6
:101270000123A3400E4A1360074B1F701E38D8E7A6
:101280000020D6E70120D4E7012004B080BCBB4693
:10129000F0BDC046280100D04E4900200040054066
:1012A0002C4900204C730010A873001070730010BC
:1012B00080E200E0EFF3108C72B60B4B1B68002B42
:1012C000FBD0BFF35F8F01238340084A13620849B4
:1012D0000A789A430A70BFF35F8F034B00221A60AB
:1012E0008CF310887047C046280100D000400540AC
:1012F0004E490020034B1B6802201840431E9841B2
:10130000C0B2704700C00640EFF3108072B6034BC6
:101310001B68002BFBD0BFF35F8F70472C0100D000
:10132000BFF35F8F024B00221A6080F31088704772
:101330002C0100D0F8B506000C001500FFF7E4FF03
:10134000E308F718F15C07222240012393400B4287
:1013500005D1DBB20B433B70FFF7E2FFF8BD210084
:10136000280001F06DF9F0B583B00600019114007A
:101370001F00FFF7C9FF00E00134BC420CD8E308AE
:10138000F518F35C0721214001228A401A42F3D16B
:10139000D2B21A432A7001E001246442FFF7C0FF71
:1013A000002C02DB200003B0F0BD019B002BF9D024
:1013B000089801F045F90000002307E0054A9A1853
:1013C0009200BFF35F8F0021116001331F2BF5D90D
:1013D0007047C04640000034054A1078431CDBB219
:1013E0001370172B02D9130010221A707047C046D1
:1013F000000C002000B583B00100044B00931F23B4
:1014000018220348FFF7AFFF03B000BDDC730010E4
:101410008C420020074B9B68103080001950BFF3AE
:101420005F8FBFF35F8F044B0021196082F3108838
:101430007047C04600ED00E0240100D010B5091A45
:10144000081F0A4B9C466144094A914208D8C307C9
:1014500006D440104005400D064B184380B210BD25
:10146000054B064AA321064801F050F8FC0700008E
:10147000FE0F000000E0FFFFF87300104076001040
:101480002874001010B5091A04394C08090B08D14A
:101490004905490D064A11430180064B2343438009
:1014A00010BD054B054AAB21054801F02FF8C04699
:1014B00000F0FFFF00F8FFFF5C74001014760010CE
:1014C0002874001001238340034A10681840431E0B
:1014D0009841C0B27047C04600E100E0002904D046
:1014E000034B1860034B18607047034B1860FBE711
:1014F00080E200E000E100E080E100E010B50123BF
:1015000083401800FFF7EAFF10BD0000024B9B6804
:1015100010308000C058704700ED00E070B5040046
:101520000D00EFF3108672B60C4B1B68002BFBD03E
:10153000BFF35F8F2000FFF7E9FF094B984201D00E
:10154000A84205D1320029002000FFF763FF70BDDB
:10155000044B054A8621054800F0D8FF240100D03D
:10156000CD0100106C740010747600102874001007
:10157000F0B5DE4657464E464546E0B589B0814651
:1015800001911500EFF3108A72B6744B1B68002BA3
:10159000FBD0BFF35F8F724B0027DF57002F40DB7C
:1015A0007C00E419A4006F4824180622A2566C4B54
:1015B0001A706D4B9A684B4610339B00D35898466F
:1015C0001E001B1A2F2B38D9684B98452FD105AE1A
:1015D000674B33807B009B46D8198000614B98464F
:1015E000404402306349FFF729FF7080624BB380AB
:1015F000FF23B371F571019B07935F44BF0047441C
:101600000ECE0EC701231C43A04652464146484613
:10161000FFF700FF09B0F0BCBB46B246A946A046A2
:10162000F0BD564B564AD721564800F06FFF564B37
:10163000534ADE21534800F069FFC04340440C2167
:1016400002F0E6F8002912D101239E43B34633008D
:101650000026DA79AA4211D90621595600290CDB55
:101660004A00521892001E003E4B9B18F1E7474B70
:10167000434AEA21434800F049FF1E00002E3AD0B9
:1016800005AB434A1A80813A5A800623F3560293E7
:10169000002B17DA3F4805AB9B469880029A9A7157
:1016A000DD71019A0792301D2100FFF7C7FEB0805F
:1016B000B7717B00DB199B002A4FFF185B4607CBF5
:1016C00007C7A2E77800C0198000264BC018043075
:1016D000321DB388D90A1C2907D15B05591502317F
:1016E00049005118FFF7AAFED5E72B4B2B4AB12131
:1016F000244800F00BFF05AE1D4B33807B000293A6
:10170000D8198000174A9046020042440392901C68
:101710001849FFF793FE7080039A101D5946FFF792
:101720008DFEB0801E4B5A464146521A52415343D9
:101730001B0DB371F571019A0792029B9C46674499
:10174000BF0047440ECE0EC7114B5A461380813B53
:10175000538001231C43A04657E7C046240100D014
:101760004C490020040C002000ED00E0CD010010E9
:1017700000A1FFFF340C002001BDFFFFA474001086
:101780005C76001028740010CC740010F474001003
:101790000148000001BD0000687500104C76001083
:1017A000AAAA0000F0B5CE46474680B583B0060031
:1017B0000D00EFF3108872B6564B1B68002BFBD060
:1017C000BFF35F8F544B9A6834001034A300D7588E
:1017D000524B9F4207D0AF4200D198E00197504B47
:1017E000FB1A2F2B09D9424639003000FFF712FEB1
:1017F00003B0C0BCB946B046F0BD3000FFF762FE92
:10180000814600213000FFF779FEBFF35F8FEFF3D1
:101810000581002901D08C4211D10123019C9C43F8
:101820000022A368AB4212D00622A256002A0DDB8A
:1018300053009B189B002200394CE418F1E7362135
:10184000384B394AFF31394800F060FE2200AB4284
:1018500056D106256557002D38DB6B005B199A00C1
:101860002F4B9B189A68A260DA79E27106229A5689
:10187000A2719B795BB2002B0FDA2D48A0806B0020
:101880005B199B00264AD3182A4A11789971157062
:1018900049463000FFF732FEA5E7201D6B005B19BB
:1018A0009B001F4A9B181A1D9B88D90A1C2907D127
:1018B0005B055B15023359005118FFF7BFFDDDE7EB
:1018C0001D4B1E4AB121194800F020FE002912D1FB
:1018D000002A0ED0FF239371194B9380154A137879
:1018E000A371184B0E49641A644163431B0D1370B6
:1018F000CEE70A4FF2E7201D1349FFF7C3FDC7E704
:101900006A21124B084AFF31084800F0FFFD034FDF
:1019100069E7C046240100D000ED00E0CD010010D1
:10192000040C0020807500102C7600102874001024
:1019300001BD00004C490020687500104C76001075
:1019400001BDFFFFAAAA00003E0C0020B4750010E4
:1019500070B5012101432E4BCB1A2F2B28D8EFF362
:101960000583002B2BD0EFF3108C72B6294A126836
:10197000002AFBD0BFF35F8F274A0400244D641B6D
:1019800064416243120D54B2244A92689B00D258BB
:101990008A421BD00022032A32D853009B189B0096
:1019A0001B49CB189B795BB2A3421FD00132F2E7EF
:1019B000C7211B4B1B4A49001B4800F0A7FD922181
:1019C0001A4B184AFF31184800F0A0FD134A9268DC
:1019D0001749D150174B1A7882711C70BFF35F8F73
:1019E0000C4B00221A608CF3108870BD0D00530060
:1019F000991889006918FF268E710F4A8A80E9E7D5
:101A0000D1210E4B074A4900074800F07FFDC04630
:101A1000040C0020240100D0AAAA000000ED00E080
:101A2000BC750010F875001028740010E4750010E3
:101A3000CD0100104C49002001BDFFFFF0750010E2
:101A40000022044B02E0044902C30132072AFAD9FA
:101A50007047C04600E400E080808080024B9C46D6
:101A600061448900016070474000003410B50400F3
:101A7000FFF7B2FC01002000FFF7F0FFFF23237106
:101A8000BFF35F8F10BD10B50400FFF7A5FC010088
:101A90002000FFF7E3FFFF23237100236371BFF3EF
:101AA0005F8F10BD034B9C46614489000160BFF30A
:101AB0005F8F70474000003410B504000120FFF72D
:101AC00099FC01002000FFF7EDFF10BD10B50029C3
:101AD0001ED0037B99421BD84B005B18033B046864
:101AE000A4466344002919D0002A1DD0914221D078
:101AF000002A25D0047BA24222D804685000801816
:101B0000033820188170197800291FD11A7010BD70
:101B1000104B114A6821114800F0F8FC104B114A93
:101B20006F310E4800F0F2FC0F4B0E4A70210B484B
:101B300000F0ECFC0D4B0B4A7121084800F0E6FC6C
:101B4000044B054A6821054800F0E0FC41701A701A
:101B5000DDE7C046B470001034780010D07000107B
:101B600010710010207800101C71001028710010F6
:101B700070B506000D001400002914D0002A14D0FE
:101B8000806873689847002806D02200290030003A
:101B9000FFF79CFF280007E02A0021003000FFF734
:101BA00095FF200000E0100070BD0800FCE7000079
:101BB00010B50023437301338373037BC373012385
:101BC000027B9A4214D9002B0CD0027B934209D895
:101BD0005A00D218033A01688C4662440133DBB2E2
:101BE0005370EDE70B4B0C4A68210C4800F08EFC5B
:101BF000002A09D0924207D8016853009A18033A84
:101C00008A180023537010BD024B034A6821034811
:101C100000F07CFCB470001034780010D07000101C
:101C200010B5017342608360FFF7C2FF10BD000072
:101C300070B50400081E00D170BD002934D0237B8C
:101C4000994231D84B005B18033B226894466344A9
:101C50005A78002AF0D02DD0237B9A422AD85300FC
:101C60009B18033B21688C4663445D7800215970C2
:101C7000002825D0237B984222D843001B18033B21
:101C800021688C4663440021597001002000FFF751
:101C90006FFF060029002000FFF7CAFF0200310095
:101CA0002000FFF765FFC7E7084B094A682109488C
:101CB00000F02CFC054B064A6821064800F026FC83
:101CC000024B034A6821034800F020FCB470001066
:101CD00034780010D070001070B505000C001600AC
:101CE00000292FD034D0037B994231D84B005B18A8
:101CF000033B0268944663445A78002A2ED19A78AE
:101D0000002A31D11978FFF793FF0300002E0AD083
:101D1000EA7B002A2ED1AA7B002A03D1EA7B002A83
:101D20003BD1AC73EC73002B3DD1002C4FD02B7BFF
:101D30009C424CD82B6861000C19033C1C190023F1
:101D4000637070BD254B264A3821264800F0DEFB23
:101D5000254B264A6821264800F0D8FB254B204A0F
:101D60003A21204800F0D2FB234B1D4A3B211D485D
:101D700000F0CCFB002A0AD0297B8A4207D8510008
:101D80008A18033A29688C4662445470C3E7164B9C
:101D9000164A6821164800F0B9FB184B104A422138
:101DA000104800F0B3FB002B0BD02A7B934208D8DD
:101DB00043001B18033B2A689446634400229A7030
:101DC000B3E7094B094A6821094800F09FFB064B1D
:101DD000064A6821064800F099FBC046507700107B
:101DE0000C78001058770010B47000103478001090
:101DF000D070001088770010B0770010EC710010E0
:101E000070B504000A00457B2900FFF765FF607389
:101E1000280070BD70B50400002967D0437B8B4259
:101E20000ED0002911D0037B99420ED84B005B18CD
:101E3000033B0268D0188378002B0CD1002056E0B9
:101E40000121FFF7DDFF012051E0294B294A6821DC
:101E5000294800F05BFB002B20D0227B93421DD849
:101E60005A00D318033B2268D2182568EB5C8B42DA
:101E70001AD0002B1BD0227B934218D85A00D318BB
:101E8000033B2268D21853788B4216D0002BF0D136
:101E90001A4B1B4A6B211B4800F038FB144B154AA8
:101EA0006821154800F032FB4378137007E0104BAF
:101EB000104A6821104800F029FB43785370002332
:101EC0008370437001222000FFF706FF0200617B50
:101ED000814205D02000FFF74BFE6073012006E031
:101EE000094B074A7121074800F010FB002070BD24
:101EF000B470001034780010D0700010F07500102D
:101F0000F477001058770010D4770010F8B5DE464B
:101F100057464E464546E0B505000F0092460A9AE0
:101F2000934250D31A0E91461E020A9A00233000A3
:101F3000494601F0ABFC80466C006419A400304BAC
:101F40009C4664446368834200D260602B1FDBB20E
:101F50009B46012B3DD9C0239B01234380221201C4
:101F60001A60AB00274A9958002907D0506901F040
:101F70004FFC431C5800C0180338FDD253465A0189
:101F800023685A40E0231A4080235B0123431A60F0
:101F90005A46012A28D980239B012343802212011B
:101FA0001A6043466360424600233000494601F010
:101FB0006DFCAD00134B58510120F0BCBB46B2463E
:101FC000A946A046F8BD104B104A3321104800F036
:101FD0009DFA012FBFD1C0239B01234303221A6026
:101FE000A368DB07FCD5C9E72168794003220A40D2
:101FF0001A60A2680123BB401342FAD0CBE7C04667
:10200000008000409042002040780010907800103E
:102010005478001030B583B00C2000F039F9FFF788
:1020200069F900280DD0002304E099002D4A2E48BC
:1020300088500133092BF8D92A4B2C4A5A6203B035
:1020400030BD2B4B00229A6700F02AF9294B012260
:102050001A60274B5B6C012BFBD1274B03221A60C4
:10206000234B9B6B012BFBD1013300930433234A99
:102070000121234800F078F805230093214A01212B
:10208000214800F071F8214B009300220221042026
:10209000FFF73CFF1E4D00952B000022012105207B
:1020A000FFF734FF104C009423000022002107208A
:1020B000FFF72CFF00942300002200210820FFF7E7
:1020C00025FF0A4B00932300002200210920FFF77F
:1020D0001DFF00952B00002200210620FFF716FFB0
:1020E000ADE7C04690420020006CDC021BB7000048
:1020F000008000403CB0004030B00040002F6859E4
:1021000000800240008C864700C00240001BB700E0
:10211000405973078000014BC0587047904200201F
:1021200010B58300084A944663441C68402262400C
:10213000C02414408022520113431C60C000034B92
:102140009C466044416010BD04C001400040014015
:1021500010B501238340D0221206936293610521BA
:10216000FFF7DEFF10BD0000F0B5C64600B5040065
:102170000E0017001D00374801F04AFB8046364B21
:10218000FA18364B9A4239D80100380001F040FB6A
:102190000200103A98235B009A4235D86B1E062B3A
:1021A00038D8069B013B062B34D83F09474537D327
:1021B0002D04069B1A0315432368002B36DB284B9E
:1021C0009C4244D080225201264B1A60264B1A6052
:1021D000264B9B6811009943FAD12660A060231D0D
:1021E000C02292011A43212313602368002BFCDADA
:1021F000E5600823136080BCB846F0BD1C4B1D4A47
:1022000011211D4800F082F91C4B1A4A19211A4865
:1022100000F07CF91A4B174A1C21174800F076F998
:10222000184B144A2321144800F070F922683F2308
:102230001340B342C3D1A3681B051B0D8342BED11B
:10224000E368EE22D2021340AB42B8D1D3E780223A
:102250009201B9E7001BB70080E84BD380F8A932A0
:1022600000C0024000E0004000F0004000C000401C
:10227000A0780010B87900100079001034790010AF
:10228000507900109C7900102D23436070470000A6
:1022900080239B000343014AD362704700800540BE
:1022A000064BAA2212011A602F22DA60044B054A5B
:1022B0001A60024B5B68002BFBDA7047004002405B
:1022C0000060024000B0FA0070B5046BE30701D46F
:1022D000200070BD02003032C0239B0113430A4A24
:1022E0001A60456A826AAD01AD18AD020620FFF79B
:1022F00011FF064901F08CFA0100280001F088FA6C
:102300000021FEF7F7FEE3E7010300004E0E000098
:1023100070B504000E001500FFF7D6FF22002C3226
:10232000E16A4E40354080235B0113431D6020630A
:1023300070BD000070B505000C000620FFF7EAFE36
:10234000C000210001F064FAC60908D00E4B9E427D
:1023500016D87F23184001303400460800E00124DD
:102360006C62AE62002200212800FFF7D1FF062038
:10237000FFF7D0FE8000A101891901F049FA70BD74
:102380000026024CECE7C046FEFF0000FFFF000005
:1023900010B505394901013AD2001143002B09D08B
:1023A00002220A43012B07D0002111436E22FFF7BE
:1023B000AFFF10BD0022F4E70421F6E7002909D0A1
:1023C0000A22064B9C466044434258414000044B5D
:1023D000C252704780225200F3E7C0460080FCBF23
:1023E0003C49002070B505000C000620FFF792FE66
:1023F000061E27D0164B9D4226D08022D203154BB5
:102400001A60154B1A60154B9B6811009943FAD15D
:1024100000212800FFF7D2FF21002800FFF78AFFE4
:1024200006000023012208212800FFF7B1FF2A003F
:102430002C3280239B01134310221A60084B2B631C
:102440000323AB64300070BD80221204D7E7C0467E
:102450000080034000E0004000F0004000C0004069
:102460000103000070B588B0040004AD0026049696
:102470000922002105A802F0C1F8009609220021D6
:1024800001A802F0BBF84B232B700D2269462800EF
:1024900004F046FC002304E05A1D69468A5CE254BD
:1024A0000133072BF8DD08B070BD10B5010018230B
:1024B0001B8814221088984710BD10B501001823FE
:1024C0001B8816221088984710BDF0B5C64600B587
:1024D00007000E0000250123984600E00135B542B3
:1024E0000AD2AC003C192068FFF7DFFF206000280B
:1024F000F4D100239846F1E7404680BCB846F0BDD1
:1025000000BEFDE710B5FFF7FBFF000010B582B07D
:102510000C001900002A0CD0084B002A0BD00192A5
:10252000009323000200064802F0C6F90120FFF7DD
:10253000E7FF044BF1E7034AF1E7C046247B0010B4
:10254000347B0010307B001070B52B4B2B4A1A6087
:102550002B4B2C4A1A602C4B9A682A4B9343FAD186
:102560002A4C01E008CC9847294B9C42FAD3FFF74C
:1025700051FD234B274A1A60234B9B68DB43DB0149
:10258000FAD1254B40229A675A671A67DA66234CBC
:1025900009E0234B234A87212348FFF7B7FF200098
:1025A000FFF764FA0834214B9C4209D22368002BC0
:1025B000F5D0012BEDD12000FFF765FA0834F2E7E2
:1025C0001B4CA1681B4DC022280002F01DF8A5601D
:1025D000EFF30583002B00D000BEFEF7EDFEFFF702
:1025E0002FFAFEF757FB144C01E008CC9847134B29
:1025F0009C42FAD370BDC04600E00040BFCDFBFE58
:1026000000F00040FE7F3C0000C00040C00C0020F5
:10261000D00C0020FFFFFF0100F00140B00C0020B3
:10262000647B0010D07B0010847B0010C00C002065
:1026300000ED00E000000020D00C0020D80C0020AD
:102640000FB400B583B0084802F006F9049B002BD4
:1026500007D005A90191180002F00EF9034802F015
:10266000FBF80120FFF74CFFBC7B0010CC7B001077
:10267000704710B5002802D00B684968984710BD14
:102680000100002007E083001B185B00501C08605D
:102690001078C01830380A681378303BDBB2092B49
:1026A000F1D97047F0B5DE4657464E464546E0B58F
:1026B00083B093461F000C9B9A460D9C0E9B994637
:1026C0000F9B9B0703D0B8460F00060022E0019243
:1026D000A34688464E46B9460700B44207D2551C69
:1026E0004B4641462020B84701342A00F5E73D001B
:1026F0004F465C46019B9B46B1464646B84637006E
:102700002E0007E0013C551C5346185D4346390036
:10271000B0472A00002CF5D135003E0047460F9BFC
:102720009B0707D4100003B0F0BCBB46B246A946D5
:10273000A046F0BDB0464E46B9462F005D46531B3D
:10274000B342EFD2541C4B4641462020B8472200EA
:10275000F5E7F0B5CE46474680B585B09446984635
:102760000C9D0D9C0EAB1B789946109A119B129EE6
:10277000B7071CD4002B0CD0F7070AD54F46002F03
:1027800002D10C37374204D0013B02E030272F55ED
:102790000134944201D21F2CF8D9F70707D59C4287
:1027A00005D21F2C03D830272F550134F5E7F70643
:1027B00015D5770505D4002C03D0944224D09C4233
:1027C00022D00F9A102A2BD00F9A102A30D00F9AAD
:1027D000022A35D01F2C02D830222A5501341F2C52
:1027E00005D84A46002A31D02D222A5501340396B5
:1027F00002930194009543466246FFF753FF05B0EC
:10280000C0BCB946B046F0BD621E012C06D00F9F79
:10281000102F01D01400D4E7023CD2E71400D0E717
:10282000B206D1D41F2CCFD878222A550134D1E753
:10283000B206CCD51F2CCAD858222A550134C9E774
:102840001F2CC7D860322A550134C3E7720703D55D
:102850002B222A550134CAE73207C8D520222A552F
:102860000134C4E7F0B5DE4657464E464546E0B56E
:1028700093B081468A46089209931CAB10CB1B7813
:102880009B461E9D219B9846002C03D11023424657
:102890009A4390468023DB0046461E4042461A4239
:1028A00012D0002C22D000260EE03033D9B2771C93
:1028B0000AAB99552900200000F0AAFFAC4216D3BC
:1028C0001F2F14D83E0004002900200000F0A0FFB4
:1028D000CBB2092BE9D94246920605D54121C91848
:1028E000C9B20A39C9B2E2E76121F8E727004346D5
:1028F0000693209B05931F9B049303955B460293CD
:1029000001970AAB0093099B089A51464846FFF786
:1029100020FF13B0F0BCBB46B246A946A046F0BDAE
:10292000F0B5DE4657464E464546E0B595B00890B0
:1029300009910A920B931E9E1F9C20AB1B789B460D
:10294000229B9946239D269B9A463300234303D11D
:10295000103352469A4392468023DB0057461F406D
:1029600052461A4219D0330023432DD0002714E0D9
:102970003033DAB27B1C98460CABDA554A462B0052
:102980003000210000F082FFA5421FD819D0434635
:102990001F2B1BD8474606000C004A462B00300070
:1029A000210000F073FFD3B2092BE1D95246920601
:1029B00005D54122D218D2B20A3AD2B2DAE7612260
:1029C000F8E7B145E3D901E0002398465346069362
:1029D000259B0593249B04934B4603935B460293EC
:1029E000434601930CAB00930B9B0A9A09990898F4
:1029F000FFF7AFFE15B0F0BCBB46B246A946A046F5
:102A0000F0BD0000F0B5DE4657464E464546E0B5FF
:102A100091B083468A460C9298461A9C08941B9D56
:102A2000099522002B002000290001F0BAF90028A6
:102A300000D0E5E001225242D74B2000290001F0EE
:102A4000ABF9002800D0DBE001225242D34B20003A
:102A5000290001F08BF9002800D0D1E000220023EA
:102A6000089E3000099D290001F080F9002800D05F
:102A7000DDE008980999069007918023DB001E9AF3
:102A80001A400D921E9A1A4201D106231C930698F1
:102A9000079904000D000A000600024300D1D1E0AE
:102AA000080D4005400DBE4CA44660440A03120BBD
:102AB000BC4B13431F0001F087F9BB4ABB4B01F02D
:102AC00012F9BB4ABB4B01F0E7F804000D000022ED
:102AD000B94B3000390001F0D6F8B84AB84B01F0D4
:102AE00002F902000B002000290001F0D5F801F0E6
:102AF00083F9814601F068F904000D00B14AB24B38
:102B000001F0F1F80022B14B01F0C6F801F074F9C0
:102B10000600AF4AAF4B2000290001F0E4F80400A2
:102B20000D00300001F050F9AB4AAC4B01F0DBF87E
:102B300002000B002000290001F0A5F804000D00A0
:102B400002000B0001F0CFF80A900B91A44BF31890
:102B500000261F0522002B002000290001F09CF810
:102B60000E900F9122002B0000208021C90501F05A
:102B70008AF804000D0000229A4B0A980B9901F084
:102B800094F80022984B01F087F802000B000A9895
:102B90000B9901F08AF80022944B01F07DF80200B5
:102BA0000B000A980B9901F080F802000B0020003E
:102BB000290001F071F802000B000E980F9901F046
:102BC00074F80022774B01F067F832003B0001F007
:102BD0008AF806000F0004000D00069A079B01F01A
:102BE000DBF8002830D001235B429C46E144002200
:102BF0007D4B3000390001F058F804000D0023E04F
:102C00001E9B04931D9B03931C9B0293089A099B94
:102C10000092019343460C9A5146584600F0FCF846
:102C200011B0F0BCBB46B246A946A046F0BD002399
:102C3000002406930794069680231B069C46654451
:102C400007951AE7002399464B466333C62B1ED8D7
:102C500004261E9B1B0526D52B0023430FD0644A58
:102C6000644B0698079901F08FF8002879D000226C
:102C7000614B0698079901F079F8002871D01C9BE8
:102C80004B4506DD4A46981A431E1C9303E0052671
:102C9000DFE700231C938023DB001E9A1A431E9259
:102CA0000026002399461D9B9E4264D29F1B02234F
:102CB0001E9A1A400A921E9A134202D0002E00D089
:102CC00000274B46002B07D022002B0006980799BF
:102CD00000F0EBFF06900791002200230898099965
:102CE00001F044F8002848D1444B1E9A1340049345
:102CF00003971C9B0293069B079C009301944346F9
:102D00000C9A5146584600F087F8002E00D187E70C
:102D10001E9B9B063DD54525441C4346020051465B
:102D20002800D8474B46DA179B18534005220592D6
:102D3000013E0496002203920A3202924A46D00FC4
:102D4000019000934346220051465846FFF78AFD02
:102D50000A9B002B00D163E702005F460C9E1D9D7D
:102D600054E01C9B002B9ED00D9B002B9BD01C9BEA
:102D7000013B1C9397E7002799E7069C079D2200DB
:102D8000290080200006844661440B0006920793C8
:102D9000AAE76525C0E7C046FFFFEF7FFFFFEFFF13
:102DA00001FCFFFF0000F03FFB799F501344D33F2D
:102DB000B3C8608B288AC63F0000F83F61436F6349
:102DC000A787D23F71A379094F930A400000E03FE3
:102DD0001655B5BBB16B0240EF39FAFE422EE63F05
:102DE000FF03000000002C400000244000001840B9
:102DF0002D431CEBE2361A3F80842E41FFF7FFFF84
:102E0000541C434651462020B8472200931BAB4236
:102E1000F6D3100004E7C046F0B5DE4657464E46EE
:102E20004546E0B595B00690079193469946209F98
:102E30001E9A1F9B1000190000F0B3FF002831D12B
:102E400001225242BF4B1E981F9900F08FFF0028AD
:102E500037D101225242BC4B1E981F9900F09CFFB3
:102E600000283DD10022B94B1E981F9900F094FF15
:102E7000002850D10022B64B1E981F9900F076FF13
:102E8000002848D1002200231E981F9900F06EFFF1
:102E9000002850D100239846229B5B0500D4B6E061
:102EA000002458E0229B0393219B02930323019368
:102EB000A84B00934B465A4607990698FFF7F2FB3A
:102EC0000EE1229B0393219B029304230193A24BC7
:102ED00000934B465A4607990698FFF7E3FBFFE03D
:102EE0000423229A1A4022990B4210D09B4B002AAD
:102EF0000FD004222299039121990291019200930B
:102F00004B465A4607990698FFF7CCFBE8E0944BEE
:102F1000EDE70322EEE7229B0493219B03930297A4
:102F20001E9B1F9C009301944B465A460799069896
:102F3000FFF768FDD4E01E9A1F9B0020002100F0DF
:102F4000A2FE1E901F9101239846A5E70CAB3022EC
:102F50001A55013F01341F2C01D8092FF6D81E98AD
:102F60001F9900F049FF050000F02EFF02000B0042
:102F70001E981F9900F087FEFA007A4B9B181A687A
:102F80005B680A920B9300F0AEFE0890099100F086
:102F900057FF060000F014FF02000B000898099983
:102FA00000F071FE0890099100226F4B00F0F4FED2
:102FB00000282ED00136300000F002FF02000B0086
:102FC0000A980B9900F0D8FE002801D001350026A0
:102FD000002F2CD1280000F0F7FE02000B001E98F5
:102FE0001F9900F050FE06000F0000225E4B00F01B
:102FF000BDFE002846D100225B4B3000390000F0B6
:10300000CBFE00283ED1EB073CD501353AE0062740
:1030100046E70022544B0898099900F0A7FE0028C3
:10302000D6D1002E01D0F307D2D50136D0E7AA467B
:103030001F2C11D8013F0A21300000F0E9FB651C6C
:1030400030310CAB19550A21300000F0E1FB092E9C
:103050000ED906002C00EBE755461F2C0CD87B1E22
:10306000002F09D00CAA302111551F000134F4E7BC
:103070002B0055461C00F0E71F2C03D80CAB2E226A
:103080001A5501341F2C10D80A21280000F098FB93
:10309000661C30310CAB19550A21280000F090FB5A
:1030A000051E01D03400EDE734000323229A1340BB
:1030B000012B1CD01F2C06D84346002B32D00CAB62
:1030C0002D221A550134229B0393219B02930194D4
:1030D0000CAB00934B465A4607990698FFF7E2FA65
:1030E00015B0F0BCBB46B246A946A046F0BD219B38
:1030F000002B13D04346002B02D10C3313420FD0C8
:10310000219B013B2193190003E00CAB30221A559F
:1031100001348C42CED21F2CF7D9CBE72199F8E7A6
:103120002199F6E7229B5B0704D50CAB2B221A559D
:103130000134C8E7229B1B07C5D50CAB20221A55CA
:103140000134C0E7FFFFEFFFFFFFEF7F65CDCD410B
:1031500065CDCDC1EC7B0010F07B0010E47B00104E
:10316000E07B0010D87D00100000E03FF0B5DE46A7
:1031700057464E464546E0B593B082468B4690464C
:103180001193002900D1EBE200275546119B1878D6
:10319000002800D1E7E2252809D07C1C43463A00EC
:1031A0005946A847119B013311932700EEE70133DD
:1031B00011930024119A11780B00203BD8B21028EB
:1031C00003D88300D048C3589F460B00303BDBB286
:1031D000092B2CD92A292FD000230A93119B1A7866
:1031E0002E2A39D000239A46119A1378683BD9B217
:1031F000122976D88B00C549CB589F4601231C4322
:1032000001321192D6E702231C4301321192D1E719
:1032100004231C4301321192CCE708231C430132E2
:103220001192C7E710231C4301321192C2E711A883
:10323000FFF726FA0A90D1E71C9B1A1D1C9218680A
:10324000002804DB0A90119B01331193C6E7022387
:103250001C4343420A93F6E78022D20014435A1CCF
:1032600011925A781300303BDBB2092B04D92A2A79
:1032700007D000239A46B7E711A8FFF701FA824664
:10328000B2E71C9B1A1D1C921868002804DB8246BA
:10329000119B01331193A7E70020F8E780235B001F
:1032A0002343511C119152786C2A01D01C0018E064
:1032B000C0239B001C430131119112E08023234362
:1032C000511C11915278682A01D01C0009E0C023DA
:1032D0001C430131119104E080235B001C43013247
:1032E0001192119B18780300253BDAB2532A00D9BA
:1032F0002CE29300864AD3589F4680239B001C43B0
:1033000001321192EDE780235B001C4301321192E0
:10331000E7E7782809D0582838D06F2838D06228B5
:1033200038D010239C430A2600E01026582833D0BA
:10333000692803D0642801D00C229443630501D589
:103340000122944369282AD0642828D0A30500D5F7
:103350009FE0E30500D5B8E0630600D4CAE01C9AFC
:10336000111D1C911168FF220A4005940A9B0493C9
:1033700053460393029600230193009243463A007A
:1033800059462800FFF76EFA070027E01026CDE720
:103390000826CBE70226C9E720221443C8E7A30585
:1033A00020D4E30550D4630666D51C9A111D1C91E8
:1033B0001168FF220A40D317D118594005940A9B7F
:1033C0000493534603930296D20F01920091434611
:1033D0003A0059462800FFF745FA0700119B0133D0
:1033E0001193D3E61C9BDA1D07218A431100083193
:1033F0001C91116853689C46DB170C930D930C9A33
:103400000D9B100048400E90624653400F930E985B
:103410000F990C9A0D9B801A99410E900F91089468
:103420000A9B07935346069304960023059363462D
:10343000DA0F02920090019143463A005946280063
:10344000FFF76EFA0700C9E71C9A111D1C9112685C
:10345000D317D118594005940A9B049353460393FC
:103460000296D20F0192009143463A005946280035
:10347000FFF7F8F90700B1E7230605D51C9A111DDF
:103480001C910023D25E96E71C9A111D1C911268B4
:1034900091E71C9BDA1D07218A43110008311C911A
:1034A00008940A9B079353460693049600230593BA
:1034B0000293136854680093019443463A005946B6
:1034C0002800FFF72DFA070088E71C9A111D1C91B0
:1034D00005940A9B04935346039302960023019399
:1034E0001368009343463A0059462800FFF7BAF99B
:1034F000070073E723060DD51C9A111D1C91126855
:103500001204120C31E7C046F87B00103C7C00101E
:10351000887C00101C9A111D1C91126825E7462812
:103520001AD01C9B0733072293431A0008321C92BF
:1035300004940A9A0392524602925C681B680093B4
:10354000019443463A0059462800FFF765FC0700FE
:10355000119B0133119319E620231C43E1E76728EF
:1035600001D0472802D180231B011C43452801D0EC
:10357000472801D120231C431C9B07330722934378
:103580001A0008321C9204940A9A0392524602923C
:103590005C681B680093019443463A005946280032
:1035A000FFF730FA0700119B01331193EEE5022378
:1035B0001A002240924623421FD001241C9B1A1D50
:1035C0001C927A1C9146187843463A005946A847FF
:1035D0005346002B16D1119B013311934F46D5E56D
:1035E000561C434659462020B847230032005C1C35
:1035F0009D42F5D83D001700E0E701233A002F0077
:103600000A9DF4E74A46A9460A9D06E0571C434630
:1036100059462020C84734003A00661CA542F5D818
:103620004D469146D7E71C9B1A1D1C921B68994674
:103630005346002B00D1013B4E4601E001361300FA
:103640003278002A02D05A1E002BF7D14B46F21ACC
:1036500010928023DB0026001E401C4203D05245FE
:1036600001D95346109302231A0022400B922342A1
:1036700005D03A0037004C46A946554620E03A00AE
:10368000109B5F46B3462E0006E0551C43463900AA
:103690002020B04723002A005C1C0A999942F4D8E4
:1036A00035005E46BB46109437004C46A946554649
:1036B00006E01D000134561C43465946C8473200F7
:1036C0002078002804D0002FF4D06B1E002DF0D1FC
:1036D00017004D460B9B002B03D1119B0133119317
:1036E00054E50A9F109B06E0561C4346594620208D
:1036F000A847230032005C1C9F42F5D81700ECE776
:1037000021231C431C9B1A1D1C921B6800930594CB
:103710000823049353460393102302930023019339
:1037200043463A0059462800FFF79CF80700119BD2
:10373000013311932AE57C1C43463A005946252063
:10374000A847119B0133119327001FE57C1C4346BA
:103750003A005946A847119B01331193270015E5FC
:103760000A4B9A4610E5AA46474502D343465A1EDD
:1037700000E03A00434659460020D047380013B0D5
:10378000F0BCBB46B246A946A046F0BD712600106B
:1037900000B585B0029003910121009313004A42C5
:1037A00002A90248FFF7E2FC05B000BD7326001035
:1037B00001480421014B1847500C0020CB24001075
:1037C000124A936F9B0815D29066D166002905D0E6
:1037D000FFE7FFE7FFE7516F106F704704B58021E7
:1037E0000906C2175140002800D0C84303F0C0FAB0
:1037F000002104BDF0B5146E556E576F166FFFF7BC
:10380000E3FF1466556657671667F0BD000000D0E9
:10381000114A936F9B0813D210665166002905D098
:10382000FFE7FFE7FFE7516F106F704704B500280F
:1038300001D00020C04303F09BFA002104BDC04624
:10384000F0B5146E556E576F166FFFF7E5FF1466EF
:10385000556657671667F0BD000000D094464A4A87
:10386000926F9208624601D228E0C046F0B5464EFB
:10387000346E756E776F366F00F020F89446424ACA
:1038800014665566576716676246F0BD94463E4A11
:10389000926F9208624601D254E0C046F0B53A4EAB
:1038A000346E756E776F366F00F04CF89446364A7A
:1038B00014665566576716676246F0BD002B24DB19
:1038C00011D000293EDA00B5C943404200D1013190
:1038D00000F038F8C943404200D10131DB43524285
:1038E00000D1013300BD002AEBD1002801D100290D
:1038F00005D00020C90FC90701D1C043410800B558
:1039000003F01EFA0022002300BD00B500290ADBE7
:10391000DB43524200D1013300F014F8C943404266
:1039200000D1013100BDC943404200D10131DB4328
:10393000524200D1013300F005F8DB43524200D17E
:10394000013300BD002923D1002B18D1002A0CD04F
:10395000BC460D4F38667A6600210023FFE7FFE77B
:10396000FFE77A6F386F67467047002801D0074835
:10397000010000B503F0E4F90022002300BD0200BD
:103980000B00002000217047000000D0FFFFFFFF68
:10399000002B00D0BFE0130C28D1002AE7D080B460
:1039A000114F39667A66FFE7FFE730B4040C7B6F8E
:1039B000396F1B0423433B667A66FFE7FFE7FFE7A7
:1039C000C04684B27B6F3D6F1B0423433B667A661F
:1039D000FFE7FFE7C04600232C042D0C7A6F386FF9
:1039E00000196941B0BC7047000000D0F0B59446A2
:1039F0000025140E01D112020835140F01D1120155
:103A00000435940F01D192000235D40F01D1520038
:103A10000135D40B0134254F7C66254C3C660E0CD9
:103A200093B2FFE7FFE7FFE73C6F6643360C77038F
:103A3000BE467343DF0B5B04C01AB941130C7343DA
:103A4000DB18C91ACE086643360CB64493B27343EA
:103A50001F0F1B01C01AB941130C73431F0B1B0529
:103A6000C01AB941860D8F023E436643360C092DBC
:103A700024DB520A7243801A7703460A6643360CE7
:103A800016235B1BDE40DF40BF1964466643821B82
:103A90007046043506330100D940A840C01900D350
:103AA0000131A24206D20023F0BD0000000000D088
:103AB000FFFFFFFF121B0130F3D3F1E709277F1B44
:103AC000FE406446A2B27243801A00D20139220C31
:103AD0007243130C1204821A99410B00704604358C
:103AE00013370100F940A840801900D30131002BA1
:103AF00002D1A2420AD2F0BD013000D30131121B23
:103B0000FAD2013BF8D1A24200D2F0BD013000D37D
:103B10000131121BF7E7F0B51C0C00D080E00CB4AB
:103B200000251C0A04D11B02160E3343120208356D
:103B30001C0B04D11B01160F3343120104359C0BDF
:103B400004D19B00960F334392000235DC0B02D167
:103B500092185B4101351C00971864410134464FAF
:103B60007C66464C3C660E0CFFE7FFE7FFE7C0466D
:103B70003C6F6643360C7703BE4697B27743C01B53
:103B800000D20139C01B00D201399FB27743C91B53
:103B9000C91B170C77437E04FF0B801BB941CE086D
:103BA0006643360C0C2D33DBB644120B1F053A432B
:103BB0001B0B97B27743C01B00D201399FB27743EA
:103BC000C91B170C77433E043F0C801BB941860D7F
:103BD0008F023E43664329277F1BFE400C3D7746FC
:103BE000AF40BF1930BCA2B2ABB272437343801A6C
:103BF0009941220C7243130C1204801A994102005D
:103C00000B000137001BA941F9D2781E0021F0BD3D
:103C10000C277F1BFE4077467F0BAF40FF19E0E784
:103C200000245D1C07D0144F7D663966FFE7FFE76F
:103C3000FFE7FFE73C6F95B29EB265436643401BCA
:103C4000B141150C1E0C6543664336042F0C3E43F0
:103C50002D04401BB141994204D202000B00200008
:103C60000021F0BD01D19042F7D3801A994101346F
:103C70009942F2D3F6E70000000000D0FFFFFFFFFB
:103C800048404140484018B41B4B5B68FC460193D8
:103C900008BD04DF5B3F001018B4174B1B68FC46DF
:103CA000019308BD00DF653F00109446134A926FF0
:103CB000920809D2624618B40F4BDB68FC460193A8
:103CC00008BD0CDF1D4200100C4AF0B5146E556E95
:103CD000576F166F6246FFF7EEFF084A1466556687
:103CE00057671667F0BD18B4034B9B68FC460193F9
:103CF00008BD08DFC140001024470020000000D0AC
:103D0000FFB550404240504059404B40594000E0C0
:103D1000FFB5154F4C00640D03D0BC4204D10C0319
:103D200014D80020090D09055C00640D03D0BC42C5
:103D300004D11C030AD800221B0D1B0501264B4091
:103D400009D44B4003D58B4200D18242FFBD99423A
:103D5000FCD19042FFBD0B43DB1803431343F5D066
:103D6000C9434918FFBD0000FF07000000B5FFF779
:103D7000CFFF804100BDC04600B5FFF7C9FF01D9A4
:103D8000002000BD012000BD00B5FFF7B9FF01D93B
:103D9000002000BD012000BD00B5FFF7B1FF80414C
:103DA00000BD012040054A00121804D85A0012181C
:103DB00001D80020704701207047002070470000A4
:103DC0000021002805D17047C1174840401AFAD099
:103DD000C90713B5064B1B6898470CBC441CA2408E
:103DE0001005120B0349091B09051943114310BDA6
:103DF000244800201F04000010B54C00620D8023F1
:103E0000D218DB00D21A5B057E2A10DD9E3A13DA47
:103E1000CC170903490819435242D14064000134C8
:103E20001532202A05DAD0400843604310BD002037
:103E300010BD0846604310BDC80FC018013810BD42
:103E400018B4044B5B6AFC46019308BD24DFCD43E4
:103E5000001000002447002070B513231C78012CAB
:103E600014D0012C14DC022C02DC1F4A1F4B9A6474
:103E70001F48FEF71AFB1F4B186070BD99001A48C7
:103E80001A4A885001331F2BF8D9EAE70023FAE7D2
:103E90001948FEF712FB05001848FEF70EFB023822
:103EA00003789B007F2B19DD802229000F4800F04A
:103EB000ABFB022CD7D1124B1A88B5231B029A42B6
:103EC00009D1104B1A88104B9A4204D10F4B1A8813
:103ED0000F4B9A42C7D00020FEF7B2FB0D4B0E4AA3
:103EE00032210E48FEF712FB213F0010244700202C
:103EF0004C33000024480020534400005346000087
:103F000054380000D8380000494600009C380000B2
:103F100059460000287E0010BC7E00107C7E0010F8
:103F200007B56046002800D100BE01880A0A0230A9
:103F3000DF2AFAD1C9B2820804D30288408800047B
:103F4000104300E00068024A5050039007BD000093
:103F5000244700200FB403BC0CBCF0B50124E407D7
:103F6000634000E0F0B50C0DCF0F661E3605891BCF
:103F7000640503D3C943404200D30131640D03D02B
:103F8000661CF60A07D0E41B00207F00791C890715
:103F90008912803C24031D0DDF0F6E1E36059B1B0E
:103FA0006D0503D3DB43524200D301336D0D03D0C3
:103FB0006E1CF60A07D0ED1B00227F007B1C9B07BE
:103FC0009B12803D2D032F1B661B58D4A446202E28
:103FD00046DA20371400BC401D00BD40F24033419A
:103FE0002A4380185941CB0F05D0C943C043002252
:103FF00064425041514162464D0D28D10D0D07D10B
:1040000000281FD0241940414941013A0D0DF9D033
:10401000640006D3013000D30131002C01D14008E7
:104020004000013A0BD4941CE40A04D11205114457
:10403000DB071944F0BDD907204B194300E0D9072D
:104040000020F0BD0029DDD1002CDBD1F0BD013214
:10405000C6074008CD0728434908002EE1D0D9E71C
:104060003C2E29DA203E40371400BC4000D0012409
:10407000F24014431A00BB401C43D317ACE7AC46D4
:10408000202F08DA20360400B4400D00B540F84077
:1040900039412843A5E73C2F0CDA203F4036040085
:1040A000B44000D00124F84004430800B1400C4360
:1040B000C117EAE710001900002494E70000F07F20
:1040C000F0B50C0D661E3605891BE60A6405640D05
:1040D00002D0651CED0A04D0002001210905803CB6
:1040E0002403A4461C0D671E3F05DB1BE70A64057D
:1040F000640D02D0651CED0A04D0002201231B05CB
:10410000803C24037740644497B484B296B27443ED
:10411000070C7E43150C6F4380B26843361802D3F8
:10412000012000043F183004350C00197D418446FD
:1041300088B29AB250430C0C62431F0C7C438EB27F
:104140007E43921902D301263604A4191604170CD3
:104150003618674101BC81B29AB25143040C6243E4
:104160001B0C5C4380B25843121802D30120000498
:1041700024181004130C401863412D185E410020D0
:10418000474106BC88B293B258430C0C6343120CEF
:10419000544389B251435B1802D3012109046418C6
:1041A00019041A0C091862416D1856410020474144
:1041B00018BCF902720D1143F0026A0D1043ED02B2
:1041C0000A0D03D16D1940414941013B124E9B1B21
:1041D0007600B3420ED26D0007D301300026714144
:1041E0006646354301D1400840001B05C918E40765
:1041F0002144F0BD0BDA013306D1013004D1013185
:104200004F0D01D04908F2E7E1070020F0BD01366B
:1042100031050020EBE70000FF030000F0B51C0DA6
:10422000671E3F05DB1BE70A6405640D02D0661CB0
:10423000F60A04D0002201231B05803C2403D0256C
:104240002D060026F6432E661E096E66CE0FF61961
:10425000B44649004F0D02D07E1CF60A03D0002060
:104260000021403F3F033E1BB600B444013F7F05A1
:10427000C91B49082E6F013676089C02950D25430F
:104280007543ED137543AD1301356D10F603761BC1
:104290000CB4CC02450D2C43A2B2B3B25A43270C46
:1042A0007B43350C6F43A4B26C431B1902D301242A
:1042B00024043F191C041D0CA4187D4124196D41D0
:1042C000009A91B2ACB26143170C7C432B0C5F4354
:1042D00092B25A43A41802D301221204BF18220436
:1042E000230C52187B41019C6C431B19520ED901BF
:1042F0000A434401A01A81B2B2B2514303145A4393
:10430000360C734387B27743D617D21900277E4104
:1043100036049B191704160C7F185E417316ED18AE
:10432000F301002680337541A90F06D16400690AA4
:10433000E8055B0A184309D22FE004229444803335
:104340007541A90AA8059B0A184326D34041494153
:104350002404009A019B0D005543641B4343E41A57
:1043600095B286B27543170C7E43030C5F4392B23D
:104370005A43B61802D301221204BF183204330C78
:1043800052197B4152429C41002C02D40022013040
:1043900051414008CA071043490802B06246D70796
:1043A0009210084BD218084B9A4203D21205891872
:1043B000C919F0BD0020002A01DC3900F0BD01332D
:1043C0001905F5E7FD030000FE070000002200B517
:1043D000203200F004F8080000BD000000220B1598
:1043E0000AD410B5944600F031F81414013400DA00
:1043F0000021CB17144C2047002000217047624455
:10440000343A0CD40C2A07DA04009140904052420E
:104410002032D440214310BDD843D94310BD2032AF
:1044200007D40C469440524220321141D0402043E0
:1044300010BD0800C917203203D452422032104167
:1044400010BD1800190010BDFF4300100A0DCC0F5D
:10445000531E1B05C91A520503D3C943404200D35A
:104460000131520D03D0531CDB0A07D0121B002070
:104470006400611C89078912803A1203014BD21A29
:1044800070470000FF03000051434343C9188C46A6
:10449000110C83B24B4310B4040C614392B280B24E
:1044A000504362431C041B0C001910BC59411304F7
:1044B000120CC018514161447047000070B51323BD
:1044C0001D782A48FDF7F9FF0400012D11D0012DB8
:1044D00009DDA31E1B789B007F2B40DD802221007D
:1044E000234800F091F82348FDF7DFFF224B1860C6
:1044F00070BD542201001E4800F086F81F4B1A8838
:104500001F4B9A421CD1A7239B011A881D4B9A422C
:1045100016D11D4B1A881D4B9A4211D11C4B1A887B
:1045200094239B019A420BD11A4B1A881A4B9A4238
:1045300006D11A4B1A681A4B9A4201D1152307E08B
:104540001848FEF77DF899001748094A885001334A
:104550001F2BF8D9144A064B1A62DA61B7E7134BDE
:10456000134A42211348FDF7D1FFC04653460000CD
:10457000284800204C33000024480020EE29000089
:10458000C40F0000C20D0000962B0000C0B5000053
:10459000182B0000CC2A000010B50000FC2C0000F5
:1045A00051ED8764307B0010B9450010D07E0010BB
:1045B000407F0010047F001007B56046002800D13E
:1045C00000BE01880A0A0230DF2AFAD1C9B2820885
:1045D00004D3028840880004104300E00068024AC7
:1045E0005050039007BD00002848002001480421D6
:1045F000014B1847600C0020CB240010014B1B68B6
:1046000018470000600C0020014B5B681847000051
:10461000600C002010B50300080011001B689847CB
:1046200010BD0000F8B507000D001600437D002BFB
:1046300002D0002400200CE00368110028009847F5
:104640002DE03B7D10E0022115483B689847601C37
:104650000134B44214DA002CF3DD2B19013B1B7832
:104660000D3B5A425341DBB22A5D0A2AF0D1002B9E
:10467000EED1A042E7DA211A28183B689847E2E712
:10468000B04203DA311A28183B689847002E06DD3D
:10469000AD19013D2B780D3B5A4253413B75F8BD96
:1046A000D47F001070B505000368002B16D00C4BAA
:1046B0001C6805E0290004C92000FFF7B3FF246946
:1046C000002C09D02368002BF9D0064B1B68002B67
:1046D000F0D0A342F3D1EDE700232B6070BDC046BC
:1046E000F84200200043002070B505000C000B6864
:1046F000802B05D021684B1C23606418257170BD88
:104700000800FFF7CFFFF5E710B5FCF7D3FC020078
:104710000B1E0BDB0D48002112184B41002B0BDB4D
:10472000002B0DDB0A4802F03BFB10BD094B0A4A87
:104730003F210A48FDF7EAFE01225242084BEFE70B
:10474000044B054A3F210548FDF7E0FE40420F00BB
:10475000B80C0020E06D0010BC7F0010FC6D001054
:10476000FFFFFF7F10B5024802F0E2FA10BDC0461D
:10477000B80C0020F0B5CE46474680B583B00600A1
:104780000D0090461C00FFF7BFFF81466B1C05D053
:10479000002C08D0194F1A4B1C6807E0300002F0BB
:1047A0008FFA0500F4E7174FF5E72469002C17D0BE
:1047B0002368002BF9D0144B1B68002B01D0A342B7
:1047C000F3D12A0031002000B8474346002BECD03B
:1047D0006B46D91D0A230B7001222000B847E4E77D
:1047E0004B46002B07D16B1E9D41E8B203B0C0BC05
:1047F000B946B046F0BDFFF7B5FFF4E71546001027
:10480000F84200202546001000430020094A01E03C
:1048100010331A001368002B08D08342F8D1002906
:1048200007D1036913600023036102E0002900D06F
:1048300010607047F842002010B5064B1C6801E07C
:1048400098472469002C03D06368002BF8D1F8E75F
:1048500010BDC046F842002070B5050002F030FAE5
:1048600004000023012201002800FFF783FFFFF767
:10487000E3FF200070BD000070B5A2B004000E0080
:10488000FFF742FF0500002301933300220001A936
:104890000848FEF77DFF040001A8FFF703FFFFF7BC
:1048A000CBFF002D02D1200022B070BDFFF75AFFD0
:1048B000F9E7C046E94600100FB400B583B004A97B
:1048C00001C90191FFF7D8FF03B008BC04B0184735
:1048D000F0B583B005000E0000240FE06B46D91D33
:1048E0000D230B700020002816D193699B06FCD481
:1048F0000B78136001300131F5E70134B44219DA65
:104900000D4B1A682F5D0D4BD31859424B415B007C
:104910000B495B5EBB42E1D06B46D91D0F70002096
:104920000028EAD193699B06FCD40B781360013010
:104930000131F5E703B0F0BD444900200080FCBF21
:104940003C490020F0B583B006000F00002504E0CC
:104950006B4607331B782B702500BD4215DA174BC9
:104960001A6893691024210019401C420DD16C1C57
:1049700075196B46D81D0029EAD19369DB06FCD472
:104980001368037001310130F5E70D4B1B68002BF4
:104990000CD00A4B1A685023936311003431536BC7
:1049A00038221A4080235B010B431A60002D02D08D
:1049B000280003B0F0BD033DFAE7C046444900209B
:1049C0008442002010B5064B1B68002B06D0054A18
:1049D000126800219163044A1068984710BDC046D0
:1049E00084420020444900208842002070B5040021
:1049F0000E001C4B1B681C4A981842425041143050
:104A00000500002C03D0194A1268002A06D0002C99
:104A100019D0164B1C60164B1E6070BD1549FCF773
:104A20007DFD01212800FCF769FD0E4B1A6850231B
:104A3000936311003431536B38221A4080235B0199
:104A40000B431A60E5E7094A1268002AE1D0002208
:104A50009A6300212800FCF751FD06492800FCF765
:104A6000A1FED6E7444900200080FCBF844200201C
:104A700088420020C549001070B50D001C000D4B88
:104A80001860002A0BDA002C0EDA0A4B186829008D
:104A9000FDF7A8FC01210848FFF7B8FE70BD022110
:104AA0001000FDF73DFBEEE702212000FDF738FB8B
:104AB000EBE7C04644490020700C002010B50248C6
:104AC000FDF7D0FC10BDC0461C47002002007F202F
:104AD0001040D209400080184001014BC0187047B7
:104AE0000443002010B5038B3F333F229343022938
:104AF00015D0124C2268C260D31823609C0610D1D6
:104B00000F4C6240634080246401A3420FD88906A1
:104B1000114380231B0619434368196010BD5B00D5
:104B2000E7E7084B084A54210848FDF7EFFC084B1B
:104B3000054A56210548FDF7E9FCC0460847002014
:104B400000001050D87F0010E8800010088000108E
:104B500054800010F8B505000E001400FFF7B6FFF2
:104B60007F232B40EF0985707A427A414270002200
:104B7000C2700683C476012F0DD0DA0012498C462C
:104B800062448260826800211160002B09D1436079
:104B90000E4BC360F8BDDA000D498C46624482605A
:104BA000F0E7012F09D0013BDB000A4A9446634439
:104BB00043602100FFF796FFECE7013BDB00064A6C
:104BC000944663444360F4E78400105000011050A1
:104BD000800010500C0010500800105070B50C00F0
:104BE0001500FFF773FF2A00210000F00DF970BDDA
:104BF00010B5002804D101210520FCF77FFC10BD71
:104C0000D521034B034A49000348FDF77FFCC0460A
:104C10009C800010D88000100880001010B500287B
:104C200005D1002200218020FFF7D8FF10BDDB2135
:104C3000024B034A49000348FDF768FC9C800010C2
:104C4000C880001008800010024B80225202DA64F3
:104C50007047C0460020115070B5041E26D100F0E8
:104C6000ADF8164D0C23AB67FF2215490520FCF764
:104C70007FFC402200211348FFF7C0FC00224021A6
:104C80000020FFF767FF002240218020FFF762FF2E
:104C900002F05EF801232B6480239B05EB649023D4
:104CA000094AEA502000FFF7CFFF70BD8621074B6D
:104CB000074AFF310748FDF729FCC04600001150A4
:104CC000A10400200443002010D001009C800010AB
:104CD000FC800010088000100B785B0602D14B7836
:104CE000052B00D070478A78014B1A60FAE7C0465E
:104CF0000000115010B50C0000280DD1097963791E
:104D00001B020B435B05590DE2789207920FA078C6
:104D1000FFF720FF012010BDFC21034B034AFF31A8
:104D20000348FDF7F3FBC0469C800010B8800010DC
:104D30000880001010B502F00BF810BD10B504008B
:104D4000080011001A00002C03D1FFF747FF0120D3
:104D500010BD034B034A04490448FDF7D7FBC04686
:104D60009C800010A88000100A020000088000103B
:104D700010B508004B0605D1CB09012B0AD0022241
:104D8000054B9A66FFF7A2FE80221201002102F075
:104D90001FF810BD0122F3E70020115010B50800E4
:104DA0004B0600D110BDFFF791FE0023C370002217
:104DB000014902F00DF8F5E7FFF7FFFF10B580237A
:104DC0005B040C4A13600C4A13600C4B9A688023F6
:104DD0005B049343F9D10A4C9C2200212000FFF789
:104DE0000DFC8022520100210648FFF707FC092331
:104DF000636710BD00E0004000F0004000C00040CC
:104E0000000011500000105070B504000D00160095
:104E1000837E002B17D1A6820023E3820133A37681
:104E20002561200001F09CFF002804D0094A90234E
:104E300080218902D150200001F0AAFF002805D06E
:104E40000123237770BD01F0BBFFE4E7200001F0F0
:104E5000AFFFF7E70020115070B50500002414E003
:104E600063001B19DA00194B1B689B1806E023002E
:104E700017E05A00D218D200154B9B18002B12D005
:104E80005B68280098470134E4B2124B1B785A1C27
:104E9000A24209DB104A002AE9D0A342E0D8E31A73
:104EA000DBB2012BE5D970BD0C4C53220021200050
:104EB000FFF7A4FBE01C1022FF21FFF79FFB20005F
:104EC00013302022FF21FFF799FBECE7F40D0020BF
:104ED0008482001048490020000000001C3F002090
:104EE00010B5FFF7B9FF00F0F1FD10BD70B505007A
:104EF0000C001600C86800F0F3FDE36832000121E1
:104F00002800984770BD0000F0B5DE464F46464683
:104F1000C0B584B001900139C8B2FBF743FB00284B
:104F200000D196E04678022E00D094E0C5796A114F
:104F3000012350491A4014010A781027BA4322432A
:104F40000A70AD112B405B01D2B22024A24313435F
:104F50000B70070009378278C478240214430419BF
:104F6000A7426FD27B780B2B0AD001239B467B781C
:104F7000042B00D076E0E31B9BB29946002523E08A
:104F8000FB789B463B78FF18F1E76B005B19DB0071
:104F9000394A12689046984407E02B0021E05A00F5
:104FA000D318DB00354A904698444346002B5BD02B
:104FB0004A46390001989B6898470390082801D910
:104FC000814512D20135EDB22D4B1B785A1C02954A
:104FD000AA422FDB2B4A002ADFD0AB42D5D8EB1AEE
:104FE000DBB2012BDBD9002036E05B46012B10D071
:104FF00000218B4514D9BB785B18DBB21D4AD2184F
:10500000D278FF2A32D11B4AD318DD700131C9B2E0
:10501000EFE743469A681C4B9A42E9D1B346E7E76B
:1050200014482B00039D2A003900133001F098FA30
:10503000AC466744124B1B780133029A9A428FDDCB
:10504000002009E0114B002B12D0FBF755FA01208C
:1050500002E0002000E0002004B0E0BCBB46B14606
:10506000A846F0BD0020F7E70020F5E70020F3E7B1
:105070000120F1E71C3F0020F40D00208482001085
:1050800048490020000000001D5E0010F9040010D7
:1050900070B505000C00CB7888780F2B50D89A009B
:1050A0002E498A589746FBF779FA0200122321000D
:1050B000280000F0D1FC44E0294B002B42D0FBF744
:1050C00075FA021E40D08178C3781B020B43210081
:1050D000280000F0C1FC34E0022B09D0214B002B4A
:1050E00034D000E000BF0200002A05D1002028E0F3
:1050F000FBF758FA0200F7E79178D3781B020B43CD
:105100002100280000F0A8FC1BE023796179090246
:105110001943FBF74FFA021E1AD00378210028002A
:1051200000F09AFC0DE0104B002B13D000E000BF04
:10513000021E11D003782100280000F08DFC00E051
:10514000002070BD0020FCE70020FAE70020F8E70F
:105150000020F6E70020F4E70020F2E7F8810010D5
:10516000AD0500100000000000000000024B587860
:10517000431E9841C0B270471C3F0020024B187874
:105180004007C00F7047C0461C3F0020034B1878F3
:10519000FF38431E9841C0B27047C046AC0C002097
:1051A00070B50400FFF7F2FF061E01D0300070BD9D
:1051B000532200212448FFF721FA244D2800FCF750
:1051C00055FC234B1D60234D28001430FCF774FC64
:1051D000280001F01AFD204B1D60204B002B04D04D
:1051E0001F4800E000BF1F4B186000250BE06B005C
:1051F0005B19DA001B4B1B689B18002BD6D01B6871
:1052000098470135EDB2164B1B785A1CAA4210DBA9
:10521000124A002A0BD0AB42E9D8EB1ADBB2012BC1
:10522000C4D85A00D218D2000F4B9B18E5E72B00C8
:10523000F5E70E4B1C702000FFF70EFD2000FFF776
:10524000D7FC0126B2E7C0461C3F0020D43E002018
:10525000703F0020900C0020743F002000000000F0
:1052600048490020F40D002084820010AC0C00207E
:1052700070B50C00094B1D788B7870221A4201D052
:10528000002070BD064B9978200001F02DF9002810
:10529000F7D021002800FFF72DFDF2E7AC0C00202D
:1052A0001C3F0020F8B5CE46474680B581460C002D
:1052B00017001E00089B9846002504E0099A137009
:1052C0002378E4180135AF4214DD6378052B16D13D
:1052D000E1788907890FB14213D121004846FFF7D1
:1052E000C7FF002807D0A378DA09012AE6D0424692
:1052F0001370E5E70120C0BCB946B046F8BD0020F8
:10530000F9E70020F7E7000010B57F200840C90941
:10531000400040183030044908180330034B196826
:1053200001F09BF810BDC0461C3F0020703F0020DC
:1053300010B57F200840C9094000401830300449AA
:1053400008180330034B196801F0AFF810BDC046D0
:105350001C3F0020703F0020F8B5CE46474680B580
:10536000194800787F250D40CE096F00174CE419CD
:10537000A4193034E478E40704D50020C0BCB94651
:10538000B046F8BD114CE419A4193027B946A14420
:105390004C46E4780127BC4667463C4327004C4610
:1053A000E770FFF7CBFC0028E8D16D00074B5D19D3
:1053B000AE193036F37801229343F370F378033259
:1053C0009343F370DAE7C046AC0C00201C3F00208A
:1053D0007F220A40CB09520003498918C91830318D
:1053E000C878C007C00F70471C3F002070B50F4B36
:1053F00018787F240C40CD0962000D4B9B185B1977
:105400003033DB789B0700D570BDFFF7B1FC63003C
:10541000074CE41864193034E37802221343E37034
:10542000E37801221343E370EEE7C046AC0C0020A2
:105430001C3F002070B50F4B18787F240C40CD091D
:1054400062000D4B9B185B193033DB789B0700D44F
:1054500070BDFFF7A3FC6300074CE41864193034F7
:10546000E37802229343E370E378013A9343E370D5
:10547000EEE7C046AC0C00201C3F00207F220A4013
:10548000CB09520003498918C9183031C878800700
:10549000C00F70471C3F0020F0B5C64600B582B073
:1054A00005000C00002000F01BFB23786022134055
:1054B000602B00D187E1402B0FD02278D206D20E8C
:1054C000012A00D1CAE0022A00D111E1002A11D03C
:1054D000002002B080BCB846F0BDC64B002B00D106
:1054E00073E1180000F0FCFA220001212800FAF70D
:1054F0009BFFEEE7202B0AD0002B00D06BE16378F6
:10550000092B00D969E19B00BB4AD3589F462379F8
:105510000F2B00D95BE1B94AD318DB78B84A002ACF
:1055200005D0B84A1278934205D39B1ADBB2012BFF
:1055300008D90020CDE75900CB18DB00B24A11682A
:10554000C91804E05900CB18DB00B049C91800297C
:1055500000D13EE122002800FFF7C8FCB9E7200097
:1055600000F0C4FAA1782800FFF758FBA34A13788B
:1055700002210B4313700120ABE7A04B5B786A4616
:105580000632137001232100280000F065FA012083
:105590009FE7A678994B5B78DBB2B34205D0974B77
:1055A0005B78002B09D1002E13D1944B5E70210043
:1055B000280000F035FA01208BE72800FFF7BAFB3E
:1055C0008E4FBB7898462800FFF746FC4346BB70D9
:1055D000E9E731002800FFF797FC0028E5D178E7DC
:1055E00021002800FFF754FD73E7A278E3781B023F
:1055F0001343012B01D000206BE7804A1378082168
:105600000B4313702100280000F00AFA012060E724
:10561000A278E3781B021343012B01D0002058E746
:10562000764A137808218B4313702100280000F07C
:10563000F7F901204DE7714B1A78510992080123BF
:105640000B4002210A4013436A46063213800223AC
:105650002100280000F000FA01203AE723790F2BFF
:1056600000D9BCE0654AD318DB78654A002A05D02A
:10567000644A1278934205D39B1ADBB2012B08D9F6
:10568000002026E75900CB18DB005F4A1168C918D3
:1056900004E05900CB18DB005C49C918002900D18F
:1056A0009FE022002800FFF721FC002800D010E72F
:1056B000237860221A4200D00BE763780A3B012B63
:1056C00000D906E700F00CFA63780A2B05D0210018
:1056D000280000F0A5F90120FBE66B469A1D002387
:1056E000137001332100280000F0B6F90120F0E624
:1056F00021797F220A40CE097020084273D15200DE
:105700003E4882189219D27C3D48002805D03D4879
:10571000007882420ED3121AD2B2012A11D9002681
:10572000002B14D0002E60D0220031002800FFF79B
:10573000DDFBCEE65600B218D20033480668B61834
:10574000EEE75600B218D200304EB618E8E763789C
:10575000012B12D0032B10D0002B01D00020B8E673
:105760002800FFF78BFE6B469A1D10800223210054
:10577000280000F071F90120ABE6A778E278120268
:105780003A4304D1012B1AD02800FFF72FFE002E38
:105790002DD0220031002800FFF7A8FB002000F0E8
:1057A0009FF9164A3423D35CDB07D80F002B00D0B7
:1057B0008FE62100280000F033F9012089E6280057
:1057C000FFF738FEE3E7002083E6002081E60020B3
:1057D0007FE600207DE600207BE6002079E60020C1
:1057E00077E6002075E6002073E6002071E60120D0
:1057F0006FE6C04629040010388200101C3F0020CC
:105800000000000048490020F40D002084820010B0
:1058100030B585B000F01AFE002808D105B030BDC3
:1058200001AC2078FFF75CFB22795D4B9A705D4BF1
:105830001C68210014316269EFF3108072B613689E
:10584000002BFCD0BFF35F8F486001A9200001F05E
:105850007FF96269A369BFF35F8F0021116083F351
:1058600010880028DAD001AB5B78082BDFD89B00CA
:105870004D4AD3589F4601AB1878FFF731FB4B4B8D
:10588000002BD4D0FAF744FED1E7454B1A78012417
:1058900001210A431A703322995CA1439954995CFF
:1058A0000420814399540132995CA1439954995C35
:1058B0008143995401AB187802A9FFF7EDFD002848
:1058C000B5D101AC20780021FFF752FA2078802171
:1058D000FFF74EFAABE701AB19797F220A40CC09FA
:1058E00050002F4B1B181B193033D8780125A843C3
:1058F000D870D8780335A843D870002A1FD052003A
:10590000274B9A181219D37C294A002A05D0294A14
:10591000127893421AD39B1ADBB2012B00D97DE790
:105920005A00D218D200244B9B18002B00D175E7E7
:105930001C6901A84279039B0078A04777E701A87A
:105940004279039B007800F0DFF870E75A00D21824
:10595000D2001A4B1B689B18E7E7114B1B78DB073B
:1059600000D464E7164B002B00D160E70C4B18788D
:105970000007C00F00E000BF59E7094B1B78DB07A9
:1059800000D454E70F4B002B00D150E700E000BFDC
:105990004DE7029B002B00D149E70398984746E763
:1059A0001C3F0020743F0020608200101105001091
:1059B000000000004849002084820010F40D0020FF
:1059C0000000000000000000F8B50500124B9F89A0
:1059D000DE89B91B89B20B1C402900D940239CB237
:1059E0000D4B1B785BB2002B08DB0021B74211D0B6
:1059F0000A4A23002800FFF7AFFCF8BDB74201D1E7
:105A00008021F3E7044B996822000448FEF7FCFD6F
:105A10008021EBE70022ECE7803E0020DC3E002006
:105A200070B506000C000B4D08222800FEF7ECFDB7
:105A30000023AB60EB81AB810023E356002B06DB38
:105A40008021002300223000FFF786FC70BD00217A
:105A5000F7E7C046803E0020F0B5C64600B5804658
:105A60000C0016001D00184F08223800FEF7CCFD70
:105A7000BE600023FB81A379E179090219430B1C65
:105A8000A94200D92B1C99B20F4A9381A279E379DC
:105A90001B02134309D0002901D0002E12D040462A
:105AA000FFF792FF80BCB846F0BD0023E356002B01
:105AB00006DB8021002300224046FFF74DFCF1E782
:105AC0000021F7E70020EDE7803E002010B514220A
:105AD00000210248FEF792FD10BDC046803E002026
